:100000000C945E000C9486000C9486000C94860080
:100010000C9486000C9486000C9486000C94860048
:100020000C9486000C9486000C9486000C94430576
:100030000C9486000C9486000C9486000C94860028
:100040000C9477040C9486000C9462010C943C018F
:100050000C9486000C9486000C9486000C94860008
:100060000C9486000C9486000000000024002700F9
:100070002A0000000000250028002B0004040404CE
:100080000404040402020202020203030303030342
:10009000010204081020408001020408102001021F
:1000A00004081020000000080002010000030407FB
:1000B0000000000000000000FE0AF60A11241FBE26
:1000C000CFEFD8E0DEBFCDBF12E0A0E0B1E0E2E8C4
:1000D000FEE102C005900D92AE30B107D9F723E0E2
:1000E000AEE0B2E001C01D92A639B207E1F710E020
:1000F000CDE5D0E004C02197FE010E944F0ECC3523
:10010000D107C9F70E947A070C94340F0C940000B1
:10011000089580E090E00895FC01538D448D252FD3
:1001200030E0842F90E0821B930B541710F0CF9691
:10013000089501970895FC01918D828D981761F0C3
:10014000828DDF01A80FB11D5D968C91928D9F5F0E
:100150009F73928F90E008958FEF9FEF0895FC01B9
:10016000918D828D981731F0828DE80FF11D858D6C
:1001700090E008958FEF9FEF0895FC01918D228DFF
:10018000892F90E0805C9F4F821B91098F73992784
:10019000089585EC92E00E94BD0021E0892B09F4CE
:1001A00020E0822F0895EF92FF920F931F93CF9339
:1001B000DF93EC0181E0888F9B8D8C8D981305C0B7
:1001C000E889F989808185FD24C0F62E0B8D10E029
:1001D0000F5F1F4F0F731127E02E8C8DE8120CC09C
:1001E0000FB607FCFACFE889F989808185FFF5CF42
:1001F000CE010E944A04F1CF8B8DFE01E80FF11D64
:10020000E35AFF4FF0820B8FEA89FB89808180627D
:1002100007C0EE89FF896083E889F989808180645D
:10022000808381E090E0DF91CF911F910F91FF904B
:10023000EF900895CF93DF93EC01888D8823C9F068
:10024000EA89FB89808185FD05C0A889B9898C91DF
:1002500086FD0FC00FB607FCF5CF808185FFF2CF7A
:10026000A889B9898C9185FFEDCFCE010E944A04FF
:10027000E7CFDF91CF9108951F920F920FB60F92A3
:1002800011242F933F934F935F936F937F938F939B
:100290009F93AF93BF93EF93FF9385EC92E00E94FF
:1002A0004A04FF91EF91BF91AF919F918F917F9100
:1002B0006F915F914F913F912F910F900FBE0F90D3
:1002C0001F9018951F920F920FB60F9211242F9323
:1002D0008F939F93EF93FF93E091D502F091D60215
:1002E0008081E091DB02F091DC0282FD12C09081FE
:1002F0008091DE028F5F8F732091DF02821751F0B1
:10030000E091DE02F0E0EB53FD4F958F8093DE022B
:1003100001C08081FF91EF919F918F912F910F905C
:100320000FBE0F901F90189580E090E0892B29F068
:100330000E94C90081110C940000089590E0FC0116
:10034000EC55FF4F3491FC01E057FF4F2491FC0125
:10035000E458FF4FE491EE2309F43BC0332339F115
:10036000333091F038F43130A9F0323001F584B5F2
:100370008F7D12C0373091F03830A1F03430B9F4AD
:10038000809180008F7D03C0809180008F77809363
:1003900080000DC084B58F7784BD09C08091B00006
:1003A0008F7703C08091B0008F7D8093B000F0E024
:1003B000EE0FFF1FEE58FF4FA591B4918FB7F89441
:1003C000EC91611103C020952E2301C02E2B2C939C
:1003D0008FBF0895CB0108957F928F929F92AF9225
:1003E000BF92CF92DF92EF92FF920F931F93CF9322
:1003F000DF93EC0149015A018B01C12CD12C76010C
:10040000C814D904EA04FB0484F5F80171908F0143
:100410008F8580FF0BC0E881F9810084F185E02D94
:1004200020E144E060E070E0CE010995EB85FC85B9
:100430008D859E85E817F90738F470828B859C8539
:1004400001969C878B870BC0E881F981672D70E04E
:10045000028CF38DE02DCE010995019649F02FEF26
:10046000C21AD20AE20AF20ACBCFB401C50102C015
:10047000B601C701DF91CF911F910F91FF90EF90CF
:10048000DF90CF90BF90AF909F908F907F90089516
:10049000CF93DF93EC01E881F9810288F389E02DA5
:1004A00009958F3F2FEF920731F02D813E812F5F0D
:1004B0003F4F3E832D83DF91CF9108958FEF9FEFC4
:1004C000089560E070E0CB01089580E090E0089529
:1004D000CB010895CF93DF93EC0188899989DC01E2
:1004E000ED91FC910084F185E02D0995892BA9F30C
:1004F00088899989DC01ED91FC910284F385E02DD6
:10050000DF91CF910994CF93DF93EC01888999898A
:10051000DC01ED91FC910084F185E02D0995892B9A
:10052000A9F388899989DC01ED91FC910484F58512
:10053000E02DDF91CF910994AF92BF92CF92DF92DD
:10054000EF92FF920F931F93CF93DF9300D000D0D1
:10055000CDB7DEB78C015B01C12CD12C7601F8013F
:1005600080899189DC01ED91FC910284F385E02D75
:1005700029833A834B835C83099529813A814B8196
:100580005C818F3F71F0C216D306E406F5064CF489
:10059000D5018D935D01BFEFCB1ADB0AEB0AFB0A95
:1005A000DECFC701B6010F900F900F900F90DF9133
:1005B000CF911F910F91FF90EF90DF90CF90BF9060
:1005C000AF900895DC0150968D919C915197DC017C
:1005D000ED91FC910084F185E02D099480E090E09C
:1005E000089580E090E0089580E090E0089580E034
:1005F00090E008950895CF93DF93C0919502D09134
:100600009602E881F9810084F185E02DCE010995FB
:10061000892BB9F3E881F9810284F385E02DCE01BD
:10062000DF91CF9109941F93CF93DF93182FC0913F
:100630009502D09196028A3041F4E881F9810190C7
:10064000F081E02D6DE0CE010995E881F9810190FE
:10065000F081E02D612FCE01099521E030E0019776
:1006600011F420E030E0C901DF91CF911F9108958E
:100670000F931F93CF93DF938C01EB016F3F8FEFAD
:10068000780719F480E090E00FC06A3031F46DE033
:10069000F801808991890E94E1066C2FF801808918
:1006A00091890E94E106CE01DF91CF911F910F91B8
:1006B00008958F929F92BF92CF92DF92EF92FF9216
:1006C0000F931F93CF93DF9300D000D0CDB7DEB749
:1006D0008C014B01C12CD12C7601C216D306E40645
:1006E000F50644F5F401B1904F01FAE0BF120EC0D7
:1006F0006DE0F8018089918929833A834B835C837B
:100700000E94E1065C814B813A8129816B2DF801C1
:100710008089918929833A834B835C830E94E10617
:10072000FFEFCF1ADF0AEF0AFF0A5C814B813A81A3
:100730002981D3CFCA01B9010F900F900F900F906C
:10074000DF91CF911F910F91FF90EF90DF90CF90AD
:10075000BF909F908F9008950C940A0D089508956E
:100760000C940A0DDC01ED91FC91369720813181CA
:10077000820F931F0C94B003FB0120813181FC0197
:1007800031832083FB0142815381F9013697208117
:100790003181FC01E20FF31F5183408308952AE564
:1007A00031E0FC013183208324E631E0318F208F5A
:1007B0006AE671E00C94BC03DC01ED91FC91369784
:1007C00020813181820F931F0C94CF03CF93DF934D
:1007D000EC010E94CF03CE01DF91CF910C940A0D62
:1007E000DC01ED91FC91369720813181820F931FBE
:1007F0000C94E6030C940A0D089508950C940A0DC8
:10080000DC01ED91FC91369720813181820F931F9D
:100810000C94FE03FB0120813181FC013183208394
:10082000FB0142815381F901369720813181FC011E
:10083000E20FF31F51834083089522ED31E0FC0164
:10084000318320832CED31E0358B248B62EE71E017
:100850000C940A04DC01ED91FC91369720813181E2
:10086000820F931F0C941D04CF93DF93EC010E9421
:100870001D04CE01DF91CF910C940A0DDC01ED91A6
:10088000FC91369720813181820F931F0C943404A0
:100890000C940A0DFC01848DDF01A80FB11DA35A31
:1008A000BF4F2C91848D90E001968F739927848F90
:1008B000A689B7892C93A089B1898C9180648C9387
:1008C000938D848D981306C00288F389E02D808172
:1008D0008F7D808308952FB7F894609149027091BD
:1008E0004A0280914B0290914C022FBF08951F92B3
:1008F0000F920FB60F9211242F933F938F939F93D4
:10090000AF93BF938091490290914A02A0914B020C
:10091000B0914C023091480223E0230F2D3720F490
:100920000196A11DB11D05C026E8230F0296A11D49
:10093000B11D209348028093490290934A02A093EC
:100940004B02B0934C028091440290914502A091D9
:100950004602B09147020196A11DB11D8093440249
:1009600090934502A0934602B0934702BF91AF9186
:100970009F918F913F912F910F900FBE0F901F90DD
:100980001895CF93DF93DC0111967C936E931496A8
:100990008C9114978C3008F070C09B013327F901BB
:1009A000E057FF4F8491F901E458FF4F249122232F
:1009B00099F030E0220F331FF901E859FF4FC5913C
:1009C000D491F901EE58FF4F259134919FB7F894D7
:1009D000E881E82BE8839FBF14968C911497E82F49
:1009E000F0E09F01220F331FE20FF31FE15FFD4F85
:1009F0006F739081907C692B608315961C9215977C
:100A000016961C9216976CE00E94430E9CE0899FFC
:100A1000B001112440E050E09A01260F371FF90180
:100A2000EE0FFF1F2E0F3F1FF901E15FFD4F908179
:100A300096FD16C04F5F5F4F4C30510569F781112D
:100A40000FC01092800082E0809381001092850098
:100A500010928400B19A80916F00826080936F0041
:100A60001496EC91F0E0CF01880F991FE80FF91F61
:100A7000E15FFD4F808180648083DF91CF91089595
:100A80000895089508951F920F920FB60F921124A2
:100A90002F933F934F935F936F937F938F939F9386
:100AA000AF93BF93EF93FF938091430287FF05C0FD
:100AB00010928500109284001BC020914302022EE8
:100AC000000C330B80910E0290E02817390784F454
:100AD00080914302082E000C990BFC01EE0FFF1FC2
:100AE0008E0F9F1FFC01E15FFD4F808186FD15C0C9
:100AF000809143028F5F8093430220914302022E34
:100B0000000C330B80910E0290E028173907C4F4D3
:100B1000809143028C3064F113C080914302082E0F
:100B2000000C990BFC01EE0FFF1F8E0F9F1FFC01A5
:100B3000E15FFD4F808160E08F730E949E01D8CFFE
:100B40008091840090918500049680349C4918F42B
:100B500080E49CE905C08091840090918500049612
:100B600090938900809388008FEF809343023BC06D
:100B7000209184003091850080914302082E000C62
:100B8000990BFC01EE0FFF1F8E0F9F1FFC01E15F11
:100B9000FD4F81819281820F931F909389008093F2
:100BA000880080914302082E000C990BFC01EE0F87
:100BB000FF1F8E0F9F1FFC01E15FFD4F808186FFAD
:100BC00012C080914302082E000C990BFC01EE0F1D
:100BD000FF1F8E0F9F1FFC01E15FFD4F808161E0D1
:100BE0008F730E949E01FF91EF91BF91AF919F91F2
:100BF0008F917F916F915F914F913F912F910F90C6
:100C00000FBE0F901F901895CF92DF92EF92FF9238
:100C10000F931F93CF93DF936C017A018B01C0E098
:100C2000D0E0CE15DF0589F0D8016D918D01D60198
:100C3000ED91FC910190F081E02DC6010995892B81
:100C400011F47E0102C02196ECCFC701DF91CF9154
:100C50001F910F91FF90EF90DF90CF9008950E9429
:100C60001F0FE5ECF2E0A089B18982E08C93A485A6
:100C7000B5851C92A685B7858FEC8C93108EA489C0
:100C8000B58986E08C93A289B3898C9180618C931D
:100C9000A289B3898C9188608C93A289B3898C9145
:100CA00080688C930288F389E02D80818F7D80831A
:100CB00008958F929F92AF92BF92CF92DF92EF9260
:100CC000FF926B017C010E946B044B015C01C60E1C
:100CD000D71EE81EF91E0E946B04681579058A0567
:100CE0009B0528F0C616D706E806F906A0F7FF9080
:100CF000EF90DF90CF90BF90AF909F908F9008952E
:100D00000F931F930E946B046093CD027093CE02E9
:100D10008093CF029093D002E091C502F091C60279
:100D20000284F385E02D85EC92E0099597FF1FC0C2
:100D30000E946B040091CD021091CE022091CF024F
:100D40003091D002DC01CB01801B910BA20BB30BC5
:100D50000091C9021091CA022091CB023091CC02BD
:100D600080179107A207B307B8F28FEF9FEF1F918B
:100D70000F9108950F931F93CF93DF93EC01888118
:100D80009981009729F02A813B812617370788F43B
:100D90008B016F5F7F4F0E94550E009761F0998322
:100DA00088831B830A832C813D81232B11F4FC0152
:100DB000108281E001C080E0DF91CF911F910F91FF
:100DC0000895DC01ED91FC910190F081E02D0994F2
:100DD0006115710579F0FB0101900020E9F7319769
:100DE000AF01461B570BDC01ED91FC910280F381B2
:100DF000E02D099480E090E008954F925F926F9209
:100E00007F92EF92FF920F931F93CF93DF93CDB713
:100E1000DEB7A1970FB6F894DEBF0FBECDBF7C0141
:100E2000FA01CB0119A2223008F42AE08E010F5DED
:100E30001F4F422E512C612C712CBF01A301920136
:100E40000E94A90DF901CA01015011096A3014F478
:100E5000605D01C0695CD8016C93232B242B252B8A
:100E600061F7B801C7010E94E806A1960FB6F89491
:100E7000DEBF0FBECDBFDF91CF911F910F91FF90CD
:100E8000EF907F906F905F904F900895CF92DF9298
:100E9000EF92FF92CF93DF936C01990FEE08FF085A
:100EA000F7FE1BC06DE285EC92E00E94E106EC01CA
:100EB00044275527BA014C195D096E097F092AE0BC
:100EC00085EC92E00E94FD068C0F9D1FDF91CF9173
:100ED000FF90EF90DF90CF9008952AE0B701A60130
:100EE00085EC92E0DF91CF91FF90EF90DF90CF9073
:100EF0000C94FD06CF93DF93CDB7DEB72A970FB6DC
:100F0000F894DEBF0FBECDBF789484B5826084BDF7
:100F100084B5816084BD85B5826085BD85B58160FD
:100F200085BD80916E00816080936E00109281007B
:100F30008091810082608093810080918100816036
:100F400080938100809180008160809380008091F7
:100F5000B10084608093B1008091B0008160809383
:100F6000B00080917A00846080937A0080917A004A
:100F7000826080937A0080917A00816080937A0009
:100F800080917A00806880937A001092C10010925C
:100F90009102109292021092930210929402109277
:100FA0004F0210925002109251021092520268EBBE
:100FB0007BE080E090E00E94590685EC92E09093FF
:100FC000900280938F020E9431060E946B0460930E
:100FD0004F0270935002809351029093520268EE38
:100FE00071E080918F02909190020E94E8066AE081
:100FF00070E080E090E00E94590681E080936302F7
:101000000E94310689E090E00E94750C8C0183E01B
:1010100090E0D80111969C938E9388E090E015960D
:101020009C938E93149717961C921E92169780E1AC
:1010300090E00E94750CF80193838283C12CD12C1F
:1010400033243A94B8EB4B2EBBE05B2EF801808141
:101050009181C816D9060CF08EC087E090E00E94FE
:10106000750C5C01DC011396DC92CE921297809194
:101070000E028C3090F491E0980F90930E0214962B
:101080008C9390E0FC01EE0FFF1F8E0F9F1FFC0161
:10109000E15FFD4F5282418202C0F5013482D801E6
:1010A00016968D909C9017977401BFEFEB1AFB0A70
:1010B0008E149F0408F053C0F801248135812E1549
:1010C0003F0578F5C40109962817390750F5628065
:1010D000738095838483880F991F0E94750CD801B3
:1010E00013969C938E931297D30140E050E04815DD
:1010F0005905A1F0F801828193819A01220F331FD3
:10110000FC01E20FF31F309729F08D919C9111970C
:10111000918380834F5F5F4F1296E9CFC3010E9496
:101120000A0DD80116968D919C9117979C01220F5C
:10113000331F8E159F0578F4D8011296ED91FC911E
:101140001397E20FF31F309711F0B182A08201963E
:101150002E5F3F4FEECFF801F782E68208C0E81419
:10116000F90428F4D8011796FC92EE921697BFEF77
:10117000CB1ADB0A6BCF1093360200933502028044
:10118000F381E02D69E070E0808191810E94C104CB
:10119000D8011296ED91FC9113976AE070E082817C
:1011A00093810E94C104D8011296ED91FC9113978E
:1011B0006BE070E0848195810E94C104B8E52B2E1C
:1011C000B2E03B2E14EB412E512C612C712C0E946D
:1011D0006B04672B682B692B41F40E946B0462300F
:1011E00071058105910508F40EC10E946B0460939E
:1011F0003F0270934002809341029093420200911B
:101200003B0210913C0220913D0230913E0260175A
:1012100071078207930740F460933B0270933C028E
:1012200080933D0290933E0200913B0210913C025C
:1012300020913D0230913E026B017C01C01AD10A1F
:10124000E20AF30A970186010A3F110521053105DB
:1012500008F4D9C060933B0270933C0280933D0236
:1012600090933E0284EF91E0A0E0B0E080935B02B7
:1012700090935C02A0935D02B0935E0210925F02B5
:1012800010926002109261021092620280915302E9
:1012900090915402A0915502B0915602809357024A
:1012A00090935802A0935902B0935A020E946B0483
:1012B00060935302709354028093550290935602A8
:1012C0000E946B0460934F0270935002809351020E
:1012D000909352020E946B046B017C016AEF71E0F3
:1012E00080918F02909190020E94E8062AE041E0EE
:1012F00050E060E070E080918F02909190020E9437
:10130000FD0661E072E080918F02909190020E9450
:10131000E8062AE0B701A60180918F029091900221
:101320000E94FD0663E072E080918F02909190022E
:101330000E94E8068091530290915402A0915502B8
:10134000B0915602B701A601481B590B6A0B7B0BE3
:101350002AE080918F02909190020E94FD0663E046
:1013600072E080918F02909190020E94E806409175
:10137000530250915402609155027091560280912F
:10138000570290915802A0915902B0915A02481BFD
:10139000590B6A0B7B0B2AE080918F02909190028F
:1013A0000E94FD0665E072E080918F0290919002AC
:1013B0000E94E8060E946B04AB01BC012AE0809108
:1013C0008F02909190020E94FD0600918F02109171
:1013D000900267E072E0C8010E94E80667EF71E0E2
:1013E000C8010E94E80662E070E080E090E00E94A0
:1013F00059060E946B0460935302709354028093C9
:1014000055029093560285EC92E00E94BD0002972F
:101410000CF49DC085EC92E00E949B00C0979093D5
:101420003A02809339021A8219821C821B821E8220
:101430001D8260E070E0CE0101960E94BA0629810B
:101440003A8181110DC02115310519F0C9010E94A1
:101450000A0D1A8219821E821D821C821B8222C0E2
:101460001E821D8269EF71E0C9010E942D0F1AC012
:101470008F8318860D811E810F5F1F4FB801CE012B
:1014800001960E94BA06882369F029813A818D81EC
:101490009E81BE01695F7F4F820F931F0E942D0FB7
:1014A0001E830D830E94800697FFE2CF09811A8177
:1014B0000115110531F0C8010E94D20B6B017C01AE
:1014C00003C0C12CD12C7601B601D0923802C09253
:1014D0003702C801C9867A870E940A0D80913902B5
:1014E00090913A02E0913502F091360220813181EB
:1014F00069857A858217930754F597FD28C0B5EB67
:10150000CB16D10420F5880F991F22813381F90170
:10151000E80FF91F0190F081E02DF0933402E09381
:101520003302D382C28296818581F480ABE0AF150D
:1015300088F48091390290913A020E944607E09126
:101540003302F0913402828193810E9446070E9407
:1015500094013DCE6101C91AD10897FDD394CC0CFA
:10156000DD1CCC0CDD1C08E810E0081B110987FD10
:101570001395000F111F000F111F4801012E000CC1
:10158000AA08BB08C6010D2C000CAA0BBB0B9C01C2
:10159000AD01281939094A095B09DB010E94F50DE3
:1015A000A30192010E94CB0DDA01C901880D991D9A
:1015B000AA1DBB1D801791072CF08C01C816D906F7
:1015C0000CF4860102501109000F111F2FB7F89477
:1015D0008F2D90E0FC01EE0FFF1F8E0F9F1FFC016F
:1015E000E15FFD4F128301832FBFA3CF87E992E014
:1015F0000E94CF0382E693E00C941D04CF93DF9307
:10160000A5ECB2E013961C921E92129748EE53E09E
:1016100060E070E014964D935D936D937C93179703
:1016200082E391E011969C938E9385EC90E01D9659
:101630009C938E931C9784EC90E01F969C938E93C2
:101640001E9780EC90E051969C938E93509781EC7E
:1016500090E053969C938E93529782EC90E055962F
:101660009C938E93549786EC90E057969C938E9320
:10167000569759961C9259975A961C925A975B9670
:101680001C925B975C961C925C97EDE4F2E01682EC
:101690001782108611861286138614861586168682
:1016A0001786108A118A128A138A148A158AE2E62A
:1016B000F3E0C1E2D0E0D08FC78B118E128E138E73
:1016C00046E050E060E070E0448F558F668F778F82
:1016D00010A211A212A213A220E224A316A215A204
:1016E00011A684E693E090A787A382ED91E0918311
:1016F00080838CED91E0958B848B16821582108609
:101700001782128611861486138616861586108A0D
:10171000178680EB91E093838283B38BA28B30E1B9
:10172000318BE7E9F2E0D48FC38F158E168E178EBA
:1017300040A351A362A373A314A215A216A217A2D9
:1017400020A712A611A615A6128213821482158252
:101750002DE932E034A723A72AE531E03183208345
:1017600024E631E0318F208F12861186148613868D
:1017700016861586108A1786128A118A148A138A89
:1017800097838683B78BA68B88E0858BB093960270
:10179000A09395026BEF72E083E193E0DF91CF912C
:1017A0000C940E0C1F93FC0199278827BC01E89428
:1017B00011911032E9F3193010F01E30C8F31B32CA
:1017C00051F01D3249F4689406C00E94F90B610F74
:1017D000711D811D911D119110531A30B0F33EF40B
:1017E00090958095709561957F4F8F4F9F4F1F917A
:1017F0000895592F482F372F262F660F771F881FE0
:10180000991F660F771F881F991F620F731F841F10
:10181000951F660F771F881F991F08950F931F93B9
:10182000CF93DF93009731F46115710519F480E0CF
:1018300090E03AC08B01EC016EE070E081E090E056
:101840000E94590CFC01892B91F380E883830115D8
:10185000110571F01387028781E8838380918C03DF
:1018600090918D03892B21F4F0938D03E0938C03E9
:101870002097C9F0D187C08783818260838380915C
:101880008E0390918F03892B71F4F0938F03E09373
:101890008E038091900390919103892B21F4F09312
:1018A0009103E0939003CF01DF91CF911F910F91AE
:1018B00008950F931F93CF93DF93869F8001879F97
:1018C000100D969F100D1124C8010E94750CEC019B
:1018D000009729F0A80160E070E00E94A20DCE01FF
:1018E000DF91CF911F910F910895CF93DF938230B5
:1018F000910510F482E090E0E0919403F09195035B
:1019000020E030E0C0E0D0E0309711F1408151811B
:1019100048175907C0F04817590761F4828193812D
:10192000209719F09B838A832BC090939503809313
:10193000940326C02115310519F04217530718F4F6
:101940009A01BE01DF01EF010280F381E02DDCCFBF
:101950002115310509F1281B390B2430310590F48C
:1019600012968D919C9113976115710521F0FB01E1
:101970009383828304C09093950380939403FD0125
:10198000329644C0FD01E20FF31F819391932250E0
:1019900031092D933C933AC02091920330919303E7
:1019A000232B41F4209102013091030130939303E2
:1019B00020939203209100013091010121153105FE
:1019C00041F42DB73EB74091040150910501241B0D
:1019D000350BE0919203F0919303E217F307A0F423
:1019E0002E1B3F0B2817390778F0AC014E5F5F4F75
:1019F0002417350748F04E0F5F1F50939303409311
:101A000092038193919302C0E0E0F0E0CF01DF9177
:101A1000CF9108950F931F93CF93DF93009709F40D
:101A20008CC0FC01329713821282009194031091B2
:101A300095030115110581F420813181820F931FD7
:101A400020919203309193032817390779F5F09389
:101A50009303E093920371C0D80140E050E0AE17C9
:101A6000BF0750F412962D913C911397AD012115AB
:101A7000310509F1D901F3CF9D01DA0133832283C6
:101A800060817181860F971F8217930769F4EC01BB
:101A900028813981260F371F2E5F3F4F31832083E6
:101AA0008A819B8193838283452B29F4F09395034C
:101AB000E093940342C01396FC93EE931297ED01CA
:101AC000499159919E01240F351FE217F30771F4D4
:101AD00080819181840F951F029611969C938E931D
:101AE0008281938113969C938E931297E0E0F0E0AD
:101AF000D80112968D919C911397009719F0F801D7
:101B00008C01F6CF8D919C9198012E5F3F4F820FF3
:101B1000931F20919203309193032817390769F49A
:101B2000309729F4109295031092940302C0138207
:101B300012821093930300939203DF91CF911F9130
:101B40000F910895DC0101C06D9341505040E0F7C2
:101B50000895A1E21A2EAA1BBB1BFD010DC0AA1FEE
:101B6000BB1FEE1FFF1FA217B307E407F50720F006
:101B7000A21BB30BE40BF50B661F771F881F991F81
:101B80001A9469F760957095809590959B01AC01CA
:101B9000BD01CF010895052E97FB1EF400940E940D
:101BA000E20D57FD07D00E94A90D07FC03D04EF4AB
:101BB0000C94E20D50954095309521953F4F4F4F35
:101BC0005F4F089590958095709561957F4F8F4FE9
:101BD0009F4F08950E94340EA59F900DB49F900DC5
:101BE000A49F800D911D11240895B7FF0C94EA0D58
:101BF0000E94EA0D821B930B08952F923F924F9201
:101C00005F926F927F928F929F92AF92BF92CF928C
:101C1000DF92EF92FF920F931F93CF93DF93CDB795
:101C2000DEB7CA1BDB0B0FB6F894DEBF0FBECDBF0D
:101C300009942A88398848885F846E847D848C84DE
:101C40009B84AA84B984C884DF80EE80FD800C81E7
:101C50001B81AA81B981CE0FD11D0FB6F894DEBFCA
:101C60000FBECDBFED010895A29FB001B39FC0018B
:101C7000A39F700D811D1124911DB29F700D811DB8
:101C80001124911D0895991B79E004C0991F96179E
:101C900008F0961B881F7A95C9F780950895EE0F76
:101CA000FF1F0590F491E02D0994A0E0B0E0EBE572
:101CB000FEE00C94010EEC01009721F4CB010E9490
:101CC000750CB8C0FC01E60FF71F9C0122503109CA
:101CD000E217F30708F4ACC0D9010D911C911197DC
:101CE00006171707B0F00530110508F49FC0C801AA
:101CF00004978617970708F499C002501109061B2C
:101D0000170B019311936D937C93CF010E940A0DE1
:101D10008DC05B01A01AB10A4C01800E911EA091EA
:101D20009403B091950340E050E0E12CF12C109722
:101D300009F44AC0A815B905D1F56D907C901197AA
:101D4000630182E0C80ED11CCA14DB0480F1A30138
:101D50004A195B096A0182E0C80ED11C1296BC9038
:101D600012971396AC91B5E0CB16D10440F0B28235
:101D7000A38351834083D9016D937C930AC00E5F86
:101D80001F4FC301800F911FF90191838083EB2DB9
:101D9000FA2FE114F10431F0D7011396FC93EE937E
:101DA000129744C0F0939503E09394033FC08D9144
:101DB0009C9111974817590708F4AC017D011296C0
:101DC0000D90BC91A02DB3CF80919203909193037D
:101DD00088159905E1F446175707C8F4809100016A
:101DE00090910101009741F48DB79EB74091040195
:101DF00050910501841B950BE817F907C8F4F0937F
:101E00009303E0939203F901718360830FC0CB01C8
:101E10000E94750C7C01009759F0A801BE010E9438
:101E2000240FCE010E940A0DC70104C0CE0102C0DA
:101E300080E090E0CDB7DEB7EEE00C941D0E81E0BF
:101E400090E0F8940C94340FFB01DC0102C0019087
:101E50000D9241505040D8F70895FB01DC010190EC
:101E60000D920020E1F7089510E0CDE5D0E004C028
:101E7000FE010E944F0E2196CE35D107C9F7F89486
:021E8000FFCF92
:101E8200000096038000180000000000000000001F
:101E9200E8FFE8FF0000000000001400000000005E
:101EA20000000000ECFFECFF00000000000000005A
:101EB2000000D30004068C001A01BD009B00AF0095
:101EC200060000000000AE03B003FAFFFAFF0000B4
:101ED200AF03B203180000000000CF03E603E8FFDF
:101EE200E8FF0000DC03F0035A010C011601640153
:101EF200000000004005AC03FA02F702F402F1020E
:101F0200EE02650261025E0248026802EC01EA0129
:101F1200020000000000FC03FE03FEFFFEFF0000C3
:101F2200FD03000400000000420548040000000018
:101F32004105FA03FA02F702F402F102EE02E202AA
:101F42009C0283026A0268025903380314000000EB
:101F520000001D043404ECFFECFF00002A043E04E0
:101F6200D20120012A01DC01564D4450565F317CDA
:101F7200315F564D4450560D0A00564D4450455F50
:0E1F8200003A323A007C005F564D4450450054
:00000001FF
