:100000000C9459000C9481000C9481000C94810094
:100010000C9481000C9481000C9481000C9481005C
:100020000C9481000C9481000C9481000C94BF040A
:100030000C9481000C9481000C9481000C9481003C
:100040000C9472040C9481000C9434040C940E04EF
:100050000C9481000C9481000C9481000C9481001C
:100060000C9481000C948100000000002500280001
:100070002B00040404040404040402020202020229
:10008000030303030303010204081020408001025C
:1000900004081020010204081020000000080002DB
:1000A0000100000304070000000000000000E10858
:1000B000D90811241FBECFEFD8E0DEBFCDBF12E0BC
:1000C000A0E0B1E0E4E1F7E102C005900D92AE30AE
:1000D000B107D9F723E0AEE0B2E001C01D92A63926
:1000E000B207E1F710E0C8E5D0E004C02197FE01B7
:1000F0000E94720BC735D107C9F70E9461060C94A4
:100100007D0B0C940000089580E090E00895FC01C0
:10011000538D448D252F30E0842F90E0821B930B6C
:10012000541710F0CF96089501970895FC01918D12
:10013000828D981761F0828DDF01A80FB11D5D9649
:100140008C91928D9F5F9F73928F90E008958FEFB7
:100150009FEF0895FC01918D828D981731F0828D6B
:10016000E80FF11D858D90E008958FEF9FEF0895C2
:10017000FC01918D228D892F90E0805C9F4F821B26
:1001800091098F739927089585EC92E00E94B80039
:1001900021E0892B09F420E0822F0895FC01848D51
:1001A000DF01A80FB11DA35ABF4F2C91848D90E0A1
:1001B00001968F739927848FA689B7892C93A0897C
:1001C000B1898C9180648C93938D848D981306C033
:1001D0000288F389E02D80818F7D80830895EF92DE
:1001E000FF920F931F93CF93DF93EC0181E0888FF1
:1001F0009B8D8C8D981305C0E889F989808185FDD8
:1002000024C0F62E0B8D10E00F5F1F4F0F731127C8
:10021000E02E8C8DE8120CC00FB607FCFACFE889EF
:10022000F989808185FFF5CFCE010E94CE00F1CF04
:100230008B8DFE01E80FF11DE35AFF4FF0820B8F0B
:10024000EA89FB898081806207C0EE89FF8960832B
:10025000E889F98980818064808381E090E0DF9182
:10026000CF911F910F91FF90EF900895CF93DF935F
:10027000EC01888D8823C9F0EA89FB89808185FD9E
:1002800005C0A889B9898C9186FD0FC00FB607FCFF
:10029000F5CF808185FFF2CFA889B9898C9185FF40
:1002A000EDCFCE010E94CE00E7CFDF91CF91089530
:1002B00080E090E0892B29F00E94C40081110C9409
:1002C0000000089590E0FC01E656FF4F3491FC01D8
:1002D000EA57FF4F2491FC01EE58FF4FE491EE23C3
:1002E00009F43BC0332339F1333091F038F4313025
:1002F000A9F0323001F584B58F7D12C0373091F00E
:100300003830A1F03430B9F4809180008F7D03C083
:10031000809180008F77809380000DC084B58F77A7
:1003200084BD09C08091B0008F7703C08091B00078
:100330008F7D8093B000F0E0EE0FFF1FE859FF4F74
:10034000A591B4918FB7F894EC91611103C02095F9
:100350002E2301C02E2B2C938FBF0895CB0108951F
:100360007F928F929F92AF92BF92CF92DF92EF9245
:10037000FF920F931F93CF93DF93EC0149015A0132
:100380008B01C12CD12C7601C814D904EA04FB04DA
:1003900084F5F80171908F018F8580FF0BC0E88193
:1003A000F9810084F185E02D20E144E060E070E017
:1003B000CE010995EB85FC858D859E85E817F907AB
:1003C00038F470828B859C8501969C878B870BC047
:1003D000E881F981672D70E0028CF38DE02DCE016C
:1003E0000995019649F02FEFC21AD20AE20AF20AE1
:1003F000CBCFB401C50102C0B601C701DF91CF91D7
:100400001F910F91FF90EF90DF90CF90BF90AF9032
:100410009F908F907F900895CF93DF93EC01E881B8
:10042000F9810288F389E02D09958F3F2FEF92071C
:1004300031F02D813E812F5F3F4F3E832D83DF9131
:10044000CF9108958FEF9FEF089560E070E0CB01AA
:10045000089580E090E00895CB010895CF93DF9355
:10046000EC0188899989DC01ED91FC910084F1858A
:10047000E02D0995892BA9F388899989DC01ED91F3
:10048000FC910284F385E02DDF91CF910994CF9305
:10049000DF93EC0188899989DC01ED91FC9100845E
:1004A000F185E02D0995892BA9F388899989DC01CB
:1004B000ED91FC910484F585E02DDF91CF910994B5
:1004C000AF92BF92CF92DF92EF92FF920F931F9362
:1004D000CF93DF9300D000D0CDB7DEB78C015B01A6
:1004E000C12CD12C7601F80180899189DC01ED9134
:1004F000FC910284F385E02D29833A834B835C834E
:10050000099529813A814B815C818F3F71F0C21638
:10051000D306E406F5064CF4D5018D935D01BFEFDB
:10052000CB1ADB0AEB0AFB0ADECFC701B6010F903C
:100530000F900F900F90DF91CF911F910F91FF902F
:10054000EF90DF90CF90BF90AF900895DC01509670
:100550008D919C915197DC01ED91FC910084F18586
:10056000E02D099480E090E0089580E090E0089507
:1005700080E090E0089580E090E008950895CF93A2
:10058000DF93C0919502D0919602E881F9810084B1
:10059000F185E02DCE010995892BB9F3E881F98128
:1005A0000284F385E02DCE01DF91CF9109941F9352
:1005B000CF93DF93182FC0919502D09196028A3085
:1005C00041F4E881F9810190F081E02D6DE0CE01E8
:1005D0000995E881F9810190F081E02D612FCE012C
:1005E000099521E030E0019711F420E030E0C901E5
:1005F000DF91CF911F9108950C94B10A0895089549
:100600000C94B10ADC01ED91FC9136972081318187
:10061000820F931F0C940003FB0120813181FC01A8
:1006200031832083FB0142815381F9013697208178
:100630003181FC01E20FF31F5183408308952AE5C5
:1006400031E0FC013183208324E631E0318F208FBB
:100650006AE671E00C940C03DC01ED91FC91369795
:1006600020813181820F931F0C941F03CF93DF935E
:10067000EC010E941F03CE01DF91CF910C94B10ACF
:10068000DC01ED91FC91369720813181820F931F1F
:100690000C9436030C94B10A089508950C94B10A91
:1006A000DC01ED91FC91369720813181820F931FFF
:1006B0000C944E03FB0120813181FC0131832083A6
:1006C000FB0142815381F901369720813181FC0180
:1006D000E20FF31F51834083089522ED31E0FC01C6
:1006E000318320832CED31E0358B248B62EE71E079
:1006F0000C945A03DC01ED91FC91369720813181F5
:10070000820F931F0C946D03CF93DF93EC010E9433
:100710006D03CE01DF91CF910C94B10ADC01ED9114
:10072000FC91369720813181820F931F0C948403B2
:100730000C94B10A0F931F93CF93DF938C01EB01BD
:100740006F3F8FEF780719F480E090E00FC06A30B8
:1007500031F46DE0F801808991890E94FC056C2FCD
:10076000F801808991890E94FC05CE01DF91CF912B
:100770001F910F9108958F929F92BF92CF92DF9217
:10078000EF92FF920F931F93CF93DF9300D000D08F
:10079000CDB7DEB78C014B01C12CD12C7601C2162E
:1007A000D306E406F50644F5F401B1904F01FAE0F2
:1007B000BF120EC06DE0F8018089918929833A83C8
:1007C0004B835C830E94FC055C814B813A812981CB
:1007D0006B2DF8018089918929833A834B835C834F
:1007E0000E94FC05FFEFCF1ADF0AEF0AFF0A5C81C7
:1007F0004B813A812981D3CFCA01B9010F900F9063
:100800000F900F90DF91CF911F910F91FF90EF907C
:10081000DF90CF90BF909F908F9008951F920F927E
:100820000FB60F9211242F933F934F935F936F93C3
:100830007F938F939F93AF93BF93EF93FF9385EC39
:1008400092E00E94CE00FF91EF91BF91AF919F91F6
:100850008F917F916F915F914F913F912F910F9069
:100860000FBE0F901F9018951F920F920FB60F9208
:1008700011242F938F939F93EF93FF93E091D502D1
:10088000F091D6028081E091DB02F091DC0282FDE2
:1008900012C090818091DE028F5F8F732091DF0202
:1008A000821751F0E091DE02F0E0EB53FD4F958F9F
:1008B0008093DE0201C08081FF91EF919F918F9123
:1008C0002F910F900FBE0F901F9018952FB7F8948F
:1008D0006091140270911502809116029091170296
:1008E0002FBF08951F920F920FB60F9211242F93CE
:1008F0003F938F939F93AF93BF93809114029091F6
:100900001502A0911602B09117023091130223E054
:10091000230F2D3720F40196A11DB11D05C026E837
:10092000230F0296A11DB11D209313028093140280
:1009300090931502A0931602B093170280910F02B4
:1009400090911002A0911102B09112020196A11D86
:10095000B11D80930F0290931002A0931102B093E7
:100960001202BF91AF919F918F913F912F910F9064
:100970000FBE0F901F9018950895089508951F9227
:100980000F920FB60F9211242F933F934F935F93C3
:100990006F937F938F939F93AF93BF93EF93FF9347
:1009A00080910E0287FF05C010928500109284008E
:1009B0001BC020910E02022E000C330B80913C02D2
:1009C00090E02817390784F480910E02082E000C5D
:1009D000990BFC01EE0FFF1F8E0F9F1FFC01E85EBD
:1009E000FD4F808186FD15C080910E028F5F809340
:1009F0000E0220910E02022E000C330B80913C025D
:100A000090E028173907C4F480910E028C3064F10D
:100A100013C080910E02082E000C990BFC01EE0F02
:100A2000FF1F8E0F9F1FFC01E85EFD4F808160E07D
:100A30008F730E946201D8CF8091840090918500CD
:100A4000049680349C4918F480E49CE905C08091A8
:100A5000840090918500049690938900809388008B
:100A60008FEF80930E023BC020918400309185006F
:100A700080910E02082E000C990BFC01EE0FFF1F57
:100A80008E0F9F1FFC01E85EFD4F81819281820FD6
:100A9000931F909389008093880080910E02082E06
:100AA000000C990BFC01EE0FFF1F8E0F9F1FFC0126
:100AB000E85EFD4F808186FF12C080910E02082EF5
:100AC000000C990BFC01EE0FFF1F8E0F9F1FFC0106
:100AD000E85EFD4F808161E08F730E946201FF91AB
:100AE000EF91BF91AF919F918F917F916F915F91A6
:100AF0004F913F912F910F900FBE0F901F9018951F
:100B0000CF92DF92EF92FF920F931F93CF93DF93D9
:100B10006C017A018B01C0E0D0E0CE15DF0589F0D1
:100B2000D8016D918D01D601ED91FC910190F0817C
:100B3000E02DC6010995892B11F47E0102C0219692
:100B4000ECCFC701DF91CF911F910F91FF90EF90F4
:100B5000DF90CF9008950E94780BE5ECF2E0A08939
:100B6000B18982E08C93A485B5851C92A685B78552
:100B70008FEC8C93108EA489B58986E08C93A28922
:100B8000B3898C9180618C93A289B3898C918860A0
:100B90008C93A289B3898C9180688C930288F389A5
:100BA000E02D80818F7D808308958F929F92AF92F8
:100BB000BF92CF92DF92EF92FF926B017C010E9475
:100BC00066044B015C01C60ED71EE81EF91E0E948A
:100BD0006604681579058A059B0528F0C616D706B0
:100BE000E806F906A0F7FF90EF90DF90CF90BF9056
:100BF000AF909F908F900895DC01ED91FC91019052
:100C0000F081E02D09946115710579F0FB010190E7
:100C10000020E9F73197AF01461B570BDC01ED913E
:100C2000FC910280F381E02D099480E090E008952A
:100C30004F925F926F927F92EF92FF920F931F936A
:100C4000CF93DF93CDB7DEB7A1970FB6F894DEBF91
:100C50000FBECDBF7C01FA01CB0119A2223008F4EE
:100C60002AE08E010F5D1F4F422E512C612C712CFA
:100C7000BF01A30192010E94500BF901CA0101506A
:100C800011096A3014F4605D01C0695CD8016C938D
:100C9000232B242B252B61F7B801C7010E940306E3
:100CA000A1960FB6F894DEBF0FBECDBFDF91CF91F6
:100CB0001F910F91FF90EF907F906F905F904F90FA
:100CC0000895789484B5826084BD84B5816084BDC4
:100CD00085B5826085BD85B5816085BD80916E00DA
:100CE000816080936E00109281008091810082600B
:100CF0008093810080918100816080938100809148
:100D000080008160809380008091B1008460809336
:100D1000B1008091B00081608093B00080917A0032
:100D2000846080937A0080917A00826080937A0058
:100D300080917A00816080937A0080917A00806847
:100D400080937A001092C100109291021092920248
:100D5000109293021092940210924F02109250023D
:100D6000109251021092520268EB7BE080E090E01A
:100D70000E94D50585EC92E09093900280938F02BB
:100D80000E94AD050E94660460934F02709350026A
:100D9000809351029093520268EE71E080918F022D
:100DA000909190020E9403066AE070E080E090E07B
:100DB0000E94D50581E0809363020E946604672B40
:100DC000682B692B41F40E9466046230710581052D
:100DD000910508F40EC10E9466046093410270936D
:100DE0004202809343029093440200913D0210918D
:100DF0003E0220913F023091400260177107820746
:100E0000930740F460933D0270933E0280933F024B
:100E10009093400200913D0210913E0220913F02CA
:100E2000309140026B017C01C01AD10AE20AF30A38
:100E3000970186010A3F11052105310508F4D9C043
:100E400060933D0270933E0280933F029093400274
:100E500084EF91E0A0E0B0E080935B0290935C02AD
:100E6000A0935D02B0935E0210925F021092600246
:100E7000109261021092620280915302909154028A
:100E8000A0915502B0915602809357029093580258
:100E9000A0935902B0935A020E94660460935302D1
:100EA0007093540280935502909356020E946604F8
:100EB00060934F02709350028093510290935202BC
:100EC0000E9466046B017C016AEF71E080918F02E1
:100ED000909190020E9403062AE041E050E060E019
:100EE00070E080918F02909190020E94180661E05C
:100EF00072E080918F02909190020E9403062AE096
:100F0000B701A60180918F02909190020E9418066D
:100F100063E072E080918F02909190020E9403063C
:100F20008091530290915402A0915502B0915602C3
:100F3000B701A601481B590B6A0B7B0B2AE0809175
:100F40008F02909190020E94180663E072E08091F7
:100F50008F02909190020E9403064091530250919B
:100F600054026091550270915602809157029091FF
:100F70005802A0915902B0915A02481B590B6A0BB2
:100F80007B0B2AE080918F02909190020E941806BC
:100F900065E072E080918F02909190020E940306BA
:100FA0000E946604AB01BC012AE080918F029091FF
:100FB00090020E941806C0918F02D091900267E0C3
:100FC00072E0CE010E94030667EF71E0CE010E943D
:100FD000030665E070E080E090E00E94D5050E9485
:100FE0006604609353027093540280935502909369
:100FF00056020E94AD0589E090E00E941C0AEC01B7
:1010000083E090E09983888388E090E09D838C83DF
:101010001F821E8280E190E00E941C0A9B838A83CB
:10102000C12CD12C55245A94B8EB6B2EBBE07B2EEF
:1010300088819981C816D9060CF074C085E090E0CB
:101040000E941C0A7C01FC011182108280913C02EA
:101050008C3088F491E0980F90933C02828390E06A
:10106000FC01EE0FFF1F8E0F9F1FFC01E85EFD4F7E
:101070007282618202C0F7015282AE80BF80850118
:101080000F5F1F4FA016B10608F043C02C813D81B1
:101090002017310750F5C50109962817390728F59B
:1010A0008A809B809D838C83880F991F0E941C0AD5
:1010B0009B838A83D40140E050E04A155B0591F0A0
:1010C000EA81FB819A01220F331FE20FF31F309751
:1010D00029F08D919C911197918380834F5F5F4F91
:1010E0001296EBCFC4010E94B10A8E819F819C01B0
:1010F000220F331F8017910778F4EA81FB81E20FFA
:10110000F31F309711F0F182E08201962E5F3F4F7E
:10111000F1CF0A151B0510F41F830E83FFEFCF1AC2
:10112000DF0A86CFD0934802C093470285EC92E055
:101130000E94B800029744F185EC92E00E9496006C
:10114000EC0190934C0280934B0285EC92E00E945C
:10115000960090934A0280934902E0914702F091F1
:10116000480220813181C217D3078CF46C2F85ECA3
:1011700092E00E94EF00E0914502F091460260810A
:1011800085EC92E00E94EF000E945801CFCF0280D0
:10119000F381E02D9E01220F331FE20FF31F019018
:1011A000F081E02DF0934602E09345029183808325
:1011B000DDCF87E992E00E941F0382E693E00C9462
:1011C0006D03CF93DF93A5ECB2E013961C921E92B1
:1011D000129748EE53E060E070E014964D935D93F3
:1011E0006D937C93179782E391E011969C938E9375
:1011F00085EC90E01D969C938E931C9784EC90E078
:101200001F969C938E931E9780EC90E051969C9332
:101210008E93509781EC90E053969C938E935297C7
:1012200082EC90E055969C938E93549786EC90E0D8
:1012300057969C938E93569759961C9259975A9607
:101240001C925A975B961C925B975C961C925C97DB
:10125000EDE4F2E01682178210861186128613865C
:101260001486158616861786108A118A128A138AA2
:10127000148A158AE2E6F3E0C1E2D0E0D08FC78B92
:10128000118E128E138E46E050E060E070E0448FC5
:10129000558F668F778F10A211A212A213A220E29F
:1012A00024A316A215A211A684E693E090A787A313
:1012B00082ED91E0918380838CED91E0958B848B1E
:1012C000168215821086178212861186148613865E
:1012D00016861586108A178680EB91E093838283A9
:1012E000B38BA28B30E1318BE7E9F2E0D48FC38F6F
:1012F000158E168E178E40A351A362A373A314A25A
:1013000015A216A217A220A712A611A615A6128230
:101310001382148215822DE932E034A723A72AE52F
:1013200031E03183208324E631E0318F208F128633
:1013300011861486138616861586108A1786128AD9
:10134000118A148A138A97838683B78BA68B88E0C9
:10135000858BB0939602A09395026FEB72E087EDB8
:1013600092E0DF91CF910C94B5090F931F93CF9327
:10137000DF93009731F46115710519F480E090E076
:101380003AC08B01EC016EE070E081E090E00E94D9
:10139000000AFC01892B91F380E883830115110574
:1013A00071F01387028781E8838380918C03909189
:1013B0008D03892B21F4F0938D03E0938C03209708
:1013C000C9F0D187C08783818260838380918E0337
:1013D00090918F03892B71F4F0938F03E0938E0328
:1013E0008091900390919103892B21F4F0939103C4
:1013F000E0939003CF01DF91CF911F910F9108955A
:101400000F931F93CF93DF93869F8001879F100DCB
:10141000969F100D1124C8010E941C0AEC01009730
:1014200029F0A80160E070E00E94490BCE01DF9135
:10143000CF911F910F910895CF93DF938230910543
:1014400010F482E090E0E0919403F091950320E0A5
:1014500030E0C0E0D0E0309711F140815181481771
:101460005907C0F04817590761F48281938120978A
:1014700019F09B838A832BC09093950380939403E8
:1014800026C02115310519F04217530718F49A01A7
:10149000BE01DF01EF010280F381E02DDCCF2115D9
:1014A000310509F1281B390B2430310590F41296CF
:1014B0008D919C9113976115710521F0FB01938328
:1014C000828304C09093950380939403FD01329628
:1014D00044C0FD01E20FF31F819391932250310923
:1014E0002D933C933AC02091920330919303232B88
:1014F00041F4209102013091030130939303209332
:10150000920320910001309101012115310541F430
:101510002DB73EB74091040150910501241B350BB6
:10152000E0919203F0919303E217F307A0F42E1BCE
:101530003F0B2817390778F0AC014E5F5F4F241737
:10154000350748F04E0F5F1F50939303409392036B
:101550008193919302C0E0E0F0E0CF01DF91CF9161
:1015600008950F931F93CF93DF93009709F48CC0D6
:10157000FC0132971382128200919403109195031B
:101580000115110581F420813181820F931F209173
:101590009203309193032817390779F5F093930359
:1015A000E093920371C0D80140E050E0AE17BF074E
:1015B00050F412962D913C911397AD0121153105F0
:1015C00009F1D901F3CF9D01DA01338322836081D0
:1015D0007181860F971F8217930769F4EC012881A8
:1015E0003981260F371F2E5F3F4F318320838A8139
:1015F0009B8193838283452B29F4F0939503E09399
:10160000940342C01396FC93EE931297ED01499117
:1016100059919E01240F351FE217F30771F4808161
:101620009181840F951F029611969C938E938281CF
:10163000938113969C938E931297E0E0F0E0D8018B
:1016400012968D919C911397009719F0F8018C01D7
:10165000F6CF8D919C9198012E5F3F4F820F931F83
:1016600020919203309193032817390769F430973A
:1016700029F4109295031092940302C013821282EF
:101680001093930300939203DF91CF911F910F91D9
:101690000895DC0101C06D9341505040E0F708957A
:1016A000A1E21A2EAA1BBB1BFD010DC0AA1FBB1F66
:1016B000EE1FFF1FA217B307E407F50720F0A21BD8
:1016C000B30BE40BF50B661F771F881F991F1A9445
:1016D00069F760957095809590959B01AC01BD016F
:1016E000CF010895EE0FFF1F0590F491E02D0994AE
:1016F00081E090E0F8940C947D0B10E0C8E5D0E018
:1017000004C0FE010E94720B2196C935D107C9F7AA
:04171000F894FFCF7B
:101714000000960380001800000000000000000094
:10172400E8FFE8FF000000000000140000000000D3
:1017340000000000ECFFECFF0000000000000000CF
:101744000000EF00800587003601B8009600AA006B
:10175400060000000000FE020003FAFFFAFF00008A
:10176400FF0202031800000000001F033603E8FF15
:10177400E8FF00002C0340035A010C011601640128
:1017840000000000BC04FC02BE02BB02B802B502A9
:10179400B2022902250222020C022C02B001AE017F
:1017A4000200000000004C034E03FEFFFEFF000099
:1017B4004D03500300000000BE0498030000000025
:1017C400BD044A03BE02BB02B802B502B202A602BD
:1017D400600247022E022C02BB039A03140000008D
:1017E40000006D038403ECFFECFF00007A038E031A
:1017F400D20120012A01DC01564D4450565F317C50
:10180400315F564D4450560D0A00564D4450455FC5
:0E181400003A323A007C005F564D44504500C9
:107E0000112484B714BE81FFF0D085E080938100F7
:107E100082E08093C00088E18093C10086E0809377
:107E2000C20080E18093C4008EE0C9D0259A86E02C
:107E300020E33CEF91E0309385002093840096BBD3
:107E4000B09BFECF1D9AA8958150A9F7CC24DD24C4
:107E500088248394B5E0AB2EA1E19A2EF3E0BF2EE7
:107E6000A2D0813461F49FD0082FAFD0023811F036
:107E7000013811F484E001C083E08DD089C08234E0
:107E800011F484E103C0853419F485E0A6D080C0E4
:107E9000853579F488D0E82EFF2485D0082F10E0AE
:107EA000102F00270E291F29000F111F8ED06801E7
:107EB0006FC0863521F484E090D080E0DECF843638
:107EC00009F040C070D06FD0082F6DD080E0C81688
:107ED00080E7D80618F4F601B7BEE895C0E0D1E017
:107EE00062D089930C17E1F7F0E0CF16F0E7DF06D8
:107EF00018F0F601B7BEE89568D007B600FCFDCFD4
:107F0000A601A0E0B1E02C9130E011968C91119780
:107F100090E0982F8827822B932B1296FA010C0160
:107F200087BEE89511244E5F5F4FF1E0A038BF0790
:107F300051F7F601A7BEE89507B600FCFDCF97BE46
:107F4000E89526C08437B1F42ED02DD0F82E2BD052
:107F50003CD0F601EF2C8F010F5F1F4F84911BD097
:107F6000EA94F801C1F70894C11CD11CFA94CF0C13
:107F7000D11C0EC0853739F428D08EE10CD085E9AC
:107F80000AD08FE07ACF813511F488E018D01DD067
:107F900080E101D065CF982F8091C00085FFFCCF94
:107FA0009093C60008958091C00087FFFCCF809118
:107FB000C00084FD01C0A8958091C6000895E0E648
:107FC000F0E098E1908380830895EDDF803219F02E
:107FD00088E0F5DFFFCF84E1DECF1F93182FE3DFCA
:107FE0001150E9F7F2DF1F91089580E0E8DFEE27F6
:047FF000FF270994CA
:027FFE00040479
:0400000300007E007B
:00000001FF