:100000000C9459000C9481000C9481000C94810094
:100010000C9481000C9481000C9481000C9481005C
:100020000C9481000C9481000C9481000C94BF040A
:100030000C9481000C9481000C9481000C9481003C
:100040000C9472040C9481000C9434040C940E04EF
:100050000C9481000C9481000C9481000C9481001C
:100060000C9481000C948100000000002500280001
:100070002B00040404040404040402020202020229
:10008000030303030303010204081020408001025C
:1000900004081020010204081020000000080002DB
:1000A00001000003040700000000000000009509A3
:1000B0008D0911241FBECFEFD8E0DEBFCDBF12E007
:1000C000A0E0B1E0E6E1FBE102C005900D92AE30A8
:1000D000B107D9F723E0AEE0B2E001C01D92A2392A
:1000E000B207E1F710E0C8E5D0E004C02197FE01B7
:1000F0000E94990CC735D107C9F70E94C2060C941B
:100100007E0D0C940000089580E090E00895FC01BD
:10011000538D448D252F30E0842F90E0821B930B6C
:10012000541710F0CF96089501970895FC01918D12
:10013000828D981761F0828DDF01A80FB11D5D9649
:100140008C91928D9F5F9F73928F90E008958FEFB7
:100150009FEF0895FC01918D828D981731F0828D6B
:10016000E80FF11D858D90E008958FEF9FEF0895C2
:10017000FC01918D228D892F90E0805C9F4F821B26
:1001800091098F739927089581EC92E00E94B8003D
:1001900021E0892B09F420E0822F0895FC01848D51
:1001A000DF01A80FB11DA35ABF4F2C91848D90E0A1
:1001B00001968F739927848FA689B7892C93A0897C
:1001C000B1898C9180648C93938D848D981306C033
:1001D0000288F389E02D80818F7D80830895EF92DE
:1001E000FF920F931F93CF93DF93EC0181E0888FF1
:1001F0009B8D8C8D981305C0E889F989808185FDD8
:1002000024C0F62E0B8D10E00F5F1F4F0F731127C8
:10021000E02E8C8DE8120CC00FB607FCFACFE889EF
:10022000F989808185FFF5CFCE010E94CE00F1CF04
:100230008B8DFE01E80FF11DE35AFF4FF0820B8F0B
:10024000EA89FB898081806207C0EE89FF8960832B
:10025000E889F98980818064808381E090E0DF9182
:10026000CF911F910F91FF90EF900895CF93DF935F
:10027000EC01888D8823C9F0EA89FB89808185FD9E
:1002800005C0A889B9898C9186FD0FC00FB607FCFF
:10029000F5CF808185FFF2CFA889B9898C9185FF40
:1002A000EDCFCE010E94CE00E7CFDF91CF91089530
:1002B00080E090E0892B29F00E94C40081110C9409
:1002C0000000089590E0FC01E656FF4F3491FC01D8
:1002D000EA57FF4F2491FC01EE58FF4FE491EE23C3
:1002E00009F43BC0332339F1333091F038F4313025
:1002F000A9F0323001F584B58F7D12C0373091F00E
:100300003830A1F03430B9F4809180008F7D03C083
:10031000809180008F77809380000DC084B58F77A7
:1003200084BD09C08091B0008F7703C08091B00078
:100330008F7D8093B000F0E0EE0FFF1FE859FF4F74
:10034000A591B4918FB7F894EC91611103C02095F9
:100350002E2301C02E2B2C938FBF0895CB0108951F
:100360007F928F929F92AF92BF92CF92DF92EF9245
:10037000FF920F931F93CF93DF93EC0149015A0132
:100380008B01C12CD12C7601C814D904EA04FB04DA
:1003900084F5F80171908F018F8580FF0BC0E88193
:1003A000F9810084F185E02D20E144E060E070E017
:1003B000CE010995EB85FC858D859E85E817F907AB
:1003C00038F470828B859C8501969C878B870BC047
:1003D000E881F981672D70E0028CF38DE02DCE016C
:1003E0000995019649F02FEFC21AD20AE20AF20AE1
:1003F000CBCFB401C50102C0B601C701DF91CF91D7
:100400001F910F91FF90EF90DF90CF90BF90AF9032
:100410009F908F907F900895CF93DF93EC01E881B8
:10042000F9810288F389E02D09958F3F2FEF92071C
:1004300031F02D813E812F5F3F4F3E832D83DF9131
:10044000CF9108958FEF9FEF089560E070E0CB01AA
:10045000089580E090E00895CB010895CF93DF9355
:10046000EC0188899989DC01ED91FC910084F1858A
:10047000E02D0995892BA9F388899989DC01ED91F3
:10048000FC910284F385E02DDF91CF910994CF9305
:10049000DF93EC0188899989DC01ED91FC9100845E
:1004A000F185E02D0995892BA9F388899989DC01CB
:1004B000ED91FC910484F585E02DDF91CF910994B5
:1004C000AF92BF92CF92DF92EF92FF920F931F9362
:1004D000CF93DF9300D000D0CDB7DEB78C015B01A6
:1004E000C12CD12C7601F80180899189DC01ED9134
:1004F000FC910284F385E02D29833A834B835C834E
:10050000099529813A814B815C818F3F71F0C21638
:10051000D306E406F5064CF4D5018D935D01BFEFDB
:10052000CB1ADB0AEB0AFB0ADECFC701B6010F903C
:100530000F900F900F90DF91CF911F910F91FF902F
:10054000EF90DF90CF90BF90AF900895DC01509670
:100550008D919C915197DC01ED91FC910084F18586
:10056000E02D099480E090E0089580E090E0089507
:1005700080E090E0089580E090E008950895CF93A2
:10058000DF93C0919102D0919202E881F9810084B9
:10059000F185E02DCE010995892BB9F3E881F98128
:1005A0000284F385E02DCE01DF91CF9109941F9352
:1005B000CF93DF93182FC0919102D09192028A308D
:1005C00041F4E881F9810190F081E02D6DE0CE01E8
:1005D0000995E881F9810190F081E02D612FCE012C
:1005E000099521E030E0019711F420E030E0C901E5
:1005F000DF91CF911F9108950C94A10B0895089558
:100600000C94A10BDC01ED91FC9136972081318196
:10061000820F931F0C940003FB0120813181FC01A8
:1006200031832083FB0142815381F9013697208178
:100630003181FC01E20FF31F5183408308952AE5C5
:1006400031E0FC013183208324E631E0318F208FBB
:100650006AE671E00C940C03DC01ED91FC91369795
:1006600020813181820F931F0C941F03CF93DF935E
:10067000EC010E941F03CE01DF91CF910C94A10BDE
:10068000DC01ED91FC91369720813181820F931F1F
:100690000C9436030C94A10B089508950C94A10BAF
:1006A000DC01ED91FC91369720813181820F931FFF
:1006B0000C944E03FB0120813181FC0131832083A6
:1006C000FB0142815381F901369720813181FC0180
:1006D000E20FF31F51834083089522ED31E0FC01C6
:1006E000318320832CED31E0358B248B62EE71E079
:1006F0000C945A03DC01ED91FC91369720813181F5
:10070000820F931F0C946D03CF93DF93EC010E9433
:100710006D03CE01DF91CF910C94A10BDC01ED9123
:10072000FC91369720813181820F931F0C948403B2
:100730000C94A10B0F931F93CF93DF938C01EB01CC
:100740006F3F8FEF780719F480E090E00FC06A30B8
:1007500031F46DE0F801808991890E945D066C2F6B
:10076000F801808991890E945D06CE01DF91CF91C9
:100770001F910F9108958F929F92BF92CF92DF9217
:10078000EF92FF920F931F93CF93DF9300D000D08F
:10079000CDB7DEB78C014B01C12CD12C7601C2162E
:1007A000D306E406F50644F5F401B1904F01FAE0F2
:1007B000BF120EC06DE0F8018089918929833A83C8
:1007C0004B835C830E945D065C814B813A81298169
:1007D0006B2DF8018089918929833A834B835C834F
:1007E0000E945D06FFEFCF1ADF0AEF0AFF0A5C8165
:1007F0004B813A812981D3CFCA01B9010F900F9063
:100800000F900F90DF91CF911F910F91FF90EF907C
:10081000DF90CF90BF909F908F9008951F920F927E
:100820000FB60F9211242F933F934F935F936F93C3
:100830007F938F939F93AF93BF93EF93FF9381EC3D
:1008400092E00E94CE00FF91EF91BF91AF919F91F6
:100850008F917F916F915F914F913F912F910F9069
:100860000FBE0F901F9018951F920F920FB60F9208
:1008700011242F938F939F93EF93FF93E091D102D5
:10088000F091D2028081E091D702F091D80282FDEE
:1008900012C090818091DA028F5F8F732091DB020A
:1008A000821751F0E091DA02F0E0EF53FD4F958F9F
:1008B0008093DA0201C08081FF91EF919F918F9127
:1008C0002F910F900FBE0F901F9018952FB7F8948F
:1008D0006091140270911502809116029091170296
:1008E0002FBF08951F920F920FB60F9211242F93CE
:1008F0003F938F939F93AF93BF93809114029091F6
:100900001502A0911602B09117023091130223E054
:10091000230F2D3720F40196A11DB11D05C026E837
:10092000230F0296A11DB11D209313028093140280
:1009300090931502A0931602B093170280910F02B4
:1009400090911002A0911102B09112020196A11D86
:10095000B11D80930F0290931002A0931102B093E7
:100960001202BF91AF919F918F913F912F910F9064
:100970000FBE0F901F9018950895089508951F9227
:100980000F920FB60F9211242F933F934F935F93C3
:100990006F937F938F939F93AF93BF93EF93FF9347
:1009A00080910E0287FF05C010928500109284008E
:1009B0001BC020910E02022E000C330B80913C02D2
:1009C00090E02817390784F480910E02082E000C5D
:1009D000990BFC01EE0FFF1F8E0F9F1FFC01E85EBD
:1009E000FD4F808186FD15C080910E028F5F809340
:1009F0000E0220910E02022E000C330B80913C025D
:100A000090E028173907C4F480910E028C3064F10D
:100A100013C080910E02082E000C990BFC01EE0F02
:100A2000FF1F8E0F9F1FFC01E85EFD4F808160E07D
:100A30008F730E946201D8CF8091840090918500CD
:100A4000049680349C4918F480E49CE905C08091A8
:100A5000840090918500049690938900809388008B
:100A60008FEF80930E023BC020918400309185006F
:100A700080910E02082E000C990BFC01EE0FFF1F57
:100A80008E0F9F1FFC01E85EFD4F81819281820FD6
:100A9000931F909389008093880080910E02082E06
:100AA000000C990BFC01EE0FFF1F8E0F9F1FFC0126
:100AB000E85EFD4F808186FF12C080910E02082EF5
:100AC000000C990BFC01EE0FFF1F8E0F9F1FFC0106
:100AD000E85EFD4F808161E08F730E946201FF91AB
:100AE000EF91BF91AF919F918F917F916F915F91A6
:100AF0004F913F912F910F900FBE0F901F9018951F
:100B0000CF92DF92EF92FF920F931F93CF93DF93D9
:100B10006C017A018B01C0E0D0E0CE15DF0589F0D1
:100B2000D8016D918D01D601ED91FC910190F0817C
:100B3000E02DC6010995892B11F47E0102C0219692
:100B4000ECCFC701DF91CF911F910F91FF90EF90F4
:100B5000DF90CF9008950E94690DE1ECF2E0A0894A
:100B6000B18982E08C93A485B5851C92A685B78552
:100B70008FEC8C93108EA489B58986E08C93A28922
:100B8000B3898C9180618C93A289B3898C918860A0
:100B90008C93A289B3898C9180688C930288F389A5
:100BA000E02D80818F7D808308958F929F92AF92F8
:100BB000BF92CF92DF92EF92FF926B017C010E9475
:100BC00066044B015C01C60ED71EE81EF91E0E948A
:100BD0006604681579058A059B0528F0C616D706B0
:100BE000E806F906A0F7FF90EF90DF90CF90BF9056
:100BF000AF909F908F9008950F931F930E9466046B
:100C00006093C9027093CA028093CB029093CC0286
:100C1000E091C102F091C2020284F385E02D81ECE3
:100C200092E0099597FF1FC00E9466040091C902D7
:100C30001091CA022091CB023091CC02DC01CB0191
:100C4000801B910BA20BB30B0091C5021091C60241
:100C50002091C7023091C80280179107A207B307FD
:100C6000B8F28FEF9FEF1F910F9108950F931F938D
:100C7000CF93DF93EC0188819981009729F02A8135
:100C80003B812617370788F48B016F5F7F4F0E94E7
:100C90009F0C009761F0998388831B830A832C81C2
:100CA0003D81232B11F4FC01108281E001C080E022
:100CB000DF91CF911F910F910895DC01ED91FC918F
:100CC0000190F081E02D09946115710579F0FB0127
:100CD00001900020E9F73197AF01461B570BDC016B
:100CE000ED91FC910280F381E02D099480E090E089
:100CF00008954F925F926F927F92EF92FF920F93BF
:100D00001F93CF93DF93CDB7DEB7A1970FB6F894BB
:100D1000DEBF0FBECDBF7C01FA01CB0119A222308C
:100D200008F42AE08E010F5D1F4F422E512C612CDA
:100D3000712CBF01A30192010E94400CF901CA016C
:100D4000015011096A3014F4605D01C0695CD8017A
:100D50006C93232B242B252B61F7B801C7010E942C
:100D60006406A1960FB6F894DEBF0FBECDBFDF912B
:100D7000CF911F910F91FF90EF907F906F905F90B8
:100D80004F900895CF93DF93CDB7DEB728970FB676
:100D9000F894DEBF0FBECDBF789484B5826084BD69
:100DA00084B5816084BD85B5826085BD85B581606F
:100DB00085BD80916E00816080936E0010928100ED
:100DC00080918100826080938100809181008160A8
:100DD0008093810080918000816080938000809169
:100DE000B10084608093B1008091B00081608093F5
:100DF000B00080917A00846080937A0080917A00BC
:100E0000826080937A0080917A00816080937A007A
:100E100080917A00806880937A001092C1001092CD
:100E20008D0210928E0210928F02109290021092F8
:100E30004B0210924C0210924D0210924E0268EB3F
:100E40007BE080E090E00E94D50581EC92E09093F9
:100E50008C0280938B020E94AD050E946604609311
:100E60004B0270934C0280934D0290934E0268EEB9
:100E700071E080918B0290918C020E9464066AE07E
:100E800070E080E090E00E94D50581E080935F02F1
:100E90000E94AD0589E090E00E940C0B8C0183E07C
:100EA00090E0D80111969C938E9388E090E015967F
:100EB0009C938E93149717961C921E92169780E11E
:100EC00090E00E940C0BF80193838283A12CB12C3B
:100ED00033243A94B8EB4B2EBBE05B2EF8018081B3
:100EE0009181A816B9060CF08DC085E090E00E94B3
:100EF0000C0B6C01DC0111961C921E9280913C023D
:100F00008C3090F491E0980F90933C0212968C9361
:100F100090E0FC01EE0FFF1F8E0F9F1FFC01E85EAB
:100F2000FD4F5282418202C0F6013282D8011696EC
:100F30008D909C9017977401BFEFEB1AFB0A8E14EB
:100F40009F0408F053C0F801248135812E153F0518
:100F500078F5C40109962817390750F56280738027
:100F600095838483880F991F0E940C0BD8011396D8
:100F70009C938E931297D30140E050E04815590599
:100F8000A1F0F801828193819A01220F331FFC01A5
:100F9000E20FF31F309729F08D919C911197918367
:100FA00080834F5F5F4F1296E9CFC3010E94A10B70
:100FB000D80116968D919C9117979C01220F331F93
:100FC0008E159F0578F4D8011296ED91FC91139738
:100FD000E20FF31F309711F0D182C08201962E5F8D
:100FE0003F4FEECFF801F782E68208C0E814F9041B
:100FF00028F4D8011796FC92EE921697BFEFAB1A21
:10100000BB0A6CCF10933E0200933D0284EFC82EC2
:10101000DD24D394E12CF12C0E946604672B682B0D
:10102000692B41F40E9466046230710581059105C7
:1010300008F40AC10E946604609345027093460258
:10104000809347029093480200914102109142021E
:101050002091430230914402601771078207930781
:1010600040F4609341027093420280934302909354
:1010700044020091410210914202209143023091BA
:1010800044024B015C01801A910AA20AB30A95013D
:1010900084010A3F11052105310508F4D5C060938C
:1010A0004102709342028093430290934402C092A3
:1010B0005702D0925802E0925902F0925A021092CE
:1010C0005B0210925C0210925D0210925E028091AF
:1010D0004F0290915002A0915102B0915202809320
:1010E000530290935402A0935502B09356020E946B
:1010F000660460934F027093500280935102909364
:1011000052020E94660460934B0270934C028093DB
:101110004D0290934E020E9466044B015C016AEFFF
:1011200071E080918B0290918C020E9464062AE00B
:1011300041E050E060E070E080918B0290918C0281
:101140000E94790661E072E080918B0290918C029E
:101150000E9464062AE0B501A40180918B0290915F
:101160008C020E94790663E072E080918B0290917C
:101170008C020E94640680914F0290915002A091CF
:101180005102B0915202B501A401481B590B6A0BE0
:101190007B0B2AE080918B0290918C020E94790651
:1011A00063E072E080918B0290918C020E94640651
:1011B00040914F0250915002609151027091520241
:1011C0008091530290915402A0915502B091560221
:1011D000481B590B6A0B7B0B2AE080918B02909184
:1011E0008C020E94790665E072E080918B029091FA
:1011F0008C020E9464060E946604AB01BC012AE0D6
:1012000080918B0290918C020E94790600918B0252
:1012100010918C0267E072E0C8010E94640667EFDB
:1012200071E0C8010E94640665E070E080E090E033
:101230000E94D5050E94660460934F02709350028D
:10124000809351029093520281EC92E00E94B80088
:10125000181619060CF05EC01A8219821C821B82B5
:101260001E821D8260E070E0CE0101960E9436066B
:1012700029813A8181110DC02115310519F0C9016B
:101280000E94A10B1A8219821E821D821C821B825F
:1012900025C01E821D8269EF71E0C9010E94770D91
:1012A0001DC085339105F1F08F8318860D811E8155
:1012B0000F5F1F4FB801CE0101960E9436068823AA
:1012C00069F029813A818D819E81BE01695F7F4FDE
:1012D000820F931F0E94770D1E830D830E94FC05D1
:1012E00097FFDFCFA980BA80A114B10421F0C50116
:1012F0000E94690A02C060E070E0162F60933F020E
:1013000070934002C5010E94A10B612F81EC92E015
:101310000E94EF000E9458017FCE83E992E00E9474
:101320001F038EE593E00C946D03CF93DF93A1EC44
:10133000B2E013961C921E92129748EE53E060E0C2
:1013400070E014964D935D936D937C93179782E3B1
:1013500091E011969C938E9385EC90E01D969C9362
:101360008E931C9784EC90E01F969C938E931E970F
:1013700080EC90E051969C938E93509781EC90E096
:1013800053969C938E93529782EC90E055969C9343
:101390008E93549786EC90E057969C938E93569735
:1013A00059961C9259975A961C925A975B961C9282
:1013B0005B975C961C925C97E9E4F2E016821782D8
:1013C0001086118612861386148615861686178651
:1013D000108A118A128A138A148A158AEEE5F3E0BC
:1013E000C1E2D0E0D08FC78B118E128E138E46E0F3
:1013F00050E060E070E0448F558F668F778F10A2C9
:1014000011A212A213A220E224A316A215A211A6D1
:1014100080E693E090A787A382ED91E0918380839B
:101420008CED91E0958B848B168215821086178245
:10143000128611861486138616861586108A1786DC
:1014400080EB91E093838283B38BA28B30E1318B6D
:10145000E3E9F2E0D48FC38F158E168E178E40A36A
:1014600051A362A373A314A215A216A217A220A7C8
:1014700012A611A615A6128213821482158229E9DA
:1014800032E034A723A72AE531E03183208324E624
:1014900031E0318F208F12861186148613861686CE
:1014A0001586108A1786128A118A148A138A9783DE
:1014B0008683B78BA68B88E0858BB0939202A0932E
:1014C00091026FEB72E087ED92E0DF91CF910C9487
:1014D000A50A1F93FC0199278827BC01E894119164
:1014E0001032E9F3193010F01E30C8F31B3251F0FE
:1014F0001D3249F4689406C00E94900A610F711D64
:10150000811D911D119110531A30B0F33EF4909546
:101510008095709561957F4F8F4F9F4F1F910895D4
:10152000592F482F372F262F660F771F881F991F97
:10153000660F771F881F991F620F731F841F951FE7
:10154000660F771F881F991F08950F931F93CF93DE
:10155000DF93009731F46115710519F480E090E094
:101560003AC08B01EC016EE070E081E090E00E94F7
:10157000F00AFC01892B91F380E8838301151105A2
:1015800071F01387028781E88383809188039091AB
:101590008903892B21F4F0938903E0938803209732
:1015A000C9F0D187C08783818260838380918A0359
:1015B00090918B03892B71F4F0938B03E0938A0352
:1015C00080918C0390918D03892B21F4F0938D03EE
:1015D000E0938C03CF01DF91CF911F910F9108957C
:1015E0000F931F93CF93DF93869F8001879F100DEA
:1015F000969F100D1124C8010E940C0BEC0100975E
:1016000029F0A80160E070E00E94390CCE01DF9162
:10161000CF911F910F910895CF93DF938230910561
:1016200010F482E090E0E0919003F091910320E0CB
:1016300030E0C0E0D0E0309711F14081518148178F
:101640005907C0F04817590761F4828193812097A8
:1016500019F09B838A832BC090939103809390030E
:1016600026C02115310519F04217530718F49A01C5
:10167000BE01DF01EF010280F381E02DDCCF2115F7
:10168000310509F1281B390B2430310590F41296ED
:101690008D919C9113976115710521F0FB01938346
:1016A000828304C09093910380939003FD0132964E
:1016B00044C0FD01E20FF31F819391932250310941
:1016C0002D933C933AC020918E0330918F03232BAE
:1016D00041F4209102013091030130938F03209354
:1016E0008E0320910001309101012115310541F453
:1016F0002DB73EB74091040150910501241B350BD5
:10170000E0918E03F0918F03E217F307A0F42E1BF4
:101710003F0B2817390778F0AC014E5F5F4F241755
:10172000350748F04E0F5F1F50938F0340938E0391
:101730008193919302C0E0E0F0E0CF01DF91CF917F
:1017400008950F931F93CF93DF93009709F48CC0F4
:10175000FC01329713821282009190031091910341
:101760000115110581F420813181820F931F209191
:101770008E0330918F032817390779F5F0938F0383
:10178000E0938E0371C0D80140E050E0AE17BF0770
:1017900050F412962D913C911397AD01211531050E
:1017A00009F1D901F3CF9D01DA01338322836081EE
:1017B0007181860F971F8217930769F4EC012881C6
:1017C0003981260F371F2E5F3F4F318320838A8157
:1017D0009B8193838283452B29F4F0939103E093BB
:1017E000900342C01396FC93EE931297ED0149913A
:1017F00059919E01240F351FE217F30771F4808180
:101800009181840F951F029611969C938E938281ED
:10181000938113969C938E931297E0E0F0E0D801A9
:1018200012968D919C911397009719F0F8018C01F5
:10183000F6CF8D919C9198012E5F3F4F820F931FA1
:1018400020918E0330918F032817390769F4309760
:1018500029F4109291031092900302C01382128215
:1018600010938F0300938E03DF91CF911F910F91FF
:101870000895DC0101C06D9341505040E0F7089598
:10188000A1E21A2EAA1BBB1BFD010DC0AA1FBB1F84
:10189000EE1FFF1FA217B307E407F50720F0A21BF6
:1018A000B30BE40BF50B661F771F881F991F1A9463
:1018B00069F760957095809590959B01AC01BD018D
:1018C000CF0108952F923F924F925F926F927F9235
:1018D0008F929F92AF92BF92CF92DF92EF92FF9240
:1018E0000F931F93CF93DF93CDB7DEB7CA1BDB0BEC
:1018F0000FB6F894DEBF0FBECDBF09942A88398891
:1019000048885F846E847D848C849B84AA84B98497
:10191000C884DF80EE80FD800C811B81AA81B981A3
:10192000CE0FD11D0FB6F894DEBF0FBECDBFED01B7
:101930000895EE0FFF1F0590F491E02D0994A0E0AB
:10194000B0E0E5EAFCE00C94660CEC01009721F4B1
:10195000CB010E940C0BB8C0FC01E60FF71F9C01E5
:1019600022503109E217F30708F4ACC0D9010D91F8
:101970001C91119706171707B0F00530110508F4F0
:101980009FC0C80104978617970708F499C00250B2
:101990001109061B170B019311936D937C93CF01D3
:1019A0000E94A10B8DC05B01A01AB10A4C01800EF0
:1019B000911EA0919003B091910340E050E0E12C82
:1019C000F12C109709F44AC0A815B905D1F56D900E
:1019D0007C901197630182E0C80ED11CCA14DB040D
:1019E00080F1A3014A195B096A0182E0C80ED11C8B
:1019F0001296BC9012971396AC91B5E0CB16D10419
:101A000040F0B282A38351834083D9016D937C93CC
:101A10000AC00E5F1F4FC301800F911FF901918310
:101A20008083EB2DFA2FE114F10431F0D7011396E6
:101A3000FC93EE93129744C0F0939103E0939003CC
:101A40003FC08D919C9111974817590708F4AC013C
:101A50007D0112960D90BC91A02DB3CF80918E0385
:101A600090918F0388159905E1F446175707C8F43C
:101A70008091000190910101009741F48DB79EB7CC
:101A80004091040150910501841B950BE817F9075B
:101A9000C8F4F0938F03E0938E03F90171836083A0
:101AA0000FC0CB010E940C0B7C01009759F0A801DC
:101AB000BE010E946E0DCE010E94A10BC70104C0A1
:101AC000CE0102C080E090E0CDB7DEB7EEE00C942E
:101AD000820C81E090E0F8940C947E0DFB01DC0117
:101AE00002C001900D9241505040D8F70895FB017B
:101AF000DC0101900D920020E1F7089510E0C8E5A7
:101B0000D0E004C0FE010E94990C2196C935D1078E
:061B1000C9F7F894FFCFB5
:101B16000000920380001800000000000000000092
:101B2600E8FFE8FF000000000000140000000000CD
:101B360000000000ECFFECFF0000000000000000C9
:101B46000000EF00800587003601B8009600AA0065
:101B5600060000000000FE020003FAFFFAFF000084
:101B6600FF0202031800000000001F033603E8FF0F
:101B7600E8FF00002C0340035A010C011601640122
:101B860000000000BC04FC02BE02BB02B802B502A3
:101B9600B2022902250222020C022C02B001AE0179
:101BA6000200000000004C034E03FEFFFEFF000093
:101BB6004D03500300000000BE049803000000001F
:101BC600BD044A03BE02BB02B802B502B202A602B7
:101BD600600247022E022C02BB039A031400000087
:101BE60000006D038403ECFFECFF00007A038E0314
:101BF600D20120012A01DC01564D4450565F317C4A
:101C0600315F564D4450560D0A00564D4450455FBF
:0E1C1600003A323A007C005F564D44504500C3
:00000001FF
