:100000000C9459000C9481000C9481000C94810094
:100010000C9481000C9481000C9481000C9481005C
:100020000C9481000C9481000C9481000C94A00528
:100030000C9481000C9481000C9481000C9481003C
:100040000C9456050C9481000C9424050C94FE0429
:100050000C9481000C9481000C9481000C9481001C
:100060000C9481000C948100000000002500280001
:100070002B00040404040404040402020202020229
:10008000030303030303010204081020408001025C
:1000900004081020010204081020000000080002DB
:1000A0000100000304070000000000000000040637
:1000B0008C0811241FBECFEFD8E0DEBFCDBF11E00A
:1000C000A0E0B1E0E2EDF4E102C005900D92AE3B9C
:1000D000B107D9F723E0AEEBB1E001C01D92AF3319
:1000E000B207E1F710E0C8E5D0E004C02197FE01B7
:1000F0000E94510AC735D107C9F70E94D8060C944F
:100100005C0A0C9400001F93CF93DF93182FC091CB
:100110003E02D0913F028A3041F4E881F98101909A
:10012000F081E02D6DE0CE010995E881F981019023
:10013000F081E02D612FCE01099521E030E001979B
:1001400011F420E030E0C901DF91CF911F910895B3
:10015000CF93DF93C0913E02D0913F02E881F981B5
:100160000084F185E02DCE010995892BB9F3E88152
:10017000F9810284F385E02DCE01DF91CF910994BE
:10018000EEE6F2E0A089B18982E08C93A485B58582
:100190001C92A685B7858FEC8C93108EA489B589A7
:1001A00086E08C93A289B3898C9180618C93A2891B
:1001B000B3898C9188608C93A289B3898C91806873
:1001C0008C930288F389E02D80818F7D8083089550
:1001D000DC01ED91FC910190F081E02D0994CF922A
:1001E000DF92EF92FF920F931F93CF93DF936C01F7
:1001F0007A018B01C0E0D0E0CE15DF0589F0D8018F
:100200006D918D01D601ED91FC910190F081E02D71
:10021000C6010995892B11F47E0102C02196ECCF0D
:10022000C701DF91CF911F910F91FF90EF90DF9069
:10023000CF900895089580E090E00895FC01538DDB
:10024000448D252F30E0842F90E0821B930B5417B0
:1002500010F0CF96089501970895FC01918D828D3D
:10026000981761F0828DDF01A80FB11D5D968C910A
:10027000928D9F5F9F73928F90E008958FEF9FEF15
:100280000895FC01918D828D981731F0828DE80FD1
:10029000F11D858D90E008958FEF9FEF0895FC018B
:1002A000918D228D892F90E0805C9F4F821B910958
:1002B0008F73992708958EE692E00E944F0121E006
:1002C000892B09F420E0822F0895FC01848DDF0141
:1002D000A80FB11DA35ABF4F2C91848D90E00196B9
:1002E0008F739927848FA689B7892C93A089B189A8
:1002F0008C9180648C93938D848D981306C00288B2
:10030000F389E02D80818F7D80830895EF92FF92A5
:100310000F931F93CF93DF93EC0181E0888F9B8D28
:100320008C8D981305C0E889F989808185FD24C0EA
:10033000F62E0B8D10E00F5F1F4F0F731127E02E6D
:100340008C8DE8120CC00FB607FCFACFE889F9894A
:10035000808185FFF5CFCE010E946501F1CF8B8DA5
:10036000FE01E80FF11DE35AFF4FF0820B8FEA897F
:10037000FB898081806207C0EE89FF896083E889FC
:10038000F98980818064808381E090E0DF91CF9162
:100390001F910F91FF90EF900895CF93DF93EC01A1
:1003A000888D8823C9F0EA89FB89808185FD05C095
:1003B000A889B9898C9186FD0FC00FB607FCF5CFCF
:1003C000808185FFF2CFA889B9898C9185FFEDCF17
:1003D000CE010E946501E7CFDF91CF91089580E0C3
:1003E00090E0892B29F00E945B0181110C940000A0
:1003F000089590E0FC01E656FF4F3491FC01EA5766
:10040000FF4F2491FC01EE58FF4FE491EE2309F4D5
:100410003BC0332339F1333091F038F43130A9F057
:10042000323001F584B58F7D12C0373091F038300D
:10043000A1F03430B9F4809180008F7D03C08091A9
:1004400080008F77809380000DC084B58F7784BD46
:1004500009C08091B0008F7703C08091B0008F7D7C
:100460008093B000F0E0EE0FFF1FE859FF4FA59119
:10047000B4918FB7F894EC91611103C020952E23AD
:1004800001C02E2B2C938FBF08952FB7F894609145
:10049000E8017091E9018091EA019091EB012FBF91
:1004A00008958F929F92AF92BF92CF92DF92EF9278
:1004B000FF926B017C010E9445024B015C01C60E5C
:1004C000D71EE81EF91E0E944502681579058A05A7
:1004D0009B0528F0C616D706E806F906A0F7FF9098
:1004E000EF90DF90CF90BF90AF909F908F90089546
:1004F000CB0108957F928F929F92AF92BF92CF923D
:10050000DF92EF92FF920F931F93CF93DF93EC0153
:1005100049015A018B01C12CD12C7601C814D90490
:10052000EA04FB0484F5F80171908F018F8580FF48
:100530000BC0E881F9810084F185E02D20E144E0E1
:1005400060E070E0CE010995EB85FC858D859E8588
:10055000E817F90738F470828B859C8501969C8793
:100560008B870BC0E881F981672D70E0028CF38DD9
:10057000E02DCE010995019649F02FEFC21AD20A5B
:10058000E20AF20ACBCFB401C50102C0B601C7012D
:10059000DF91CF911F910F91FF90EF90DF90CF905F
:1005A000BF90AF909F908F907F900895CF93DF93EF
:1005B000EC01E881F9810288F389E02D09958F3FEC
:1005C0002FEF920731F02D813E812F5F3F4F3E8309
:1005D0002D83DF91CF9108958FEF9FEF089560E015
:1005E00070E0CB01089580E090E008950F931F9391
:1005F000CF93DF938C01EB016F3F8FEF780719F4F6
:1006000080E090E00FC06A3031F46DE0F80180893D
:1006100091890E94E8006C2FF801808991890E94DD
:10062000E800CE01DF91CF911F910F9108958F9235
:100630009F92BF92CF92DF92EF92FF920F931F9300
:10064000CF93DF9300D000D0CDB7DEB78C014B0144
:10065000C12CD12C7601C216D306E406F50644F56A
:10066000F401B1904F01FAE0BF120EC06DE0F80145
:100670008089918929833A834B835C830E94E800B7
:100680005C814B813A8129816B2DF80180899189A8
:1006900029833A834B835C830E94E800FFEFCF1AE3
:1006A000DF0AEF0AFF0A5C814B813A812981D3CFAF
:1006B000CA01B9010F900F900F900F90DF91CF9169
:1006C0001F910F91FF90EF90DF90CF90BF909F9080
:1006D0008F900895CB010895CF93DF93EC01888923
:1006E0009989DC01ED91FC910084F185E02D09955B
:1006F000892BA9F388899989DC01ED91FC91028409
:10070000F385E02DDF91CF910994CF93DF93EC0136
:1007100088899989DC01ED91FC910084F185E02DB7
:100720000995892BA9F388899989DC01ED91FC91C0
:100730000484F585E02DDF91CF910994AF92BF92AB
:10074000CF92DF92EF92FF920F931F93CF93DF939D
:1007500000D000D0CDB7DEB78C015B01C12CD12C0D
:100760007601F80180899189DC01ED91FC91028488
:10077000F385E02D29833A834B835C830995298196
:100780003A814B815C818F3F71F0C216D306E4063B
:10079000F5064CF4D5018D935D01BFEFCB1ADB0A52
:1007A000EB0AFB0ADECFC701B6010F900F900F9046
:1007B0000F90DF91CF911F910F91FF90EF90DF90FD
:1007C000CF90BF90AF900895DC0150968D919C9191
:1007D0005197DC01ED91FC910084F185E02D0994A5
:1007E00080E090E0089580E090E0089580E090E05F
:1007F000089580E090E0089508950895089508957B
:100800000E94570A6115710579F0FB0101900020E3
:10081000E9F73197AF01461B570BDC01ED91FC91D5
:100820000280F381E02D099480E090E008954F92DA
:100830005F926F927F92EF92FF920F931F93CF93ED
:10084000DF93CDB7DEB7A1970FB6F894DEBF0FBE2A
:10085000CDBF7C01FA01CB0119A2223008F42AE0B5
:100860008E010F5D1F4F422E512C612C712CBF0148
:10087000A30192010E942F0AF901CA010150110936
:100880006A3014F4605D01C0695CD8016C93232B5D
:10089000242B252B61F7B801C7010E940204A19601
:1008A0000FB6F894DEBF0FBECDBFDF91CF911F9181
:1008B0000F91FF90EF907F906F905F904F90089511
:1008C0000C9490090C949009089508950C94900943
:1008D000DC01ED91FC91369720813181820F931FCD
:1008E0000C946604FB0120813181FC01318320835B
:1008F000FB0142815381F901369720813181FC014E
:10090000E20FF31F51834083089526E431E0FC0198
:100910003183208320E531E0318F208F66E571E05F
:100920000C947204DC01ED91FC91369720813181A9
:10093000820F931F0C948504CF93DF93EC010E94E8
:100940008504CE01DF91CF910C949009DC01ED91EB
:10095000FC91369720813181820F931F0C949C0467
:100960000C949009089508950C949009DC01ED9180
:10097000FC91369720813181820F931F0C94B4042F
:10098000FB0120813181FC0131832083FB01428105
:100990005381F901369720813181FC01E20FF31F69
:1009A00051834083089522E831E0FC0131832083A4
:1009B0002CE831E0358B248B62E971E00C94C004A3
:1009C000DC01ED91FC91369720813181820F931FDC
:1009D0000C94D304CF93DF93EC010E94D304CE0197
:1009E000DF91CF910C949009DC01ED91FC91369749
:1009F00020813181820F931F0C94EA041F920F9281
:100A00000FB60F9211242F933F934F935F936F93E1
:100A10007F938F939F93AF93BF93EF93FF938EE654
:100A200092E00E946501FF91EF91BF91AF919F917C
:100A30008F917F916F915F914F913F912F910F9087
:100A40000FBE0F901F9018951F920F920FB60F9226
:100A500011242F938F939F93EF93FF93E0917E0246
:100A6000F0917F028081E0918402F091850282FD05
:100A700012C09081809187028F5F8F7320918802CE
:100A8000821751F0E0918702F0E0E259FD4F958F17
:100A90008093870201C08081FF91EF919F918F9198
:100AA0002F910F900FBE0F901F9018951F920F92CD
:100AB0000FB60F9211242F933F938F939F93AF9371
:100AC000BF938091E8019091E901A091EA01B09172
:100AD000EB013091E70123E0230F2D3720F401963D
:100AE000A11DB11D05C026E8230F0296A11DB11D51
:100AF0002093E7018093E8019093E901A093EA0134
:100B0000B093EB018091E3019091E401A091E501A4
:100B1000B091E6010196A11DB11D8093E301909370
:100B2000E401A093E501B093E601BF91AF919F91DD
:100B30008F913F912F910F900FBE0F901F9018959E
:100B40001F920F920FB60F9211242F933F938F9302
:100B50009F93EF93FF938091E20187FF05C010926E
:100B600085001092840005C08091E20187FD80918C
:100B7000E2018091E2018F5F8093E2018091E201C6
:100B800087FF20C08091E2018C30E4F42091840042
:100B9000309185008091E201082E000C990BFC0138
:100BA000EE0FFF1F8E0F9F1FFC01E254FE4F81814D
:100BB0009281820F931F9093890080938800809187
:100BC000E20117C0809184009091850004968034E2
:100BD0009C4918F480E49CE905C0809184009091C0
:100BE0008500049690938900809388008FEF80930E
:100BF000E201FF91EF919F918F913F912F910F9083
:100C00000FBE0F901F901895CF93DF93AEE6B2E022
:100C100013961C921E92129748EE53E060E070E02B
:100C200014964D935D936D937C93179782E391E0B7
:100C300011969C938E9385EC90E01D969C938E93D9
:100C40001C9784EC90E01F969C938E931E9780ECEB
:100C500090E051969C938E93509781EC90E0539640
:100C60009C938E93529782EC90E055969C938E9332
:100C7000549786EC90E057969C938E93569759968E
:100C80001C9259975A961C925A975B961C925B97A6
:100C90005C961C925C97E6EFF1E016821782108654
:100CA0001186128613861486158616861786108A74
:100CB000118A128A138A148A158AEBE0F3E0C1E2E2
:100CC000D0E0D08FC78B118E128E138E46E050E08D
:100CD00060E070E0448F558F668F778F10A211A26D
:100CE00012A213A220E224A316A215A211A68DE03F
:100CF00093E090A787A382E891E0918380838CE8BA
:100D000091E0958B848B168215821086178212864D
:100D100011861486138616861586108A178680E635
:100D200091E093838283B38BA28B30E1318BE0E43B
:100D3000F2E0D48FC38F158E168E178E40A351A369
:100D400062A373A314A215A216A217A220A712A62B
:100D500011A615A6128213821482158226E432E0AF
:100D600034A723A726E431E03183208320E531E056
:100D7000318F208F1286118614861386168615866B
:100D8000108A1786128A118A148A138A9783868397
:100D9000B78BA68B88E0858BB0933F02A0933E0271
:100DA00068EA70E083E890E0DF91CF910C949408BA
:100DB000789484B5826084BD84B5816084BD85B536
:100DC000826085BD85B5816085BD80916E00816042
:100DD00080936E00109281008091810082608093E8
:100DE00081008091810081608093810080918000EA
:100DF0008160809380008091B10084608093B10015
:100E00008091B00081608093B00080917A0084600E
:100E100080937A0080917A00826080937A0080913A
:100E20007A00816080937A0080917A008068809354
:100E30007A001092C10010923A0210923B02109276
:100E40003C0210923D021092F8011092F9011092AA
:100E5000FA011092FB0168EB7BE080E090E00E94D9
:100E600051028EE692E090933902809338020E94FC
:100E7000C0000E9445026093F8017093F9018093CD
:100E8000FA019093FB0168E971E08091380290913A
:100E900039020E9402046AE070E080E090E00E9463
:100EA000510281E080930C020E94C00084EF882EE2
:100EB00099249394A12CB12C0E944502672B682B96
:100EC000692B41F40E94450262307105810591054C
:100ED00008F40BC10E9445026093F2017093F30184
:100EE0008093F4019093F501C090EE01D090EF0152
:100EF000E090F001F090F1016C157D058E059F05E5
:100F000040F46093EE017093EF018093F0019093B1
:100F1000F101C090EE01D090EF01E090F001F0906F
:100F2000F1019B01AC012C193D094E095F096901D2
:100F30007A013AEFC316D104E104F10408F4D5C0F4
:100F40006093EE017093EF018093F0019093F101B3
:100F50008092040290920502A0920602B0920702CB
:100F6000109208021092090210920A0210920B02CB
:100F70008091FC019091FD01A091FE01B091FF01D3
:100F80008093000290930102A0930202B0930302A7
:100F90000E9445026093FC017093FD018093FE0165
:100FA0009093FF010E9445026093F8017093F9014C
:100FB0008093FA019093FB010E9445026B017C0132
:100FC0006AEA71E080913802909139020E9402042D
:100FD0002AE041E050E060E070E0809138029091BA
:100FE00039020E94170461EB71E080913802909100
:100FF00039020E9402042AE0B701A601809138025A
:10100000909139020E94170463EB71E080913802DD
:10101000909139020E9402048091FC019091FD019F
:10102000A091FE01B091FF01B701A601481B590B29
:101030006A0B7B0B2AE080913802909139020E9462
:10104000170463EB71E080913802909139020E949D
:1010500002044091FC015091FD016091FE017091EC
:10106000FF018091000290910102A0910202B091D3
:101070000302481B590B6A0B7B0B2AE08091380254
:10108000909139020E94170465EB71E0809138025B
:10109000909139020E9402040E944502AB01BC01FA
:1010A0002AE080913802909139020E941704E09062
:1010B0003802F090390267EB71E0C7010E94020428
:1010C00067EA71E0C7010E94020465E070E080E019
:1010D00090E00E9451020E9445026093FC017093CF
:1010E000FD018093FE019093FF018EE692E00E9445
:1010F0004F01181619066CF48EE692E00E942D013D
:101100008093EC019093ED01682F8EE692E00E94AF
:1011100086010E94EF01D0CE80E492E00E94850417
:101120008BE093E00C94D3040F931F93CF93DF9342
:10113000009731F46115710519F480E090E03AC030
:101140008B01EC016EE070E081E090E00E94DF082E
:10115000FC01892B91F380E883830115110571F05F
:101160001387028781E8838380913503909136034A
:10117000892B21F4F0933603E09335032097C9F0CF
:10118000D187C08783818260838380913703909168
:101190003803892B71F4F0933803E093370380917F
:1011A000390390913A03892B21F4F0933A03E093A9
:1011B0003903CF01DF91CF911F910F9108950F93C4
:1011C0001F93CF93DF93869F8001879F100D969F7B
:1011D000100D1124C8010E94FB08EC01009729F0B2
:1011E000A80160E070E00E94280ACE01DF91CF9153
:1011F0001F910F910895CF93DF938230910510F4E2
:1012000082E090E0E0913D03F0913E0320E030E089
:10121000C0E0D0E0309711F1408151814817590763
:10122000C0F04817590761F482819381209719F023
:101230009B838A832BC090933E0380933D0326C0FB
:101240002115310519F04217530718F49A01BE0110
:10125000DF01EF010280F381E02DDCCF21153105A4
:1012600009F1281B390B2430310590F412968D9129
:101270009C9113976115710521F0FB019383828383
:1012800004C090933E0380933D03FD01329644C019
:10129000FD01E20FF31F81939193225031092D93A9
:1012A0003C933AC020913B0330913C03232B41F403
:1012B000209102013091030130933C0320933B03C2
:1012C00020910001309101012115310541F42DB724
:1012D0003EB74091040150910501241B350BE0916C
:1012E0003B03F0913C03E217F307A0F42E1B3F0BE6
:1012F0002817390778F0AC014E5F5F4F2417350788
:1013000048F04E0F5F1F50933C0340933B03819383
:10131000919302C0E0E0F0E0CF01DF91CF9108951A
:101320000F931F93CF93DF93009709F48CC0FC01B8
:1013300032971382128200913D0310913E030115F2
:10134000110581F420813181820F931F20913B038D
:1013500030913C032817390779F5F0933C03E0936B
:101360003B0371C0D80140E050E0AE17BF0750F416
:1013700012962D913C911397AD012115310509F17C
:10138000D901F3CF9D01DA0133832283608171811A
:10139000860F971F8217930769F4EC012881398122
:1013A000260F371F2E5F3F4F318320838A819B8119
:1013B00093838283452B29F4F0933E03E0933D030E
:1013C00042C01396FC93EE931297ED014991599107
:1013D0009E01240F351FE217F30771F4808191817C
:1013E000840F951F029611969C938E938281938110
:1013F00013969C938E931297E0E0F0E0D80112963A
:101400008D919C911397009719F0F8018C01F6CFFC
:101410008D919C9198012E5F3F4F820F931F2091D9
:101420003B0330913C032817390769F4309729F4BE
:1014300010923E0310923D0302C013821282109359
:101440003C0300933B03DF91CF911F910F910895CF
:10145000DC0101C06D9341505040E0F70895A1E2D6
:101460001A2EAA1BBB1BFD010DC0AA1FBB1FEE1F1E
:10147000FF1FA217B307E407F50720F0A21BB30B69
:10148000E40BF50B661F771F881F991F1A9469F7E5
:1014900060957095809590959B01AC01BD01CF0141
:1014A0000895EE0FFF1F0590F491E02D099481E05F
:1014B00090E0F8940C945C0A10E0C8E5D0E004C019
:1014C000FE010E94510A2196C935D107C9F7F89447
:0214D000FFCF4C
:1014D20000003F0380001800000000000000000030
:1014E200E8FFE8FF00000000000014000000000018
:1014F20000000000ECFFECFF000000000000000014
:1015020000008601EF001E01CD014F012D014101B6
:1015120018000000000085049C04E8FFE8FF0000BA
:101522009204A60446010C011601500100000000BD
:10153200FE03B004FC03F903F603F303F003E40330
:101542009E0385036C036A031703F602140000006E
:101552000000D304EA04ECFFECFF0000E004F40412
:10156200820120012A018C01564D4450565F317C84
:10157200315F564D4450560D0A00564D4450455F5A
:0E158200003A323A007C005F564D445045005E
:107E0000112484B714BE81FFF0D085E080938100F7
:107E100082E08093C00088E18093C10086E0809377
:107E2000C20080E18093C4008EE0C9D0259A86E02C
:107E300020E33CEF91E0309385002093840096BBD3
:107E4000B09BFECF1D9AA8958150A9F7CC24DD24C4
:107E500088248394B5E0AB2EA1E19A2EF3E0BF2EE7
:107E6000A2D0813461F49FD0082FAFD0023811F036
:107E7000013811F484E001C083E08DD089C08234E0
:107E800011F484E103C0853419F485E0A6D080C0E4
:107E9000853579F488D0E82EFF2485D0082F10E0AE
:107EA000102F00270E291F29000F111F8ED06801E7
:107EB0006FC0863521F484E090D080E0DECF843638
:107EC00009F040C070D06FD0082F6DD080E0C81688
:107ED00080E7D80618F4F601B7BEE895C0E0D1E017
:107EE00062D089930C17E1F7F0E0CF16F0E7DF06D8
:107EF00018F0F601B7BEE89568D007B600FCFDCFD4
:107F0000A601A0E0B1E02C9130E011968C91119780
:107F100090E0982F8827822B932B1296FA010C0160
:107F200087BEE89511244E5F5F4FF1E0A038BF0790
:107F300051F7F601A7BEE89507B600FCFDCF97BE46
:107F4000E89526C08437B1F42ED02DD0F82E2BD052
:107F50003CD0F601EF2C8F010F5F1F4F84911BD097
:107F6000EA94F801C1F70894C11CD11CFA94CF0C13
:107F7000D11C0EC0853739F428D08EE10CD085E9AC
:107F80000AD08FE07ACF813511F488E018D01DD067
:107F900080E101D065CF982F8091C00085FFFCCF94
:107FA0009093C60008958091C00087FFFCCF809118
:107FB000C00084FD01C0A8958091C6000895E0E648
:107FC000F0E098E1908380830895EDDF803219F02E
:107FD00088E0F5DFFFCF84E1DECF1F93182FE3DFCA
:107FE0001150E9F7F2DF1F91089580E0E8DFEE27F6
:047FF000FF270994CA
:027FFE00040479
:0400000300007E007B
:00000001FF