:100000000C9459000C9481000C9481000C94810094
:100010000C9481000C9481000C9481000C9481005C
:100020000C9481000C9481000C9481000C94BF040A
:100030000C9481000C9481000C9481000C9481003C
:100040000C9472040C9481000C9434040C940E04EF
:100050000C9481000C9481000C9481000C9481001C
:100060000C9481000C948100000000002500280001
:100070002B00040404040404040402020202020229
:10008000030303030303010204081020408001025C
:1000900004081020010204081020000000080002DB
:1000A0000100000304070000000000000000D20768
:1000B000CA0711241FBECFEFD8E0DEBFCDBF12E0CC
:1000C000A0E0B1E0E6EFF4E102C005900D92AE30A1
:1000D000B107D9F723E0AEE0B2E001C01D92A1392B
:1000E000B207E1F710E0C8E5D0E004C02197FE01B7
:1000F0000E94630AC735D107C9F70E9404060C9411
:100100006E0A0C940000089580E090E00895FC01D0
:10011000538D448D252F30E0842F90E0821B930B6C
:10012000541710F0CF96089501970895FC01918D12
:10013000828D981761F0828DDF01A80FB11D5D9649
:100140008C91928D9F5F9F73928F90E008958FEFB7
:100150009FEF0895FC01918D828D981731F0828D6B
:10016000E80FF11D858D90E008958FEF9FEF0895C2
:10017000FC01918D228D892F90E0805C9F4F821B26
:1001800091098F739927089580EC92E00E94B8003E
:1001900021E0892B09F420E0822F0895FC01848D51
:1001A000DF01A80FB11DA35ABF4F2C91848D90E0A1
:1001B00001968F739927848FA689B7892C93A0897C
:1001C000B1898C9180648C93938D848D981306C033
:1001D0000288F389E02D80818F7D80830895EF92DE
:1001E000FF920F931F93CF93DF93EC0181E0888FF1
:1001F0009B8D8C8D981305C0E889F989808185FDD8
:1002000024C0F62E0B8D10E00F5F1F4F0F731127C8
:10021000E02E8C8DE8120CC00FB607FCFACFE889EF
:10022000F989808185FFF5CFCE010E94CE00F1CF04
:100230008B8DFE01E80FF11DE35AFF4FF0820B8F0B
:10024000EA89FB898081806207C0EE89FF8960832B
:10025000E889F98980818064808381E090E0DF9182
:10026000CF911F910F91FF90EF900895CF93DF935F
:10027000EC01888D8823C9F0EA89FB89808185FD9E
:1002800005C0A889B9898C9186FD0FC00FB607FCFF
:10029000F5CF808185FFF2CFA889B9898C9185FF40
:1002A000EDCFCE010E94CE00E7CFDF91CF91089530
:1002B00080E090E0892B29F00E94C40081110C9409
:1002C0000000089590E0FC01E656FF4F3491FC01D8
:1002D000EA57FF4F2491FC01EE58FF4FE491EE23C3
:1002E00009F43BC0332339F1333091F038F4313025
:1002F000A9F0323001F584B58F7D12C0373091F00E
:100300003830A1F03430B9F4809180008F7D03C083
:10031000809180008F77809380000DC084B58F77A7
:1003200084BD09C08091B0008F7703C08091B00078
:100330008F7D8093B000F0E0EE0FFF1FE859FF4F74
:10034000A591B4918FB7F894EC91611103C02095F9
:100350002E2301C02E2B2C938FBF0895CB0108951F
:100360007F928F929F92AF92BF92CF92DF92EF9245
:10037000FF920F931F93CF93DF93EC0149015A0132
:100380008B01C12CD12C7601C814D904EA04FB04DA
:1003900084F5F80171908F018F8580FF0BC0E88193
:1003A000F9810084F185E02D20E144E060E070E017
:1003B000CE010995EB85FC858D859E85E817F907AB
:1003C00038F470828B859C8501969C878B870BC047
:1003D000E881F981672D70E0028CF38DE02DCE016C
:1003E0000995019649F02FEFC21AD20AE20AF20AE1
:1003F000CBCFB401C50102C0B601C701DF91CF91D7
:100400001F910F91FF90EF90DF90CF90BF90AF9032
:100410009F908F907F900895CF93DF93EC01E881B8
:10042000F9810288F389E02D09958F3F2FEF92071C
:1004300031F02D813E812F5F3F4F3E832D83DF9131
:10044000CF9108958FEF9FEF089560E070E0CB01AA
:10045000089580E090E00895CB010895CF93DF9355
:10046000EC0188899989DC01ED91FC910084F1858A
:10047000E02D0995892BA9F388899989DC01ED91F3
:10048000FC910284F385E02DDF91CF910994CF9305
:10049000DF93EC0188899989DC01ED91FC9100845E
:1004A000F185E02D0995892BA9F388899989DC01CB
:1004B000ED91FC910484F585E02DDF91CF910994B5
:1004C000AF92BF92CF92DF92EF92FF920F931F9362
:1004D000CF93DF9300D000D0CDB7DEB78C015B01A6
:1004E000C12CD12C7601F80180899189DC01ED9134
:1004F000FC910284F385E02D29833A834B835C834E
:10050000099529813A814B815C818F3F71F0C21638
:10051000D306E406F5064CF4D5018D935D01BFEFDB
:10052000CB1ADB0AEB0AFB0ADECFC701B6010F903C
:100530000F900F900F90DF91CF911F910F91FF902F
:10054000EF90DF90CF90BF90AF900895DC01509670
:100550008D919C915197DC01ED91FC910084F18586
:10056000E02D099480E090E0089580E090E0089507
:1005700080E090E0089580E090E008950895CF93A2
:10058000DF93C0919002D0919102E881F9810084BB
:10059000F185E02DCE010995892BB9F3E881F98128
:1005A0000284F385E02DCE01DF91CF9109941F9352
:1005B000CF93DF93182FC0919002D09191028A308F
:1005C00041F4E881F9810190F081E02D6DE0CE01E8
:1005D0000995E881F9810190F081E02D612FCE012C
:1005E000099521E030E0019711F420E030E0C901E5
:1005F000DF91CF911F9108950F931F93CF93DF93B6
:100600008C01EB016F3F8FEF780719F480E090E0E9
:100610000FC06A3031F46DE0F801808991890E9441
:100620009F056C2FF801808991890E949F05CE015A
:10063000DF91CF911F910F9108958F929F92BF925A
:10064000CF92DF92EF92FF920F931F93CF93DF939E
:1006500000D000D0CDB7DEB78C014B01C12CD12C1E
:100660007601C216D306E406F50644F5F401B1900E
:100670004F01FAE0BF120EC06DE0F8018089918948
:1006800029833A834B835C830E949F055C814B8165
:100690003A8129816B2DF8018089918929833A83D8
:1006A0004B835C830E949F05FFEFCF1ADF0AEF0A9E
:1006B000FF0A5C814B813A812981D3CFCA01B901FC
:1006C0000F900F900F900F90DF91CF911F910F918E
:1006D000FF90EF90DF90CF90BF909F908F90089504
:1006E000FB0120813181FC0131832083FB014281A8
:1006F0005381F901369720813181FC01E20FF31F0C
:1007000051834083089522ED31E0FC013183208341
:100710002CED31E0358B248B62EE71E00C9470038C
:10072000DC01ED91FC91369720813181820F931F7E
:100730000C948303CF93DF93EC010E948303CE01DB
:10074000DF91CF910C94A209DC01ED91FC913697D9
:1007500020813181820F931F0C949A030C94A2097B
:10076000089508950C94A209DC01ED91FC9136974F
:1007700020813181820F931F0C94B203FB012081F1
:100780003181FC0131832083FB0142815381F901D6
:10079000369720813181FC01E20FF31F51834083A2
:1007A00008952AE531E0FC013183208324E631E01D
:1007B000318F208F6AE671E00C94BE03DC01ED916D
:1007C000FC91369720813181820F931F0C94D103C5
:1007D000CF93DF93EC010E94D103CE01DF91CF9143
:1007E0000C94A209DC01ED91FC91369720813181B6
:1007F000820F931F0C94E8030C94A20908950895A6
:100800000C94A209DC01ED91FC9136972081318195
:10081000820F931F0C9400040C94A2091F920F9254
:100820000FB60F9211242F933F934F935F936F93C3
:100830007F938F939F93AF93BF93EF93FF9380EC3E
:1008400092E00E94CE00FF91EF91BF91AF919F91F6
:100850008F917F916F915F914F913F912F910F9069
:100860000FBE0F901F9018951F920F920FB60F9208
:1008700011242F938F939F93EF93FF93E091D002D6
:10088000F091D1028081E091D602F091D70282FDF1
:1008900012C090818091D9028F5F8F732091DA020C
:1008A000821751F0E091D902F0E0E054FD4F958FAE
:1008B0008093D90201C08081FF91EF919F918F9128
:1008C0002F910F900FBE0F901F9018952FB7F8948F
:1008D000609138027091390280913A0290913B0206
:1008E0002FBF08951F920F920FB60F9211242F93CE
:1008F0003F938F939F93AF93BF93809138029091D2
:100900003902A0913A02B0913B023091370223E0C4
:10091000230F2D3720F40196A11DB11D05C026E837
:10092000230F0296A11DB11D209337028093380238
:1009300090933902A0933A02B0933B028091330224
:1009400090913402A0913502B09136020196A11D1A
:10095000B11D8093330290933402A0933502B0937B
:100960003602BF91AF919F918F913F912F910F9040
:100970000FBE0F901F9018950895089508951F9227
:100980000F920FB60F9211242F933F938F939F9343
:10099000EF93FF938091320287FF05C0109285008C
:1009A0001092840005C08091320287FD809132024E
:1009B000809132028F5F809332028091320287FFF2
:1009C00020C0809132028C30E4F420918400309178
:1009D000850080913202082E000C990BFC01EE0F6D
:1009E000FF1F8E0F9F1FFC01E25FFD4F81819281EF
:1009F000820F931F90938900809388008091320228
:100A000017C08091840090918500049680349C49A1
:100A100018F480E49CE905C08091840090918500E1
:100A2000049690938900809388008FEF8093320220
:100A3000FF91EF919F918F913F912F910F900FBE5A
:100A40000F901F901895CF92DF92EF92FF920F9325
:100A50001F93CF93DF936C017A018B01C0E0D0E04C
:100A6000CE15DF0589F0D8016D918D01D601ED918C
:100A7000FC910190F081E02DC6010995892B11F4BC
:100A80007E0102C02196ECCFC701DF91CF911F916B
:100A90000F91FF90EF90DF90CF9008950E94690A28
:100AA000E0ECF2E0A089B18982E08C93A485B58561
:100AB0001C92A685B7858FEC8C93108EA489B5897E
:100AC00086E08C93A289B3898C9180618C93A289F2
:100AD000B3898C9188608C93A289B3898C9180684A
:100AE0008C930288F389E02D80818F7D8083089527
:100AF0008F929F92AF92BF92CF92DF92EF92FF922E
:100B00006B017C010E9466044B015C01C60ED71E7E
:100B1000E81EF91E0E946604681579058A059B0582
:100B200028F0C616D706E806F906A0F7FF90EF9062
:100B3000DF90CF90BF90AF909F908F900895DC0191
:100B4000ED91FC910190F081E02D09946115710502
:100B500079F0FB0101900020E9F73197AF01461BC6
:100B6000570BDC01ED91FC910280F381E02D09949B
:100B700080E090E008954F925F926F927F92EF92A3
:100B8000FF920F931F93CF93DF93CDB7DEB7A1975B
:100B90000FB6F894DEBF0FBECDBF7C01FA01CB01CA
:100BA00019A2223008F42AE08E010F5D1F4F422E59
:100BB000512C612C712CBF01A30192010E94410AAA
:100BC000F901CA01015011096A3014F4605D01C0D5
:100BD000695CD8016C93232B242B252B61F7B8017A
:100BE000C7010E94A605A1960FB6F894DEBF0FBEFE
:100BF000CDBFDF91CF911F910F91FF90EF907F902C
:100C00006F905F904F900895CF93DF931F92CDB771
:100C1000DEB7789484B5826084BD84B5816084BD7C
:100C200085B5826085BD85B5816085BD80916E008A
:100C3000816080936E0010928100809181008260BB
:100C400080938100809181008160809381008091F8
:100C500080008160809380008091B10084608093E7
:100C6000B1008091B00081608093B00080917A00E3
:100C7000846080937A0080917A00826080937A0009
:100C800080917A00816080937A0080917A008068F8
:100C900080937A001092C10010928C0210928D0203
:100CA00010928E0210928F0210924A0210924B0202
:100CB00010924C0210924D0268EB7BE080E090E0D5
:100CC0000E94780580EC92E090938B0280938A02D8
:100CD0000E9450050E94660460934A0270934B0282
:100CE00080934C0290934D0268EE71E080918A02ED
:100CF00090918B020E94A6056AE070E080E090E08F
:100D00000E94780581E080935E020E946604672B52
:100D1000682B692B41F40E946604623071058105DD
:100D2000910508F40FC10E9466046093400270931D
:100D300041028093420290934302C0903C02D090C3
:100D40003D02E0903E02F0903F026C157D058E055D
:100D50009F0540F460933C0270933D0280933E02F5
:100D600090933F02C0903C02D0903D02E0903E0242
:100D7000F0903F029B01AC012C193D094E095F091F
:100D800069017A013AEFC316D104E104F10408F4D1
:100D9000D9C060933C0270933D0280933E029093D1
:100DA0003F0284EF91E0A0E0B0E080935602909380
:100DB0005702A0935802B093590210925A0210920F
:100DC0005B0210925C0210925D0280914E02909143
:100DD0004F02A0915002B091510280935202909321
:100DE0005302A0935402B09355020E94660460938C
:100DF0004E0270934F0280935002909351020E94D2
:100E0000660460934A0270934B0280934C02909365
:100E10004D020E9466046B017C016AEF71E08091D3
:100E20008A0290918B020E94A6052AE041E050E0E0
:100E300060E070E080918A0290918B020E94BB0575
:100E400061E072E080918A0290918B020E94A60577
:100E50002AE0B701A60180918A0290918B020E943C
:100E6000BB0563E072E080918A0290918B020E9440
:100E7000A60580914E0290914F02A0915002B09130
:100E80005102B701A601481B590B6A0B7B0B2AE0E4
:100E900080918A0290918B020E94BB0563E072E010
:100EA00080918A0290918B020E94A60540914E0289
:100EB00050914F0260915002709151028091520204
:100EC00090915302A0915402B0915502481B590BC6
:100ED0006A0B7B0B2AE080918A0290918B020E9420
:100EE000BB0565E072E080918A0290918B020E94BE
:100EF000A6050E946604AB01BC012AE080918A022B
:100F000090918B020E94BB05E0908A02F0908B02C8
:100F100067E072E0C7010E94A60567EF71E0C701B4
:100F20000E94A60565E070E080E090E00E947805F0
:100F30000E94660460934E0270934F0280935002A9
:100F4000909351020E94500580EC92E00E94B800FC
:100F50000297ECF080EC92E00E949600682F80935C
:100F600046029093470280EC92E069830E949600CB
:100F7000F82E8093440290934502698180EC92E0C0
:100F80000E94EF006F2D80EC92E00E94EF000E9423
:100F90005801DACF82E992E00E94D1038DE593E017
:100FA0000C948303CF93DF93A0ECB2E013961C92D2
:100FB0001E92129748EE53E060E070E014964D9355
:100FC0005D936D937C93179782E391E011969C93C8
:100FD0008E9385EC90E01D969C938E931C9784ECE9
:100FE00090E01F969C938E931E9780EC90E0519614
:100FF0009C938E93509781EC90E053969C938E93A4
:10100000529782EC90E055969C938E93549786EC81
:1010100090E057969C938E93569759961C925997A9
:101020005A961C925A975B961C925B975C961C9200
:101030005C97E8E4F2E01682178210861186128629
:1010400013861486158616861786108A118A128AC8
:10105000138A148A158AEDE5F3E0C1E2D0E0D08F5F
:10106000C78B118E128E138E46E050E060E070E068
:10107000448F558F668F778F10A211A212A213A2F0
:1010800020E224A316A215A211A68FE593E090A753
:1010900087A382ED91E0918380838CED91E0958B25
:1010A000848B16821582108617821286118614860A
:1010B000138616861586108A178680EB91E0938337
:1010C0008283B38BA28B30E1318BE2E9F2E0D48FE3
:1010D000C38F158E168E178E40A351A362A373A3E0
:1010E00014A215A216A217A220A712A611A615A631
:1010F000128213821482158228E932E034A723A7D2
:101100002AE531E03183208324E631E0318F208FDE
:10111000128611861486138616861586108A1786FF
:10112000128A118A148A138A97838683B78BA68BB7
:1011300088E0858BB0939102A09390026FEB72E0F0
:1011400087ED92E0DF91CF910C94A6080F931F9347
:10115000CF93DF93009731F46115710519F480E0A6
:1011600090E03AC08B01EC016EE070E081E090E02D
:101170000E94F108FC01892B91F380E8838301151B
:10118000110571F01387028781E8838380918703BB
:1011900090918803892B21F4F0938803E0938703CF
:1011A0002097C9F0D187C087838182608383809133
:1011B000890390918A03892B71F4F0938A03E09359
:1011C000890380918B0390918C03892B21F4F093F8
:1011D0008C03E0938B03CF01DF91CF911F910F918F
:1011E00008950F931F93CF93DF93869F8001879F6E
:1011F000100D969F100D1124C8010E940D09EC01DD
:10120000009729F0A80160E070E00E943A0ACE0140
:10121000DF91CF911F910F910895CF93DF9382308B
:10122000910510F482E090E0E0918F03F09190033B
:1012300020E030E0C0E0D0E0309711F140815181F2
:1012400048175907C0F04817590761F48281938104
:10125000209719F09B838A832BC0909390038093EF
:101260008F0326C02115310519F04217530718F4D2
:101270009A01BE01DF01EF010280F381E02DDCCF96
:101280002115310509F1281B390B2430310590F463
:1012900012968D919C9113976115710521F0FB01B8
:1012A0009383828304C09093900380938F03FD0106
:1012B000329644C0FD01E20FF31F819391932250B7
:1012C00031092D933C933AC020918D0330918E03C8
:1012D000232B41F4209102013091030130938E03BE
:1012E00020938D03209100013091010121153105DA
:1012F00041F42DB73EB74091040150910501241BE4
:10130000350BE0918D03F0918E03E217F307A0F403
:101310002E1B3F0B2817390778F0AC014E5F5F4F4B
:101320002417350748F04E0F5F1F50938E034093EC
:101330008D038193919302C0E0E0F0E0CF01DF9153
:10134000CF9108950F931F93CF93DF93009709F4E4
:101350008CC0FC0132971382128200918F0310918E
:1013600090030115110581F420813181820F931FB3
:1013700020918D0330918E032817390779F5F0936A
:101380008E03E0938D0371C0D80140E050E0AE17AA
:10139000BF0750F412962D913C911397AD01211582
:1013A000310509F1D901F3CF9D01DA01338322839D
:1013B00060817181860F971F8217930769F4EC0192
:1013C00028813981260F371F2E5F3F4F31832083BD
:1013D0008A819B8193838283452B29F4F093900328
:1013E000E0938F0342C01396FC93EE931297ED01A6
:1013F000499159919E01240F351FE217F30771F4AB
:1014000080819181840F951F029611969C938E93F3
:101410008281938113969C938E931297E0E0F0E083
:10142000D80112968D919C911397009719F0F801AD
:101430008C01F6CF8D919C9198012E5F3F4F820FCA
:10144000931F20918D0330918E032817390769F47B
:10145000309729F41092900310928F0302C01382E8
:10146000128210938E0300938D03DF91CF911F9111
:101470000F910895DC0101C06D9341505040E0F799
:101480000895A1E21A2EAA1BBB1BFD010DC0AA1FC5
:10149000BB1FEE1FFF1FA217B307E407F50720F0DD
:1014A000A21BB30BE40BF50B661F771F881F991F58
:1014B0001A9469F760957095809590959B01AC01A1
:1014C000BD01CF010895EE0FFF1F0590F491E02DAF
:1014D000099481E090E0F8940C946E0A10E0C8E55D
:1014E000D0E004C0FE010E94630A2196C935D107ED
:0614F000C9F7F894FFCFDC
:1014F60000009103800018000000000000000000BA
:10150600E8FFE8FF000000000000140000000000F3
:1015160000000000ECFFECFF0000000000000000EF
:101526000000EF00230587003601B8009600AA00E8
:10153600060000000000B003B203FAFFFAFF000045
:10154600B103B403180000000000D103E803E8FF6C
:10155600E8FF0000DE03F2035A010C0116016401E4
:1015660000000000BC04AE03BE02BB02B802B50216
:10157600B2022902250222020C022C02B001AE019F
:10158600020000000000FE030004FEFFFEFF000054
:10159600FF03020400000000BE040C04000000006B
:1015A600BD04FC03BE02BB02B802B502B202A6022B
:1015B600600247022E022C021D03FC0214000000EA
:1015C600000083039A03ECFFECFF00009003A403E2
:1015D600D20120012A01DC01564D4450565F317C70
:1015E600315F564D4450560D0A00564D4450455FE6
:0E15F600003A323A007C005F564D44504500EA
:107E0000112484B714BE81FFF0D085E080938100F7
:107E100082E08093C00088E18093C10086E0809377
:107E2000C20080E18093C4008EE0C9D0259A86E02C
:107E300020E33CEF91E0309385002093840096BBD3
:107E4000B09BFECF1D9AA8958150A9F7CC24DD24C4
:107E500088248394B5E0AB2EA1E19A2EF3E0BF2EE7
:107E6000A2D0813461F49FD0082FAFD0023811F036
:107E7000013811F484E001C083E08DD089C08234E0
:107E800011F484E103C0853419F485E0A6D080C0E4
:107E9000853579F488D0E82EFF2485D0082F10E0AE
:107EA000102F00270E291F29000F111F8ED06801E7
:107EB0006FC0863521F484E090D080E0DECF843638
:107EC00009F040C070D06FD0082F6DD080E0C81688
:107ED00080E7D80618F4F601B7BEE895C0E0D1E017
:107EE00062D089930C17E1F7F0E0CF16F0E7DF06D8
:107EF00018F0F601B7BEE89568D007B600FCFDCFD4
:107F0000A601A0E0B1E02C9130E011968C91119780
:107F100090E0982F8827822B932B1296FA010C0160
:107F200087BEE89511244E5F5F4FF1E0A038BF0790
:107F300051F7F601A7BEE89507B600FCFDCF97BE46
:107F4000E89526C08437B1F42ED02DD0F82E2BD052
:107F50003CD0F601EF2C8F010F5F1F4F84911BD097
:107F6000EA94F801C1F70894C11CD11CFA94CF0C13
:107F7000D11C0EC0853739F428D08EE10CD085E9AC
:107F80000AD08FE07ACF813511F488E018D01DD067
:107F900080E101D065CF982F8091C00085FFFCCF94
:107FA0009093C60008958091C00087FFFCCF809118
:107FB000C00084FD01C0A8958091C6000895E0E648
:107FC000F0E098E1908380830895EDDF803219F02E
:107FD00088E0F5DFFFCF84E1DECF1F93182FE3DFCA
:107FE0001150E9F7F2DF1F91089580E0E8DFEE27F6
:047FF000FF270994CA
:027FFE00040479
:0400000300007E007B
:00000001FF