:100000000C9435000C945D000C945D000C945D0024
:100010000C945D000C945D000C945D000C945D00EC
:100020000C945D000C945D000C945D000C945D00DC
:100030000C945D000C945D000C945D000C945D00CC
:100040000C947C020C945D000C944A020C942402E3
:100050000C945D000C945D000C945D000C945D00AC
:100060000C945D000C945D00C60211241FBECFEFFE
:10007000D8E0DEBFCDBF22E0A8E3B1E001C01D9211
:10008000A033B207E1F711E0A0E0B1E0E0EDF9E064
:1000900002C005900D92A833B107D9F710E0C5E36F
:1000A000D0E004C02197FE010E94DB04C433D107D5
:1000B000C9F70E9405030C94E6040C940000EBE4DD
:1000C000F1E0A089B18982E08C93A485B5851C926A
:1000D000A685B7858FEC8C93108EA489B58986E0B0
:1000E0008C93A289B3898C9180618C93A289B38906
:1000F0008C9188608C93A289B3898C9180688C9351
:100100000288F389E02D80818F7D80830895CF92CE
:10011000DF92EF92FF920F931F93CF93DF936C01C7
:100120007A018B01C0E0D0E0CE15DF0589F0D8015F
:100130006D918D01D601ED91FC910190F081E02D42
:10014000C6010995892B11F47E0102C02196ECCFDE
:10015000C701DF91CF911F910F91FF90EF90DF903A
:10016000CF900895089580E090E00895FC01538DAC
:10017000448D252F30E0842F90E0821B930B541781
:1001800010F0CF96089501970895FC01918D828D0E
:10019000981761F0828DDF01A80FB11D5D968C91DB
:1001A000928D9F5F9F73928F90E008958FEF9FEFE6
:1001B0000895FC01918D828D981731F0828DE80FA2
:1001C000F11D858D90E008958FEF9FEF0895FC015C
:1001D000918D228D892F90E0805C9F4F821B910929
:1001E0008F73992708958BE491E00E94E70021E046
:1001F000892B09F420E0822F0895FC01848DDF0112
:10020000A80FB11DA35ABF4F2C91848D90E0019689
:100210008F739927848FA689B7892C93A089B18978
:100220008C9180648C93938D848D981306C0028882
:10023000F389E02D80818F7D80830895EF92FF9276
:100240000F931F93CF93DF93EC0181E0888F9B8DF9
:100250008C8D981305C0E889F989808185FD24C0BB
:10026000F62E0B8D10E00F5F1F4F0F731127E02E3E
:100270008C8DE8120CC00FB607FCFACFE889F9891B
:10028000808185FFF5CFCE010E94FD00F1CF8B8DDF
:10029000FE01E80FF11DE35AFF4FF0820B8FEA8950
:1002A000FB898081806207C0EE89FF896083E889CD
:1002B000F98980818064808381E090E0DF91CF9133
:1002C0001F910F91FF90EF900895CF93DF93EC0172
:1002D000888D8823C9F0EA89FB89808185FD05C066
:1002E000A889B9898C9186FD0FC00FB607FCF5CFA0
:1002F000808185FFF2CFA889B9898C9185FFEDCFE8
:10030000CE010E94FD00E7CFDF91CF91089580E0FC
:1003100090E0892B29F00E94F30081110C940000D9
:1003200008952FB7F89460913D0170913E0180913E
:100330003F01909140012FBF08958F929F92AF92FD
:10034000BF92CF92DF92EF92FF926B017C010E94ED
:1003500091014B015C01C60ED71EE81EF91E0E94DA
:100360009101681579058A059B0528F0C616D70600
:10037000E806F906A0F7FF90EF90DF90CF90BF90CE
:10038000AF909F908F9008950E94E10461157105D0
:1003900079F0FB0101900020E9F73197AF01461B8E
:1003A000570BDC01ED91FC910280F381E02D099463
:1003B00080E090E008954F925F926F927F92EF926B
:1003C000FF920F931F93CF93DF93CDB7DEB7A19723
:1003D0000FB6F894DEBF0FBECDBF7C01FA01CB0192
:1003E00019A2223008F42AE08E010F5D1F4F422E21
:1003F000512C612C712CBF01A30192010E94B90400
:10040000F901CA01015011096A3014F4605D01C09C
:10041000695CD8016C93232B242B252B61F7B80141
:10042000C7010E94C601A1960FB6F894DEBF0FBEA9
:10043000CDBFDF91CF911F910F91FF90EF907F90F3
:100440006F905F904F9008951F920F920FB60F928A
:1004500011242F933F934F935F936F937F938F93C9
:100460009F93AF93BF93EF93FF938BE491E00E9430
:10047000FD00FF91EF91BF91AF919F918F917F917F
:100480006F915F914F913F912F910F900FBE0F9001
:100490001F9018951F920F920FB60F9211242F9351
:1004A0008F939F93EF93FF93E0915B01F0915C0139
:1004B0008081E0916101F091620182FD12C0908122
:1004C000809164018F5F8F7320916501821751F0D5
:1004D000E0916401F0E0E55BFE4F958F809364014D
:1004E00001C08081FF91EF919F918F912F910F908B
:1004F0000FBE0F901F9018951F920F920FB60F927C
:1005000011242F933F938F939F93AF93BF93809129
:100510003D0190913E01A0913F01B0914001309189
:100520003C0123E0230F2D3720F40196A11DB11DBE
:1005300005C026E8230F0296A11DB11D20933C01A2
:1005400080933D0190933E01A0933F01B093400101
:100550008091380190913901A0913A01B0913B010D
:100560000196A11DB11D8093380190933901A0938C
:100570003A01B0933B01BF91AF919F918F913F9111
:100580002F910F900FBE0F901F901895EBE4F1E0A4
:100590001382128288EE93E0A0E0B0E0848395831A
:1005A000A683B78384E091E09183808385EC90E01B
:1005B0009587848784EC90E09787868780EC90E02D
:1005C000918B808B81EC90E0938B828B82EC90E01E
:1005D000958B848B86EC90E0978B868B118E128E98
:1005E000138E148EE8EEF1E01682178210861186C3
:1005F000128613861486158616861786108A118A27
:10060000128A138A148A158A0895789484B58260B0
:1006100084BD84B5816084BD85B5826085BD85B5A6
:10062000816085BD80916E00816080936E00109224
:10063000810080918100826080938100809181009F
:100640008160809381008091800081608093800030
:100650008091B10084608093B1008091B00081608E
:100660008093B00080917A00846080937A008091BA
:100670007A00826080937A0080917A008160809312
:100680007A0080917A00806880937A001092C1008D
:1006900010922C0210922D0210922E0210922F0214
:1006A0001092EA011092EB011092EC011092ED0110
:1006B00068EB7BE080E090E00E949D018BE491E09C
:1006C00090932B0280932A020E945F000E94910166
:1006D0006093EA017093EB018093EC019093ED013C
:1006E00062E171E080912A0290912B020E94C60182
:1006F0006AE070E080E090E00E949D0181E08093DC
:10070000FE010E945F0084EF882E99249394A12C0F
:10071000B12C0E949101672B682B692B41F40E9438
:100720009101623071058105910508F40BC10E94A9
:100730009101609347017093480180934901909320
:100740004A01C0904301D0904401E0904501F090EF
:1007500046016C157D058E059F0540F460934301AD
:10076000709344018093450190934601C0904301EA
:10077000D0904401E0904501F09046019B01AC010E
:100780002C193D094E095F0969017A013AEFC31638
:10079000D104E104F10408F4D5C0609343017093DF
:1007A000440180934501909346018092F601909216
:1007B000F701A092F801B092F9011092FA0110929B
:1007C000FB011092FC011092FD018091EE019091CD
:1007D000EF01A091F001B091F1018093F2019093AB
:1007E000F301A093F401B093F5010E94910160938D
:1007F000EE017093EF018093F0019093F1010E945C
:1008000091016093EA017093EB018093EC01909366
:10081000ED010E9491016B017C0164E271E0809125
:100820002A0290912B020E94C6012AE041E050E08A
:1008300060E070E080912A0290912B020E94DB011F
:100840006BE271E080912A0290912B020E94C60116
:100850002AE0B701A60180912A0290912B020E9402
:10086000DB016DE271E080912A0290912B020E94DF
:10087000C6018091EE019091EF01A091F001B0913D
:10088000F101B701A601481B590B6A0B7B0B2AE04B
:1008900080912A0290912B020E94DB016DE271E0AF
:1008A00080912A0290912B020E94C6014091EE0194
:1008B0005091EF016091F0017091F1018091F2018E
:1008C0009091F301A091F401B091F501481B590BEF
:1008D0006A0B7B0B2AE080912A0290912B020E94E6
:1008E000DB016FE271E080912A0290912B020E945D
:1008F000C6010E949101AB01BC012AE080912A024D
:1009000090912B020E94DB01E0902A02F0902B02D2
:1009100061E371E0C7010E94C60161E271E0C701B5
:100920000E94C60165E070E080E090E00E949D01B9
:100930000E9491016093EE017093EF018093F001AA
:100940009093F1018BE491E00E94E70018161906DC
:100950006CF48BE491E00E94C50080934101909378
:100960004201682F8BE491E00E941E010E948701E2
:10097000D0CEA1E21A2EAA1BBB1BFD010DC0AA1FDF
:10098000BB1FEE1FFF1FA217B307E407F50720F0F8
:10099000A21BB30BE40BF50B661F771F881F991F73
:1009A0001A9469F760957095809590959B01AC01BC
:1009B000BD01CF010895EE0FFF1F0590F491E02DCA
:1009C000099481E090E0F8940C94E604F894FFCF49
:1009D000000000001E018700B6006501E700C500A9
:1009E000D900564D4450565F317C315F564D4450CE
:1009F000560D0A00564D4450455F003A323A007C8D
:080A0000005F564D4450450013
:107E0000112484B714BE81FFF0D085E080938100F7
:107E100082E08093C00088E18093C10086E0809377
:107E2000C20080E18093C4008EE0C9D0259A86E02C
:107E300020E33CEF91E0309385002093840096BBD3
:107E4000B09BFECF1D9AA8958150A9F7CC24DD24C4
:107E500088248394B5E0AB2EA1E19A2EF3E0BF2EE7
:107E6000A2D0813461F49FD0082FAFD0023811F036
:107E7000013811F484E001C083E08DD089C08234E0
:107E800011F484E103C0853419F485E0A6D080C0E4
:107E9000853579F488D0E82EFF2485D0082F10E0AE
:107EA000102F00270E291F29000F111F8ED06801E7
:107EB0006FC0863521F484E090D080E0DECF843638
:107EC00009F040C070D06FD0082F6DD080E0C81688
:107ED00080E7D80618F4F601B7BEE895C0E0D1E017
:107EE00062D089930C17E1F7F0E0CF16F0E7DF06D8
:107EF00018F0F601B7BEE89568D007B600FCFDCFD4
:107F0000A601A0E0B1E02C9130E011968C91119780
:107F100090E0982F8827822B932B1296FA010C0160
:107F200087BEE89511244E5F5F4FF1E0A038BF0790
:107F300051F7F601A7BEE89507B600FCFDCF97BE46
:107F4000E89526C08437B1F42ED02DD0F82E2BD052
:107F50003CD0F601EF2C8F010F5F1F4F84911BD097
:107F6000EA94F801C1F70894C11CD11CFA94CF0C13
:107F7000D11C0EC0853739F428D08EE10CD085E9AC
:107F80000AD08FE07ACF813511F488E018D01DD067
:107F900080E101D065CF982F8091C00085FFFCCF94
:107FA0009093C60008958091C00087FFFCCF809118
:107FB000C00084FD01C0A8958091C6000895E0E648
:107FC000F0E098E1908380830895EDDF803219F02E
:107FD00088E0F5DFFFCF84E1DECF1F93182FE3DFCA
:107FE0001150E9F7F2DF1F91089580E0E8DFEE27F6
:047FF000FF270994CA
:027FFE00040479
:0400000300007E007B
:00000001FF