:100000000C9459000C9481000C9481000C94810094
:100010000C9481000C9481000C9481000C9481005C
:100020000C9481000C9481000C9481000C94E704E2
:100030000C9481000C9481000C9481000C9481003C
:100040000C9445040C9481000C94B5040C948F041A
:100050000C9481000C9481000C9481000C9481001C
:100060000C9481000C948100000000002500280001
:100070002B00040404040404040402020202020229
:10008000030303030303010204081020408001025C
:1000900004081020010204081020000000080002DB
:1000A0000100000304070000000000000000A80594
:1000B000B80711241FBECFEFD8E0DEBFCDBF11E0DF
:1000C000A0E0B1E0E6EEF2E102C005900D92A839A1
:1000D000B107D9F722E0A8E9B1E001C01D92A03D27
:1000E000B207E1F710E0C8E5D0E004C02197FE01B7
:1000F0000E945B09C735D107C9F70E946A060C94B4
:1001000066090C9400001F93CF93DF93182FC091C2
:10011000CF01D091D0018A3041F4E881F98101907A
:10012000F081E02D6DE0CE010995E881F981019023
:10013000F081E02D612FCE01099521E030E001979B
:1001400011F420E030E0C901DF91CF911F910895B3
:10015000CF93DF93C091CF01D091D001E881F98195
:100160000084F185E02DCE010995892BB9F3E88152
:10017000F9810284F385E02DCE01DF91CF910994BE
:10018000DC01ED91FC910190F081E02D0994CF927A
:10019000DF92EF92FF920F931F93CF93DF936C0147
:1001A0007A018B01C0E0D0E0CE15DF0589F0D801DF
:1001B0006D918D01D601ED91FC910190F081E02DC2
:1001C000C6010995892B11F47E0102C02196ECCF5E
:1001D000C701DF91CF911F910F91FF90EF90DF90BA
:1001E000CF900895089580E090E00895FC01538D2C
:1001F000448D252F30E0842F90E0821B930B541701
:1002000010F0CF96089501970895FC01918D828D8D
:10021000981761F0828DDF01A80FB11D5D968C915A
:10022000928D9F5F9F73928F90E008958FEF9FEF65
:100230000895FC01918D828D981731F0828DE80F21
:10024000F11D858D90E008958FEF9FEF0895FC01DB
:10025000918D228D892F90E0805C9F4F821B9109A8
:100260008F73992708958FEF91E00E94270121E075
:10027000892B09F420E0822F0895FC01848DDF0191
:10028000A80FB11DA35ABF4F2C91848D90E0019609
:100290008F739927848FA689B7892C93A089B189F8
:1002A0008C9180648C93938D848D981306C0028802
:1002B000F389E02D80818F7D80830895EF92FF92F6
:1002C0000F931F93CF93DF93EC0181E0888F9B8D79
:1002D0008C8D981305C0E889F989808185FD24C03B
:1002E000F62E0B8D10E00F5F1F4F0F731127E02EBE
:1002F0008C8DE8120CC00FB607FCFACFE889F9899B
:10030000808185FFF5CFCE010E943D01F1CF8B8D1D
:10031000FE01E80FF11DE35AFF4FF0820B8FEA89CF
:10032000FB898081806207C0EE89FF896083E8894C
:10033000F98980818064808381E090E0DF91CF91B2
:100340001F910F91FF90EF900895CF93DF93EC01F1
:10035000888D8823C9F0EA89FB89808185FD05C0E5
:10036000A889B9898C9186FD0FC00FB607FCF5CF1F
:10037000808185FFF2CFA889B9898C9185FFEDCF67
:10038000CE010E943D01E7CFDF91CF91089580E03B
:1003900090E0892B29F00E94330181110C94000018
:1003A000089590E0FC01E656FF4F3491FC01EA57B6
:1003B000FF4F2491FC01EE58FF4FE491EE2309F426
:1003C0003BC0332339F1333091F038F43130A9F0A8
:1003D000323001F584B58F7D12C0373091F038305E
:1003E000A1F03430B9F4809180008F7D03C08091FA
:1003F00080008F77809380000DC084B58F7784BD97
:1004000009C08091B0008F7703C08091B0008F7DCC
:100410008093B000F0E0EE0FFF1FE859FF4FA59169
:10042000B4918FB7F894EC91611103C020952E23FD
:1004300001C02E2B2C938FBF0895CB0108957F927E
:100440008F929F92AF92BF92CF92DF92EF92FF92E4
:100450000F931F93CF93DF93EC0149015A018B0156
:10046000C12CD12C7601C814D904EA04FB0484F50C
:10047000F80171908F018F8580FF0BC0E881F981B1
:100480000084F185E02D20E144E060E070E0CE01E1
:100490000995EB85FC858D859E85E817F90738F46D
:1004A00070828B859C8501969C878B870BC0E88129
:1004B000F981672D70E0028CF38DE02DCE01099556
:1004C000019649F02FEFC21AD20AE20AF20ACBCF04
:1004D000B401C50102C0B601C701DF91CF911F91E0
:1004E0000F91FF90EF90DF90CF90BF90AF909F90D3
:1004F0008F907F900895CF93DF93EC01E881F9818D
:100500000288F389E02D09958F3F2FEF920731F094
:100510002D813E812F5F3F4F3E832D83DF91CF9111
:1005200008958FEF9FEF089560E070E0CB0108958C
:1005300080E090E008950F931F93CF93DF938C0199
:10054000EB016F3F8FEF780719F480E090E00FC068
:100550006A3031F46DE0F801808991890E94C00011
:100560006C2FF801808991890E94C000CE01DF9133
:10057000CF911F910F9108958F929F92BF92CF922A
:10058000DF92EF92FF920F931F93CF93DF9300D0F0
:1005900000D0CDB7DEB78C014B01C12CD12C760138
:1005A000C216D306E406F50644F5F401B1904F01F6
:1005B000FAE0BF120EC06DE0F801808991892983AD
:1005C0003A834B835C830E94C0005C814B813A81FB
:1005D00029816B2DF8018089918929833A834B8386
:1005E0005C830E94C000FFEFCF1ADF0AEF0AFF0A08
:1005F0005C814B813A812981D3CFCA01B9010F9027
:100600000F900F900F90DF91CF911F910F91FF905E
:10061000EF90DF90CF90BF909F908F900895CB0187
:100620000895CF93DF93EC0188899989DC01ED91DE
:10063000FC910084F185E02D0995892BA9F3888927
:100640009989DC01ED91FC910284F385E02DDF9125
:10065000CF910994CF93DF93EC0188899989DC01CC
:10066000ED91FC910084F185E02D0995892BA9F38A
:1006700088899989DC01ED91FC910484F585E02D50
:10068000DF91CF910994AF92BF92CF92DF92EF9218
:10069000FF920F931F93CF93DF9300D000D0CDB77D
:1006A000DEB78C015B01C12CD12C7601F801808969
:1006B0009189DC01ED91FC910284F385E02D298381
:1006C0003A834B835C83099529813A814B815C8114
:1006D0008F3F71F0C216D306E406F5064CF4D5013F
:1006E0008D935D01BFEFCB1ADB0AEB0AFB0ADECF6D
:1006F000C701B6010F900F900F900F90DF91CF912F
:100700001F910F91FF90EF90DF90CF90BF90AF902F
:100710000895DC0150968D919C915197DC01ED91EB
:10072000FC910084F185E02D099480E090E008952B
:1007300080E090E0089580E090E0089580E090E00F
:10074000089508950895089508950E9461090C94EC
:10075000BC08089508950C94BC08DC01ED91FC914F
:10076000369720813181820F931F0C94AB03FB01DC
:1007700020813181FC0131832083FB01428153813F
:10078000F901369720813181FC01E20FF31F51837B
:100790004083089526E431E0FC013183208320E585
:1007A00031E0318F208F66E571E00C94B703DC01F6
:1007B000ED91FC91369720813181820F931F0C942B
:1007C000CA03CF93DF93EC010E94CA03CE01DF91ED
:1007D000CF910C94BC08DC01ED91FC9136972081FF
:1007E0003181820F931F0C94E1030C94BC0808958F
:1007F00008950C94BC08DC01ED91FC9136972081A2
:100800003181820F931F0C94F903FB012081318108
:10081000FC0131832083FB0142815381F90136972A
:1008200020813181FC01E20FF31F51834083089541
:1008300022E831E0FC01318320832CE831E0358B64
:10084000248B62E971E00C940504DC01ED91FC91CC
:10085000369720813181820F931F0C941804CF9317
:10086000DF93EC010E941804CE01DF91CF910C942C
:10087000BC08DC01ED91FC91369720813181820F1B
:10088000931F0C942F040C94BC081F920F920FB668
:100890000F9211242F933F938F939F93AF93BF9306
:1008A0008091CB019091CC01A091CD01B091CE016E
:1008B0003091CA0123E0230F2D3720F40196A11DAA
:1008C000B11D05C026E8230F0296A11DB11D20937E
:1008D000CA018093CB019093CC01A093CD01B0933A
:1008E000CE018091C6019091C701A091C801B0913D
:1008F000C9010196A11DB11D8093C6019093C70146
:10090000A093C801B093C901BF91AF919F918F91FE
:100910003F912F910F900FBE0F901F9018951F922F
:100920000F920FB60F9211242F933F934F935F9323
:100930006F937F938F939F93AF93BF93EF93FF93A7
:100940008FEF91E00E943D01FF91EF91BF91AF9138
:100950009F918F917F916F915F914F913F912F91D7
:100960000F900FBE0F901F9018951F920F920FB609
:100970000F9211242F938F939F93EF93FF93E09106
:100980000F02F09110028081E0911502F0911602A1
:1009900082FD12C09081809118028F5F8F73209129
:1009A0001902821751F0E0911802F0E0E150FE4F79
:1009B000958F8093180201C08081FF91EF919F91E4
:1009C0008F912F910F900FBE0F901F9018951F922F
:1009D0000F920FB60F9211242F933F934F935F9373
:1009E0006F937F938F939F93AF93BF93EF93FF93F7
:1009F0008091980187FF05C01092850010928400B5
:100A00001BC020919801022E000C330B8091BD0178
:100A100090E02817390784F480919801082E000C83
:100A2000990BFC01EE0FFF1F8E0F9F1FFC01E75675
:100A3000FE4F808186FD15C0809198018F5F809365
:100A4000980120919801022E000C330B8091BD017A
:100A500090E028173907C4F4809198018C3064F134
:100A600013C080919801082E000C990BFC01EE0F29
:100A7000FF1F8E0F9F1FFC01E756FE4F808160E035
:100A80008F730E94D101D8CF80918400909185000E
:100A9000049680349C4918F480E49CE905C0809158
:100AA000840090918500049690938900809388003B
:100AB0008FEF809398013BC0209184003091850096
:100AC00080919801082E000C990BFC01EE0FFF1F7E
:100AD0008E0F9F1FFC01E756FE4F81819281820F8E
:100AE000931F909389008093880080919801082E2D
:100AF000000C990BFC01EE0FFF1F8E0F9F1FFC01D6
:100B0000E756FE4F808186FF12C080919801082E23
:100B1000000C990BFC01EE0FFF1F8E0F9F1FFC01B5
:100B2000E756FE4F808161E08F730E94D101FF91F3
:100B3000EF91BF91AF919F918F917F916F915F9155
:100B40004F913F912F910F900FBE0F901F901895CE
:100B5000CF93DF93AFEFB1E013961C921E921297E2
:100B600048EE53E060E070E014964D935D936D9312
:100B70007C93179782E391E011969C938E9385EC7A
:100B800090E01D969C938E931C9784EC90E01F96AA
:100B90009C938E931E9780EC90E051969C938E933D
:100BA000509781EC90E053969C938E93529782ECF1
:100BB00090E055969C938E93549786EC90E05796D0
:100BC0009C938E93569759961C9259975A961C92BD
:100BD0005A975B961C925B975C961C925C97ECE92B
:100BE000F2E0C1E2D0E0D08FC78B118E128E138E4F
:100BF00046E050E060E070E0448F558F668F778F5D
:100C000010A211A212A213A220E224A316A215A2DE
:100C100011A68EE992E090A787A382E891E09183E4
:100C200080838CE891E0958B848B168215821086E8
:100C30001782128611861486138616861586108AE8
:100C4000178680E691E093838283B38BA28B30E199
:100C5000318BE1EDF1E0D48FC38F158E168E178E98
:100C600040A351A362A373A314A215A216A217A2B4
:100C700020A712A611A615A612821382148215822D
:100C800027ED31E034A723A726E431E03183208328
:100C900020E531E0318F208F12861186148613866D
:100CA00016861586108A1786128A118A148A138A64
:100CB00097838683B78BA68B88E0858BB093D00112
:100CC000A093CF0168EA70E083E890E0DF91CF91D4
:100CD0000C94C007789484B5826084BD84B581602B
:100CE00084BD85B5826085BD85B5816085BD8091F7
:100CF0006E00816080936E0010928100809181006F
:100D00008260809381008091810081608093810066
:100D1000809180008160809380008091B100846028
:100D20008093B1008091B00081608093B000809189
:100D30007A00846080937A0080917A008260809348
:100D40007A0080917A00816080937A0080917A00A5
:100D5000806880937A001092C100E0910F02F091B8
:100D6000100282E08083E0910B02F0910C0210826D
:100D7000E0910D02F0910E028FEC80831092170229
:100D8000E0911302F091140286E08083E091110259
:100D9000F0911202808180618083E0911102F091D4
:100DA0001202808188608083E0911102F09112022A
:100DB000808180688083E0911102F091120280812D
:100DC0008F7D808389E090E00E942708EC0183E01A
:100DD00090E09983888388E090E09D838C831F82D4
:100DE0001E8280E190E00E9427089B838A83C12CA9
:100DF000D12C55245A94B8EB6B2EBBE07B2E888106
:100E00009981C816D9060CF074C085E090E00E9464
:100E100027087C01FC01118210828091BD018C3079
:100E200088F491E0980F9093BD01828390E0FC01DB
:100E3000EE0FFF1F8E0F9F1FFC01E756FE4F7282C1
:100E4000618202C0F7015282AE80BF8085010F5FD0
:100E50001F4FA016B10608F043C02C813D8120171A
:100E6000310750F5C50109962817390728F58A80FA
:100E70009B809D838C83880F991F0E9427089B83EA
:100E80008A83D40140E050E04A155B0591F0EA8185
:100E9000FB819A01220F331FE20FF31F309729F0D5
:100EA0008D919C911197918380834F5F5F4F129634
:100EB000EBCFC4010E94BC088E819F819C01220F50
:100EC000331F8017910778F4EA81FB81E20FF31F4B
:100ED000309711F0F182E08201962E5F3F4FF1CF03
:100EE0000A151B0510F41F830E83FFEFCF1ADF0ACC
:100EF00086CFD093C101C093C0018FEF91E00E94D3
:100F0000270102971CF18FEF91E00E940501EC018F
:100F10009093C5018093C4018FEF91E00E94050179
:100F20009093C3018093C201E091C001F091C1018F
:100F300020813181C217D30764F4E091BE01F091A2
:100F4000BF0160818FEF91E00E945E010E94C701A6
:100F5000D4CFCC0FDD1F22813381C20FD31FE88194
:100F6000F981F093BF01E093BE0191838083E5CFC7
:100F700081ED91E00E94CA038CE992E00C94180480
:100F80000F931F93CF93DF93009731F46115710591
:100F900019F480E090E03AC08B01EC016EE070E063
:100FA00081E090E00E940B08FC01892B91F380E81E
:100FB00083830115110571F01387028781E883830C
:100FC0008091C6029091C702892B21F4F093C70249
:100FD000E093C6022097C9F0D187C08783818260E1
:100FE00083838091C8029091C902892B71F4F09398
:100FF000C902E093C8028091CA029091CB02892B6A
:1010000021F4F093CB02E093CA02CF01DF91CF919C
:101010001F910F9108950F931F93CF93DF93869F96
:101020008001879F100D969F100D1124C8010E940A
:101030002708EC01009729F0A80160E070E00E9409
:101040005409CE01DF91CF911F910F910895CF9355
:10105000DF938230910510F482E090E0E091CE02BF
:10106000F091CF0220E030E0C0E0D0E0309711F105
:101070004081518148175907C0F04817590761F45A
:1010800082819381209719F09B838A832BC0909350
:10109000CF028093CE0226C02115310519F04217E8
:1010A000530718F49A01BE01DF01EF010280F381BA
:1010B000E02DDCCF2115310509F1281B390B243037
:1010C000310590F412968D919C91139761157105DD
:1010D00021F0FB019383828304C09093CF0280931D
:1010E000CE02FD01329644C0FD01E20FF31F819351
:1010F0009193225031092D933C933AC02091CC0218
:101100003091CD02232B41F4209102013091030153
:101110003093CD022093CC02209100013091010147
:101120002115310541F42DB73EB74091040150918E
:101130000501241B350BE091CC02F091CD02E217A2
:10114000F307A0F42E1B3F0B2817390778F0AC01EA
:101150004E5F5F4F2417350748F04E0F5F1F5093C7
:10116000CD024093CC028193919302C0E0E0F0E085
:10117000CF01DF91CF9108950F931F93CF93DF930A
:10118000009709F48CC0FC013297138212820091FF
:10119000CE021091CF020115110581F42081318119
:1011A000820F931F2091CC023091CD02281739076E
:1011B00079F5F093CD02E093CC0271C0D80140E004
:1011C00050E0AE17BF0750F412962D913C91139743
:1011D000AD012115310509F1D901F3CF9D01DA01E6
:1011E0003383228360817181860F971F8217930753
:1011F00069F4EC0128813981260F371F2E5F3F4F9C
:10120000318320838A819B8193838283452B29F4B8
:10121000F093CF02E093CE0242C01396FC93EE937C
:101220001297ED01499159919E01240F351FE21744
:10123000F30771F480819181840F951F02961196B6
:101240009C938E938281938113969C938E93129795
:10125000E0E0F0E0D80112968D919C9113970097F1
:1012600019F0F8018C01F6CF8D919C9198012E5FB9
:101270003F4F820F931F2091CC023091CD0228174F
:10128000390769F4309729F41092CF021092CE02F8
:1012900002C0138212821093CD020093CC02DF9120
:1012A000CF911F910F910895DC0101C06D934150C2
:1012B0005040E0F70895EE0FFF1F0590F491E02DE8
:1012C000099481E090E0F8940C94660910E0C8E578
:1012D000D0E004C0FE010E945B092196C935D10708
:0612E000C9F7F894FFCFEE
:1012E6000000D0028000180000000000000000008E
:1012F600E8FFE8FF00000000000014000000000006
:1013060000000000ECFFECFF000000000000000001
:1013160000005E01C700F600A501270105011901BD
:10132600180000000000CA03E103E8FFE8FF000020
:10133600D703EB0346010C01160150010000000023
:10134600A303F503A1039E039B0398039503890357
:1013560043032A0311030F03BC029B02140000007F
:10136600000018042F04ECFFECFF000025043904EC
:08137600820120012A018C0113
:107E0000112484B714BE81FFF0D085E080938100F7
:107E100082E08093C00088E18093C10086E0809377
:107E2000C20080E18093C4008EE0C9D0259A86E02C
:107E300020E33CEF91E0309385002093840096BBD3
:107E4000B09BFECF1D9AA8958150A9F7CC24DD24C4
:107E500088248394B5E0AB2EA1E19A2EF3E0BF2EE7
:107E6000A2D0813461F49FD0082FAFD0023811F036
:107E7000013811F484E001C083E08DD089C08234E0
:107E800011F484E103C0853419F485E0A6D080C0E4
:107E9000853579F488D0E82EFF2485D0082F10E0AE
:107EA000102F00270E291F29000F111F8ED06801E7
:107EB0006FC0863521F484E090D080E0DECF843638
:107EC00009F040C070D06FD0082F6DD080E0C81688
:107ED00080E7D80618F4F601B7BEE895C0E0D1E017
:107EE00062D089930C17E1F7F0E0CF16F0E7DF06D8
:107EF00018F0F601B7BEE89568D007B600FCFDCFD4
:107F0000A601A0E0B1E02C9130E011968C91119780
:107F100090E0982F8827822B932B1296FA010C0160
:107F200087BEE89511244E5F5F4FF1E0A038BF0790
:107F300051F7F601A7BEE89507B600FCFDCF97BE46
:107F4000E89526C08437B1F42ED02DD0F82E2BD052
:107F50003CD0F601EF2C8F010F5F1F4F84911BD097
:107F6000EA94F801C1F70894C11CD11CFA94CF0C13
:107F7000D11C0EC0853739F428D08EE10CD085E9AC
:107F80000AD08FE07ACF813511F488E018D01DD067
:107F900080E101D065CF982F8091C00085FFFCCF94
:107FA0009093C60008958091C00087FFFCCF809118
:107FB000C00084FD01C0A8958091C6000895E0E648
:107FC000F0E098E1908380830895EDDF803219F02E
:107FD00088E0F5DFFFCF84E1DECF1F93182FE3DFCA
:107FE0001150E9F7F2DF1F91089580E0E8DFEE27F6
:047FF000FF270994CA
:027FFE00040479
:0400000300007E007B
:00000001FF