:100000000C945E000C9486000C9486000C94860080
:100010000C9486000C9486000C9486000C94860048
:100020000C9486000C9486000C9486000C9429068F
:100030000C9486000C9486000C9486000C94860028
:100040000C94C8010C9486000C943F020C94190285
:100050000C9486000C9486000C9486000C94860008
:100060000C9486000C9486000000000024002700F9
:100070002A0000000000250028002B0004040404CE
:100080000404040402020202020203030303030342
:10009000010204081020408001020408102001021F
:1000A00004081020000000080002010000030407FB
:1000B0000000000000000000EA06330A11241FBE01
:1000C000CFEFD8E0DEBFCDBF11E0A0E0B1E0E4E5C6
:1000D000FBE102C005900D92AA3EB107D9F723E0DB
:1000E000AAEEB1E001C01D92A232B207E1F710E022
:1000F000CDE5D0E004C02197FE010E94B80CCC35BC
:10010000D107C9F70E94AC070C949D0D0C94000018
:100110002FB7F8948091130390911403A0911503C5
:10012000B09116032FBF8093470290934802A0938B
:100130004902B0934A02E0913F02F09140020284EA
:10014000F385E02D8FE392E0099597FF26C02FB746
:10015000F8948091130390911403A0911503B0912A
:1001600016032FBF40914702509148026091490207
:1001700070914A02841B950BA60BB70B409143026A
:100180005091440260914502709146028417950790
:10019000A607B70780F28FEF9FEF0895CF92DF9207
:1001A000EF92FF920F931F93CF93DF936C017A012D
:1001B0008B01C0E0D0E0CE15DF0589F0D8016D914C
:1001C0008D01D601ED91FC910190F081E02DC601E9
:1001D0000995892B11F47E0102C02196ECCFC7014D
:1001E000DF91CF911F910F91FF90EF90DF90CF9013
:1001F0000895089580E090E008958FE392E00E94D2
:10020000A20221E0892B09F420E0822F08958F9229
:100210009F92AF92BF920F931F93CF93DF93CDB76F
:10022000DEB7A1970FB6F894DEBF0FBECDBF19A2FF
:10023000423008F44AE08E010F5D1F4F842E912C4E
:10024000A12CB12CA50194010E947B0CE62FB901D1
:10025000CA0101501109EA3014F4E05D01C0E95C03
:10026000D801EC93232B242B252B61F701151105C5
:1002700071F0F80101900020E9F73197AF01401BC0
:10028000510BB8018FE392E00E94CE0002C080E0E3
:1002900090E0A1960FB6F894DEBF0FBECDBFDF9100
:1002A000CF911F910F91BF90AF909F908F90089525
:1002B0000E94880D0F931F93CF93DF93EC018881E9
:1002C0009981009729F02A813B812617370788F406
:1002D0008B016F5F7F4F0E94BE0C009761F0998386
:1002E00088831B830A832C813D81232B11F4FC011D
:1002F000108281E001C080E0DF91CF911F910F91CA
:100300000895EF92FF920F931F93CF93DF93EC0129
:1003100081E0888F9B8D8C8D981305C0E889F989C1
:10032000808185FD24C0F62E0B8D10E00F5F1F4FDE
:100330000F731127E02E8C8DE8120CC00FB607FC4E
:10034000FACFE889F989808185FFF5CFCE010E9437
:100350006405F1CF8B8DFE01E80FF11DE35AFF4FCD
:10036000F0820B8FEA89FB898081806207C0EE8969
:10037000FF896083E889F98980818064808381E0D6
:1003800090E0DF91CF911F910F91FF90EF90089532
:100390001F920F920FB60F9211242F933F938F93BA
:1003A0009F93AF93BF938091130390911403A091F7
:1003B0001503B09116033091120323E0230F2D375C
:1003C00020F40196A11DB11D05C026E8230F029659
:1003D000A11DB11D20931203809313039093140366
:1003E000A0931503B093160380910E0390910F0311
:1003F000A0911003B09111030196A11DB11D80932E
:100400000E0390930F03A0931003B0931103BF91B9
:10041000AF919F918F913F912F910F900FBE0F90B1
:100420001F901895DC01ED91FC910190F081E02D79
:1004300009941F920F920FB60F9211242F933F939E
:100440004F935F936F937F938F939F93AF93BF93DC
:10045000EF93FF938FE392E00E946405FF91EF9189
:10046000BF91AF919F918F917F916F915F914F91CC
:100470003F912F910F900FBE0F901F9018951F92D4
:100480000F920FB60F9211242F938F939F93EF9398
:10049000FF93E0914F02F09150028081E09155026C
:1004A000F091560282FD12C09081809158028F5FB8
:1004B0008F7320915902821751F0E0915802F0E0B9
:1004C000E15CFD4F958F8093580201C08081FF91C0
:1004D000EF919F918F912F910F900FBE0F901F90D2
:1004E0001895FC01538D448D252F30E0842F90E02A
:1004F000821B930B541710F0CF960895019708951F
:10050000FC01918D828D981761F0828DDF01A80F1B
:10051000B11D5D968C91928D9F5F9F73928F90E03D
:1005200008958FEF9FEF0895FC01918D828D9817AC
:1005300031F0828DE80FF11D858D90E008958FEFE9
:100540009FEF0895FC01918D228D892F90E0805CB2
:100550009F4F821B91098F739927089580E090E047
:10056000892B29F00E94FD0081110C940000089550
:1005700090E0FC01EC55FF4F3491FC01E057FF4F38
:100580002491FC01E458FF4FE491EE2309F43BC0B1
:10059000332339F1333091F038F43130A9F032306F
:1005A00001F584B58F7D12C0373091F03830A1F05D
:1005B0003430B9F4809180008F7D03C08091800039
:1005C0008F77809380000DC084B58F7784BD09C07C
:1005D0008091B0008F7703C08091B0008F7D8093B1
:1005E000B000F0E0EE0FFF1FEE58FF4FA591B49161
:1005F0008FB7F894EC91611103C020952E2301C0B0
:100600002E2B2C938FBF0895CB0108957F928F924C
:100610009F92AF92BF92CF92DF92EF92FF920F9391
:100620001F93CF93DF93EC0149015A018B01C12C39
:10063000D12C7601C814D904EA04FB0484F5F8012E
:1006400071908F018F8580FF0BC0E881F981008454
:10065000F185E02D20E144E060E070E0CE010995F5
:10066000EB85FC858D859E85E817F90738F4708247
:100670008B859C8501969C878B870BC0E881F981CF
:10068000672D70E0028CF38DE02DCE010995019667
:1006900049F02FEFC21AD20AE20AF20ACBCFB40114
:1006A000C50102C0B601C701DF91CF911F910F9123
:1006B000FF90EF90DF90CF90BF90AF909F908F9082
:1006C0007F900895CF93DF93EC01E881F981028850
:1006D000F389E02D09958F3F2FEF920731F02D819F
:1006E0003E812F5F3F4F3E832D83DF91CF91089551
:1006F0008FEF9FEF089560E070E0CB01089580E0F8
:1007000090E00895CB010895CF93DF93EC018889A1
:100710009989DC01ED91FC910084F185E02D09952A
:10072000892BA9F388899989DC01ED91FC910284D8
:10073000F385E02DDF91CF910994CF93DF93EC0106
:1007400088899989DC01ED91FC910084F185E02D87
:100750000995892BA9F388899989DC01ED91FC9190
:100760000484F585E02DDF91CF910994AF92BF927B
:10077000CF92DF92EF92FF920F931F93CF93DF936D
:1007800000D000D0CDB7DEB78C015B01C12CD12CDD
:100790007601F80180899189DC01ED91FC91028458
:1007A000F385E02D29833A834B835C830995298166
:1007B0003A814B815C818F3F71F0C216D306E4060B
:1007C000F5064CF4D5018D935D01BFEFCB1ADB0A22
:1007D000EB0AFB0ADECFC701B6010F900F900F9016
:1007E0000F90DF91CF911F910F91FF90EF90DF90CD
:1007F000CF90BF90AF900895DC0150968D919C9161
:100800005197DC01ED91FC910084F185E02D099474
:1008100080E090E0089580E090E0089580E090E02E
:10082000089580E090E008950895CF93DF93C091FC
:100830000F02D0911002E881F9810084F185E02D4A
:10084000CE010995892BB9F3E881F9810284F385FA
:10085000E02DCE01DF91CF9109941F93CF93DF93C9
:10086000182FC0910F02D09110028A3041F4E88114
:10087000F9810190F081E02D6DE0CE010995E881CC
:10088000F9810190F081E02D612FCE01099521E0E1
:1008900030E0019711F420E030E0C901DF91CF9101
:1008A0001F9108950F931F93CF93DF938C01EB015A
:1008B0006F3F8FEF780719F480E090E00FC06A3047
:1008C00031F46DE0F801808991890E9412026C2F49
:1008D000F801808991890E941202CE01DF91CF91A7
:1008E0001F910F9108958F929F92BF92CF92DF92A6
:1008F000EF92FF920F931F93CF93DF9300D000D01E
:10090000CDB7DEB78C014B01C12CD12C7601C216BC
:10091000D306E406F50644F5F401B1904F01FAE080
:10092000BF120EC06DE0F8018089918929833A8356
:100930004B835C830E9412025C814B813A81298146
:100940006B2DF8018089918929833A834B835C83DD
:100950000E941202FFEFCF1ADF0AEF0AFF0A5C8142
:100960004B813A812981D3CFCA01B9010F900F90F1
:100970000F900F90DF91CF911F910F91FF90EF900B
:10098000DF90CF90BF909F908F9008950C94730B41
:10099000089508950C94730BDC01ED91FC9136974A
:1009A00020813181820F931F0C94CA04FB012081A6
:1009B0003181FC0131832083FB0142815381F901A4
:1009C000369720813181FC01E20FF31F5183408370
:1009D00008952AE531E0FC013183208324E631E0EB
:1009E000318F208F6AE671E00C94D604DC01ED9122
:1009F000FC91369720813181820F931F0C94E9047A
:100A0000CF93DF93EC010E94E904CE01DF91CF91F7
:100A10000C94730BDC01ED91FC91369720813181B0
:100A2000820F931F0C9400050C94730B0895089586
:100A30000C94730BDC01ED91FC9136972081318190
:100A4000820F931F0C941805FB0120813181FC015A
:100A500031832083FB0142815381F9013697208144
:100A60003181FC01E20FF31F51834083089522ED91
:100A700031E0FC01318320832CED31E0358B248B78
:100A800062EE71E00C942405DC01ED91FC91369747
:100A900020813181820F931F0C943705CF93DF9310
:100AA000EC010E943705CE01DF91CF910C94730BBE
:100AB000DC01ED91FC91369720813181820F931FEB
:100AC0000C944E050C94730BFC01848DDF01A80F70
:100AD000B11DA35ABF4F2C91848D90E001968F7366
:100AE0009927848FA689B7892C93A089B1898C9185
:100AF00080648C93938D848D981306C00288F3894B
:100B0000E02D80818F7D80830895CF93DF93EC016A
:100B1000888D8823C9F0EA89FB89808185FD05C01D
:100B2000A889B9898C9186FD0FC00FB607FCF5CF57
:100B3000808185FFF2CFA889B9898C9185FFEDCF9F
:100B4000CE010E946405E7CFDF91CF910895CF9346
:100B5000DF93DC0111967C936E9314968C9114971D
:100B60008C3008F070C09B013327F901E057FF4F2C
:100B70008491F901E458FF4F2491222399F030E049
:100B8000220F331FF901E859FF4FC591D491F901A4
:100B9000EE58FF4F259134919FB7F894E881E82BE8
:100BA000E8839FBF14968C911497E82FF0E09F0183
:100BB000220F331FE20FF31FE551FE4F6F73908139
:100BC000907C692B608315961C92159716961C9243
:100BD00016976CE00E94AC0C9CE0899FB001112438
:100BE00040E050E09A01260F371FF901EE0FFF1F7A
:100BF0002E0F3F1FF901E551FE4F908196FD16C063
:100C00004F5F5F4F4C30510569F781110FC0109253
:100C1000800082E080938100109285001092840011
:100C2000B19A80916F00826080936F001496EC916E
:100C3000F0E0CF01880F991FE80FF91FE551FE4F33
:100C4000808180648083DF91CF9108950895089515
:100C500008951F920F920FB60F9211242F933F9376
:100C60004F935F936F937F938F939F93AF93BF93B4
:100C7000EF93FF938091170387FF05C010928500C3
:100C8000109284001BC020911703022E000C330B1E
:100C90008091EA0190E02817390784F480911703C6
:100CA000082E000C990BFC01EE0FFF1F8E0F9F1FEB
:100CB000FC01E551FE4F808186FD15C08091170330
:100CC0008F5F8093170320911703022E000C330BC4
:100CD0008091EA0190E028173907C4F48091170346
:100CE0008C3064F113C080911703082E000C990B0F
:100CF000FC01EE0FFF1F8E0F9F1FFC01E551FE4F01
:100D0000808160E08F730E94B802D8CF8091840008
:100D100090918500049680349C4918F480E49CE905
:100D200005C080918400909185000496909389007D
:100D3000809388008FEF809317033BC0209184003D
:100D40003091850080911703082E000C990BFC014F
:100D5000EE0FFF1F8E0F9F1FFC01E551FE4F81819B
:100D60009281820F931F90938900809388008091D5
:100D70001703082E000C990BFC01EE0FFF1F8E0FBE
:100D80009F1FFC01E551FE4F808186FF12C08091BC
:100D90001703082E000C990BFC01EE0FFF1F8E0F9E
:100DA0009F1FFC01E551FE4F808161E08F730E941F
:100DB000B802FF91EF91BF91AF919F918F917F9179
:100DC0006F915F914F913F912F910F900FBE0F90B8
:100DD0001F901895CF93DF93AFE3B2E013961C9268
:100DE0001E92129748EE53E060E070E014964D9327
:100DF0005D936D937C93179782E391E011969C939A
:100E00008E9385EC90E01D969C938E931C9784ECBA
:100E100090E01F969C938E931E9780EC90E05196E5
:100E20009C938E93509781EC90E053969C938E9375
:100E3000529782EC90E055969C938E93549786EC53
:100E400090E057969C938E93569759961C9259977B
:100E50005A961C925A975B961C925B975C961C92D2
:100E60005C97ECEDF2E0C1E2D0E0D08FC78B118E41
:100E7000128E138E46E050E060E070E0448F558F94
:100E8000668F778F10A211A212A213A220E224A3D0
:100E900016A215A211A68EED92E090A787A382ED6F
:100EA00091E0918380838CED91E0958B848B168209
:100EB000158210861782128611861486138616866E
:100EC0001586108A178680EB91E093838283B38B1B
:100ED000A28B30E1318BE1E1F2E0D48FC38F158E2C
:100EE000168E178E40A351A362A373A314A215A25A
:100EF00016A217A220A712A611A615A61282138267
:100F00001482158227E132E034A723A72AE531E0D5
:100F10003183208324E631E0318F208F12861186C1
:100F20001486138616861586108A1786128A118AE9
:100F3000148A138A97838683B78BA68B88E0858B68
:100F4000B0931002A0930F0265E174E08DE294E08B
:100F5000DF91CF910C94770ACF93DF93CDB7DEB7B3
:100F600029970FB6F894DEBF0FBECDBF789484B535
:100F7000826084BD84B5816084BD85B5826085BD95
:100F800085B5816085BD80916E00816080936E0023
:100F90001092810080918100826080938100809115
:100FA00081008160809381008091800081608093C6
:100FB00080008091B10084608093B1008091B00086
:100FC00081608093B00080917A00846080937A0081
:100FD00080917A00826080937A0080917A008160AB
:100FE00080937A0080917A00806880937A001092D2
:100FF000C100E0914F02F091500282E08083E091C5
:101000004B02F0914C021082E0914D02F0914E02A1
:101010008FEC808310925702E0915302F0915402BA
:1010200086E08083E0915102F091520280818061DC
:101030008083E0915102F091520280818860808328
:10104000E0915102F0915202808180688083E091AA
:101050005102F091520280818F7D808389E090E07F
:101060000E94DE0A8C0183E090E0D80111969C93E7
:101070008E9388E090E015969C938E931497179624
:101080001C921E92169780E190E00E94DE0AF80101
:1010900093838283C12CD12C33243A94B8EB4B2E0A
:1010A000BBE05B2EF80180819181C816D9060CF057
:1010B0008EC087E090E00E94DE0A5C01DC0113969E
:1010C000DC92CE9212978091EA018C3090F491E0FC
:1010D000980F9093EA0114968C9390E0FC01EE0F28
:1010E000FF1F8E0F9F1FFC01E551FE4F5282418270
:1010F00002C0F5013482D80116968D909C90179706
:101100007401BFEFEB1AFB0A8E149F0408F053C062
:10111000F801248135812E153F0578F5C401099623
:101120002817390750F56280738095838483880F70
:10113000991F0E94DE0AD80113969C938E931297F2
:10114000D30140E050E048155905A1F0F801828133
:1011500093819A01220F331FFC01E20FF31F309796
:1011600029F08D919C911197918380834F5F5F4F00
:101170001296E9CFC3010E94730BD80116968D9188
:101180009C9117979C01220F331F8E159F0578F4B1
:10119000D8011296ED91FC911397E20FF31F30974F
:1011A00011F0B182A08201962E5F3F4FEECFF80181
:1011B000F782E68208C0E814F90428F4D8011796EB
:1011C000FC92EE921697BFEFCB1ADB0A6BCF10930F
:1011D0000903009308030280F381E02D69E070E0C9
:1011E000808191810E94A705D8011296ED91FC9112
:1011F00013976AE070E0828193810E94A705D8016D
:101200001296ED91FC9113976BE070E084819581CB
:101210000E94A70578E5272E72E0372EE4EB4E2ECC
:10122000512C612C712C8FE392E00E94A202029754
:101230000CF4C1C08FE392E00E948002C0979093AB
:101240000D0380930C031A8219821C821B821E825A
:101250001D8260E070E0CE0101960E945A01298152
:101260003A8181110DC02115310519F0C9010E9483
:10127000730B1A8219821E821D821C821B8222C05D
:101280001E821D8268EE71E0C9010E94960D1AC08F
:101290008F8318860D811E810F5F1F4FB801CE010D
:1012A00001960E945A01882369F029813A818D8133
:1012B0009E81BE01695F7F4F820F931F0E94960D32
:1012C0001E830D830E94880097FFE2CF09811A8157
:1012D0000115110531F0C8010E943B0A6B017C0128
:1012E00003C0C12CD12C76014601D0920B03C092D1
:1012F0000A03C8010E94730B80910C0390910D03A7
:10130000E0910803F091090320813181821793074E
:101310000CF051C097FD4FC025EBC216D10408F068
:101320004AC0880F991F22813381F901E80FF91F04
:101330000190F081E02DF0930703E0930603D38240
:10134000C28296818581B481B987BC30B8F1609141
:101350000C0370910D036B01770FEE08FF08F7FE89
:101360007AC06DE28FE392E00E941202662777272F
:10137000CB016C197D098E099F094AE00E94070183
:10138000E0910603F0910703628173816B01770F8F
:10139000EE08FF08F7FE63C06DE28FE392E00E9463
:1013A000120266277727CB016C197D098E099F09E8
:1013B0004AE00E9407010E94AE0235CF7101E91A8E
:1013C000F10897FDF394EE0CFF1CEE0CFF1C08E8EF
:1013D00010E0081B110987FD1395000F111F000F66
:1013E000111F5801012E000CCC08DD08C7010F2C7D
:1013F000000CAA0BBB0B9C01AD012A193B094C093F
:101400005D09D4010E943C0CA30192010E94120CC0
:10141000DA01C9018A0D9B1DAC1DBD1D8017910706
:101420002CF08C01E816F9060CF487010250110922
:10143000000F111F2FB7F894E9858E2F90E0FC0163
:10144000EE0FFF1F8E0F9F1FFC01E551FE4F128311
:1014500001832FBF7CCF4AE0C701B6018FCF4AE09E
:10146000C701B601A6CF81E192E00E94E9048CEDAC
:1014700092E00C9437051F93FC0199278827BC0143
:10148000E89411911032E9F3193010F01E30C8F3CE
:101490001B3251F01D3249F4689406C00E94620A62
:1014A000610F711D811D911D119110531A30B0F300
:1014B0003EF490958095709561957F4F8F4F9F4F2B
:1014C0001F910895592F482F372F262F660F771F0A
:1014D000881F991F660F771F881F991F620F731F40
:1014E000841F951F660F771F881F991F08950F93FC
:1014F0001F93CF93DF93009731F46115710519F4B1
:1015000080E090E03AC08B01EC016EE070E081E099
:1015100090E00E94C20AFC01892B91F380E883834A
:101520000115110571F01387028781E8838380918B
:10153000180390911903892B21F4F0931903E09378
:1015400018032097C9F0D187C08783818260838385
:1015500080911A0390911B03892B71F4F0931B0364
:10156000E0931A0380911C0390911D03892B21F4B1
:10157000F0931D03E0931C03CF01DF91CF911F91E6
:101580000F9108950F931F93CF93DF93869F800150
:10159000879F100D969F100D1124C8010E94DE0A2E
:1015A000EC01009729F0A80160E070E00E940B0CAC
:1015B000CE01DF91CF911F910F910895CF93DF93CB
:1015C0008230910510F482E090E0E0912003F091E8
:1015D000210320E030E0C0E0D0E0309711F14081FD
:1015E000518148175907C0F04817590761F48281A3
:1015F0009381209719F09B838A832BC090932103BA
:101600008093200326C02115310519F04217530796
:1016100018F49A01BE01DF01EF010280F381E02D91
:10162000DCCF2115310509F1281B390B2430310598
:1016300090F412968D919C9113976115710521F08C
:10164000FB019383828304C0909321038093200342
:10165000FD01329644C0FD01E20FF31F8193919387
:10166000225031092D933C933AC020911E033091B2
:101670001F03232B41F42091020130910301309389
:101680001F0320931E0320910001309101012115B9
:10169000310541F42DB73EB7409104015091050149
:1016A000241B350BE0911E03F0911F03E217F30793
:1016B000A0F42E1B3F0B2817390778F0AC014E5FC2
:1016C0005F4F2417350748F04E0F5F1F50931F03DD
:1016D00040931E038193919302C0E0E0F0E0CF01BC
:1016E000DF91CF9108950F931F93CF93DF930097CE
:1016F00009F48CC0FC0132971382128200912003FE
:10170000109121030115110581F420813181820F8F
:10171000931F20911E0330911F032817390779F575
:10172000F0931F03E0931E0371C0D80140E050E026
:10173000AE17BF0750F412962D913C911397AD014F
:101740002115310509F1D901F3CF9D01DA01338368
:10175000228360817181860F971F8217930769F436
:10176000EC0128813981260F371F2E5F3F4F3183CF
:1017700020838A819B8193838283452B29F4F09374
:101780002103E093200342C01396FC93EE9312973B
:10179000ED01499159919E01240F351FE217F3077E
:1017A00071F480819181840F951F029611969C930C
:1017B0008E938281938113969C938E931297E0E08F
:1017C000F0E0D80112968D919C911397009719F033
:1017D000F8018C01F6CF8D919C9198012E5F3F4FBF
:1017E000820F931F20911E0330911F032817390782
:1017F00069F4309729F4109221031092200302C05B
:101800001382128210931F0300931E03DF91CF9166
:101810001F910F910895DC0101C06D93415050401C
:10182000E0F70895052E97FB1EF400940E94290C02
:1018300057FD07D00E947B0C07FC03D04EF40C949C
:10184000290C50954095309521953F4F4F4F5F4F54
:10185000089590958095709561957F4F8F4F9F4F1C
:1018600008950E949D0CA59F900DB49F900DA49F7C
:10187000800D911D11240895B7FF0C94310C0E9426
:10188000310C821B930B08952F923F924F925F92DF
:101890006F927F928F929F92AF92BF92CF92DF9280
:1018A000EF92FF920F931F93CF93DF93CDB7DEB7E5
:1018B000CA1BDB0B0FB6F894DEBF0FBECDBF099479
:1018C0002A88398848885F846E847D848C849B84D0
:1018D000AA84B984C884DF80EE80FD800C811B81DE
:1018E000AA81B981CE0FD11D0FB6F894DEBF0FBE0D
:1018F000CDBFED010895A1E21A2EAA1BBB1BFD016D
:101900000DC0AA1FBB1FEE1FFF1FA217B307E407DE
:10191000F50720F0A21BB30BE40BF50B661F771F36
:10192000881F991F1A9469F7609570958095909516
:101930009B01AC01BD01CF010895A29FB001B39FEF
:10194000C001A39F700D811D1124911DB29F700DC8
:10195000811D1124911D0895991B79E004C0991FE0
:10196000961708F0961B881F7A95C9F780950895F9
:10197000EE0FFF1F0590F491E02D0994A0E0B0E078
:10198000E4ECFCE00C94480CEC01009721F4CB0152
:101990000E94DE0AB8C0FC01E60FF71F9C0122502E
:1019A0003109E217F30708F4ACC0D9010D911C917D
:1019B000119706171707B0F00530110508F49FC0FE
:1019C000C80104978617970708F499C002501109B7
:1019D000061B170B019311936D937C93CF010E940B
:1019E000730B8DC05B01A01AB10A4C01800E911ED1
:1019F000A0912003B091210340E050E0E12CF12CB4
:101A0000109709F44AC0A815B905D1F56D907C90DE
:101A10001197630182E0C80ED11CCA14DB0480F167
:101A2000A3014A195B096A0182E0C80ED11C129613
:101A3000BC9012971396AC91B5E0CB16D10440F050
:101A4000B282A38351834083D9016D937C930AC0F2
:101A50000E5F1F4FC301800F911FF9019183808397
:101A6000EB2DFA2FE114F10431F0D7011396FC931A
:101A7000EE93129744C0F0932103E09320033FC0FC
:101A80008D919C9111974817590708F4AC017D017D
:101A900012960D90BC91A02DB3CF80911E03909112
:101AA0001F0388159905E1F446175707C8F480917C
:101AB000000190910101009741F48DB79EB74091CC
:101AC000040150910501841B950BE817F907C8F430
:101AD000F0931F03E0931E03F901718360830FC02D
:101AE000CB010E94DE0A7C01009759F0A801BE01DB
:101AF0000E948D0DCE010E94730BC70104C0CE0160
:101B000002C080E090E0CDB7DEB7EEE00C94640C4C
:101B100081E090E0F8940C949D0DFB01DC0102C083
:101B200001900D9241505040D8F70895FB01DC011F
:101B300001900D920020E1F7089510E0CDE5D0E08E
:101B400004C0FE010E94B80C2196CE35D107C9F71A
:041B5000F894FFCF37
:101B540000002203800018000000000000000000C4
:101B6400E8FFE8FF0000000000001400000000008F
:101B740000000000ECFFECFF00000000000000008B
:101B840000008101CE0071028505A2028002940248
:101B9400060000000000C804CA04FAFFFAFF0000AF
:101BA400C904CC04180000000000E9040005E8FFA3
:101BB400E8FF0000F6040A055A010C01160164014D
:101BC400000000002606C604140411040E040B04CD
:101BD40008047F037B037803620382030603040380
:101BE40002000000000016051805FEFFFEFF0000BD
:101BF40017051A0500000000280662050000000011
:101C040027061405140411040E040B040804FC0331
:101C1400B6039D038403820373045204140000007A
:101C2400000037054E05ECFFECFF000044055805A5
:0A1C3400D20120012A01DC010000AA
:107E0000112484B714BE81FFF0D085E080938100F7
:107E100082E08093C00088E18093C10086E0809377
:107E2000C20080E18093C4008EE0C9D0259A86E02C
:107E300020E33CEF91E0309385002093840096BBD3
:107E4000B09BFECF1D9AA8958150A9F7CC24DD24C4
:107E500088248394B5E0AB2EA1E19A2EF3E0BF2EE7
:107E6000A2D0813461F49FD0082FAFD0023811F036
:107E7000013811F484E001C083E08DD089C08234E0
:107E800011F484E103C0853419F485E0A6D080C0E4
:107E9000853579F488D0E82EFF2485D0082F10E0AE
:107EA000102F00270E291F29000F111F8ED06801E7
:107EB0006FC0863521F484E090D080E0DECF843638
:107EC00009F040C070D06FD0082F6DD080E0C81688
:107ED00080E7D80618F4F601B7BEE895C0E0D1E017
:107EE00062D089930C17E1F7F0E0CF16F0E7DF06D8
:107EF00018F0F601B7BEE89568D007B600FCFDCFD4
:107F0000A601A0E0B1E02C9130E011968C91119780
:107F100090E0982F8827822B932B1296FA010C0160
:107F200087BEE89511244E5F5F4FF1E0A038BF0790
:107F300051F7F601A7BEE89507B600FCFDCF97BE46
:107F4000E89526C08437B1F42ED02DD0F82E2BD052
:107F50003CD0F601EF2C8F010F5F1F4F84911BD097
:107F6000EA94F801C1F70894C11CD11CFA94CF0C13
:107F7000D11C0EC0853739F428D08EE10CD085E9AC
:107F80000AD08FE07ACF813511F488E018D01DD067
:107F900080E101D065CF982F8091C00085FFFCCF94
:107FA0009093C60008958091C00087FFFCCF809118
:107FB000C00084FD01C0A8958091C6000895E0E648
:107FC000F0E098E1908380830895EDDF803219F02E
:107FD00088E0F5DFFFCF84E1DECF1F93182FE3DFCA
:107FE0001150E9F7F2DF1F91089580E0E8DFEE27F6
:047FF000FF270994CA
:027FFE00040479
:0400000300007E007B
:00000001FF