:100000000C9459000C9481000C9481000C94810094
:100010000C9481000C9481000C9481000C9481005C
:100020000C9481000C9481000C9481000C94690460
:100030000C9481000C9481000C9481000C9481003C
:100040000C94EE050C9481000C9434040C940E0472
:100050000C9481000C9481000C9481000C9481001C
:100060000C9481000C948100000000002500280001
:100070002B00040404040404040402020202020229
:10008000030303030303010204081020408001025C
:1000900004081020010204081020000000080002DB
:1000A00001000003040700000000000000005D08DC
:1000B000550811241FBECFEFD8E0DEBFCDBF11E041
:1000C000A0E0B1E0E2E8F8E102C005900D92AA3E9E
:1000D000B107D9F723E0AAEEB1E001C01D92A23228
:1000E000B207E1F710E0C8E5D0E004C02197FE01B7
:1000F0000E944F0BC735D107C9F70E9466060C94C2
:10010000340C0C940000089580E090E00895FC0108
:10011000538D448D252F30E0842F90E0821B930B6C
:10012000541710F0CF96089501970895FC01918D12
:10013000828D981761F0828DDF01A80FB11D5D9649
:100140008C91928D9F5F9F73928F90E008958FEFB7
:100150009FEF0895FC01918D828D981731F0828D6B
:10016000E80FF11D858D90E008958FEF9FEF0895C2
:10017000FC01918D228D892F90E0805C9F4F821B26
:1001800091098F739927089588E492E00E94B8003E
:1001900021E0892B09F420E0822F0895FC01848D51
:1001A000DF01A80FB11DA35ABF4F2C91848D90E0A1
:1001B00001968F739927848FA689B7892C93A0897C
:1001C000B1898C9180648C93938D848D981306C033
:1001D0000288F389E02D80818F7D80830895EF92DE
:1001E000FF920F931F93CF93DF93EC0181E0888FF1
:1001F0009B8D8C8D981305C0E889F989808185FDD8
:1002000024C0F62E0B8D10E00F5F1F4F0F731127C8
:10021000E02E8C8DE8120CC00FB607FCFACFE889EF
:10022000F989808185FFF5CFCE010E94CE00F1CF04
:100230008B8DFE01E80FF11DE35AFF4FF0820B8F0B
:10024000EA89FB898081806207C0EE89FF8960832B
:10025000E889F98980818064808381E090E0DF9182
:10026000CF911F910F91FF90EF900895CF93DF935F
:10027000EC01888D8823C9F0EA89FB89808185FD9E
:1002800005C0A889B9898C9186FD0FC00FB607FCFF
:10029000F5CF808185FFF2CFA889B9898C9185FF40
:1002A000EDCFCE010E94CE00E7CFDF91CF91089530
:1002B00080E090E0892B29F00E94C40081110C9409
:1002C0000000089590E0FC01E656FF4F3491FC01D8
:1002D000EA57FF4F2491FC01EE58FF4FE491EE23C3
:1002E00009F43BC0332339F1333091F038F4313025
:1002F000A9F0323001F584B58F7D12C0373091F00E
:100300003830A1F03430B9F4809180008F7D03C083
:10031000809180008F77809380000DC084B58F77A7
:1003200084BD09C08091B0008F7703C08091B00078
:100330008F7D8093B000F0E0EE0FFF1FE859FF4F74
:10034000A591B4918FB7F894EC91611103C02095F9
:100350002E2301C02E2B2C938FBF0895CB0108951F
:100360007F928F929F92AF92BF92CF92DF92EF9245
:10037000FF920F931F93CF93DF93EC0149015A0132
:100380008B01C12CD12C7601C814D904EA04FB04DA
:1003900084F5F80171908F018F8580FF0BC0E88193
:1003A000F9810084F185E02D20E144E060E070E017
:1003B000CE010995EB85FC858D859E85E817F907AB
:1003C00038F470828B859C8501969C878B870BC047
:1003D000E881F981672D70E0028CF38DE02DCE016C
:1003E0000995019649F02FEFC21AD20AE20AF20AE1
:1003F000CBCFB401C50102C0B601C701DF91CF91D7
:100400001F910F91FF90EF90DF90CF90BF90AF9032
:100410009F908F907F900895CF93DF93EC01E881B8
:10042000F9810288F389E02D09958F3F2FEF92071C
:1004300031F02D813E812F5F3F4F3E832D83DF9131
:10044000CF9108958FEF9FEF089560E070E0CB01AA
:10045000089580E090E00895CB010895CF93DF9355
:10046000EC0188899989DC01ED91FC910084F1858A
:10047000E02D0995892BA9F388899989DC01ED91F3
:10048000FC910284F385E02DDF91CF910994CF9305
:10049000DF93EC0188899989DC01ED91FC9100845E
:1004A000F185E02D0995892BA9F388899989DC01CB
:1004B000ED91FC910484F585E02DDF91CF910994B5
:1004C000AF92BF92CF92DF92EF92FF920F931F9362
:1004D000CF93DF9300D000D0CDB7DEB78C015B01A6
:1004E000C12CD12C7601F80180899189DC01ED9134
:1004F000FC910284F385E02D29833A834B835C834E
:10050000099529813A814B815C818F3F71F0C21638
:10051000D306E406F5064CF4D5018D935D01BFEFDB
:10052000CB1ADB0AEB0AFB0ADECFC701B6010F903C
:100530000F900F900F90DF91CF911F910F91FF902F
:10054000EF90DF90CF90BF90AF900895DC01509670
:100550008D919C915197DC01ED91FC910084F18586
:10056000E02D099480E090E0089580E090E0089507
:1005700080E090E0089580E090E008950895CF93A2
:10058000DF93C0911802D0911902E881F9810084AB
:10059000F185E02DCE010995892BB9F3E881F98128
:1005A0000284F385E02DCE01DF91CF9109941F9352
:1005B000CF93DF93182FC0911802D09119028A307F
:1005C00041F4E881F9810190F081E02D6DE0CE01E8
:1005D0000995E881F9810190F081E02D612FCE012C
:1005E000099521E030E0019711F420E030E0C901E5
:1005F000DF91CF911F9108950F931F93CF93DF93B6
:100600008C01EB016F3F8FEF780719F480E090E0E9
:100610000FC06A3031F46DE0F801808991890E9441
:100620005F066C2FF801808991890E945F06CE01D8
:10063000DF91CF911F910F9108958F929F92BF925A
:10064000CF92DF92EF92FF920F931F93CF93DF939E
:1006500000D000D0CDB7DEB78C014B01C12CD12C1E
:100660007601C216D306E406F50644F5F401B1900E
:100670004F01FAE0BF120EC06DE0F8018089918948
:1006800029833A834B835C830E945F065C814B81A4
:100690003A8129816B2DF8018089918929833A83D8
:1006A0004B835C830E945F06FFEFCF1ADF0AEF0ADD
:1006B000FF0A5C814B813A812981D3CFCA01B901FC
:1006C0000F900F900F900F90DF91CF911F910F918E
:1006D000FF90EF90DF90CF90BF909F908F90089504
:1006E0000C94570A089508950C94570ADC01ED9173
:1006F000FC91369720813181820F931F0C947403F3
:10070000FB0120813181FC0131832083FB01428187
:100710005381F901369720813181FC01E20FF31FEB
:100720005183408308952AE531E0FC013183208321
:1007300024E631E0318F208F6AE671E00C9480036B
:10074000DC01ED91FC91369720813181820F931F5E
:100750000C949303CF93DF93EC010E949303CE019B
:10076000DF91CF910C94570ADC01ED91FC91369703
:1007700020813181820F931F0C94AA030C94570A95
:10078000089508950C94570ADC01ED91FC91369779
:1007900020813181820F931F0C94C203FB012081C1
:1007A0003181FC0131832083FB0142815381F901B6
:1007B000369720813181FC01E20FF31F5183408382
:1007C000089522ED31E0FC01318320832CED31E0EE
:1007D000358B248B62EE71E00C94CE03DC01ED913D
:1007E000FC91369720813181820F931F0C94E10395
:1007F000CF93DF93EC010E94E103CE01DF91CF9113
:100800000C94570ADC01ED91FC91369720813181DF
:10081000820F931F0C94F8030C94570A1F920F92A7
:100820000FB60F9211242F933F934F935F936F93C3
:100830007F938F939F93AF93BF93EF93FF9388E43E
:1008400092E00E94CE00FF91EF91BF91AF919F91F6
:100850008F917F916F915F914F913F912F910F9069
:100860000FBE0F901F9018951F920F920FB60F9208
:1008700011242F938F939F93EF93FF93E09158024E
:10088000F09159028081E0915E02F0915F0282FD59
:1008900012C09081809161028F5F8F7320916202FC
:1008A000821751F0E0916102F0E0E85BFD4F958F17
:1008B0008093610201C08081FF91EF919F918F91A0
:1008C0002F910F900FBE0F901F90189508950895C7
:1008D00008951F920F920FB60F9211242F933F93FA
:1008E0004F935F936F937F938F939F93AF93BF9338
:1008F000EF93FF938091EA0187FF05C01092850076
:10090000109284001BC02091EA01022E000C330BD0
:1009100080910F0290E02817390784F48091EA0152
:10092000082E000C990BFC01EE0FFF1F8E0F9F1F6E
:10093000FC01E551FE4F808186FD15C08091EA01E2
:100940008F5F8093EA012091EA01022E000C330BA5
:1009500080910F0290E028173907C4F48091EA01D2
:100960008C3064F113C08091EA01082E000C990BC1
:10097000FC01EE0FFF1F8E0F9F1FFC01E551FE4F84
:10098000808160E08F730E946201D8CF80918400E3
:1009900090918500049680349C4918F480E49CE989
:1009A00005C0809184009091850004969093890001
:1009B000809388008FEF8093EA013BC020918400F0
:1009C000309185008091EA01082E000C990BFC0102
:1009D000EE0FFF1F8E0F9F1FFC01E551FE4F81811F
:1009E0009281820F931F9093890080938800809159
:1009F000EA01082E000C990BFC01EE0FFF1F8E0F71
:100A00009F1FFC01E551FE4F808186FF12C080913F
:100A1000EA01082E000C990BFC01EE0FFF1F8E0F50
:100A20009F1FFC01E551FE4F808161E08F730E94A2
:100A30006201FF91EF91BF91AF919F918F917F9153
:100A40006F915F914F913F912F910F900FBE0F903B
:100A50001F901895CF92DF92EF92FF920F931F9302
:100A6000CF93DF936C017A018B01C0E0D0E0CE150B
:100A7000DF0589F0D8016D918D01D601ED91FC91D2
:100A80000190F081E02DC6010995892B11F47E01BA
:100A900002C02196ECCFC701DF91CF911F910F913A
:100AA000FF90EF90DF90CF9008950E941F0C8F92DF
:100AB0009F92AF92BF920F931F93CF93DF93CDB7C7
:100AC000DEB7A1970FB6F894DEBF0FBECDBF19A257
:100AD000423008F44AE08E010F5D1F4F842E912CA6
:100AE000A12CB12CA50194010E942D0BE62FB90178
:100AF000CA0101501109EA3014F4E05D01C0E95C5B
:100B0000D801EC93232B242B252B61F7011511051C
:100B100071F0F80101900020E9F73197AF01401B17
:100B2000510BB80188E492E00E942A0502C080E0DF
:100B300090E0A1960FB6F894DEBF0FBECDBFDF9157
:100B4000CF911F910F91BF90AF909F908F9008957C
:100B50002FB7F8948091140390911503A091160378
:100B6000B09117032FBF8093500290935102A0932E
:100B70005202B0935302E0914802F091490202847C
:100B8000F385E02D88E492E0099597FF26C02FB702
:100B9000F8948091140390911503A0911603B091DD
:100BA00017032FBF409150025091510260915202A1
:100BB00070915302841B950BA60BB70B40914C020E
:100BC00050914D0260914E0270914F02841795072B
:100BD000A607B70780F28FEF9FEF08951F920F923D
:100BE0000FB60F9211242F933F938F939F93AF9340
:100BF000BF938091140390911503A0911603B091B7
:100C000017033091130323E0230F2D3720F40196AF
:100C1000A11DB11D05C026E8230F0296A11DB11D1F
:100C2000209313038093140390931503A09316034A
:100C3000B093170380910F0390911003A0911103BB
:100C4000B09112030196A11DB11D80930F039093E3
:100C50001003A0931103B0931203BF91AF919F9122
:100C60008F913F912F910F900FBE0F901F9018956D
:100C70000F931F93CF93DF93EC01888199810097A5
:100C800029F02A813B812617370788F48B016F5F93
:100C90007F4F0E94550B009761F0998388831B83D7
:100CA0000A832C813D81232B11F4FC01108281E009
:100CB00001C080E0DF91CF911F910F910895DC0179
:100CC000ED91FC910190F081E02D0994CF93DF9399
:100CD000CDB7DEB728970FB6F894DEBF0FBECDBFF5
:100CE000789484B5826084BD84B5816084BD85B507
:100CF000826085BD85B5816085BD80916E00816013
:100D000080936E00109281008091810082608093B8
:100D100081008091810081608093810080918000BA
:100D20008160809380008091B10084608093B100E5
:100D30008091B00081608093B00080917A008460DF
:100D400080937A0080917A00826080937A0080910B
:100D50007A00816080937A0080917A008068809325
:100D60007A001092C100E0915802F091590282E09D
:100D70008083E0915402F09155021082E091560276
:100D8000F09157028FEC808310926002E0915C0238
:100D9000F0915D0286E08083E0915A02F0915B025F
:100DA000808180618083E0915A02F0915B028081B2
:100DB00088608083E0915A02F0915B0280818068B4
:100DC0008083E0915A02F0915B0280818F7D808365
:100DD00089E090E00E94C2098C0183E090E0D80194
:100DE00011969C938E9388E090E015969C938E9339
:100DF000149717961C921E92169780E190E00E941D
:100E0000C209F80193838283C12CD12C33243A94F4
:100E1000B8EB4B2EBBE05B2EF80180819181C816A8
:100E2000D9060CF08DC085E090E00E94C2095C01FB
:100E3000DC011196DC92CE9280910F028C3090F4FE
:100E400091E0980F90930F0212968C9390E0FC0122
:100E5000EE0FFF1F8E0F9F1FFC01E551FE4F5282C8
:100E6000418202C0F5013282D80116968D909C9085
:100E700017977401BFEFEB1AFB0A8E149F0408F05A
:100E800053C0F801248135812E153F0578F5C40142
:100E900009962817390750F56280738095838483FB
:100EA000880F991F0E94C209D80113969C938E93B4
:100EB0001297D30140E050E048155905A1F0F80120
:100EC000828193819A01220F331FFC01E20FF31FED
:100ED000309729F08D919C911197918380834F5F7A
:100EE0005F4F1296E9CFC3010E94570AD8011696A8
:100EF0008D919C9117979C01220F331F8E159F0592
:100F000078F4D8011296ED91FC911397E20FF31F3C
:100F1000309711F0B182A08201962E5F3F4FEECF45
:100F2000F801F782E68208C0E814F90428F4D80131
:100F30001796FC92EE921697BFEFCB1ADB0A6CCF96
:100F4000109313020093120288E492E00E94B8000A
:100F500002970CF4A3C088E492E00E949600C09728
:100F600090931702809316021A8219821C821B82A8
:100F70001E821D8260E070E0CE0101960E9438065C
:100F800029813A8181110DC02115310519F0C9015E
:100F90000E94570A1A8219821E821D821C821B829D
:100FA00022C01E821D8268EE71E0C9010E942D0CD4
:100FB0001AC08F8318860D811E810F5F1F4FB801E5
:100FC000CE0101960E943806882369F029813A8172
:100FD0008D819E81BE01695F7F4F820F931F0E94AA
:100FE0002D0C1E830D830E94A80597FFE2CF098177
:100FF0001A810115110531F0C8010E941F096B010A
:101000007C0103C0C12CD12C7601D0921502C09274
:101010001402C8010E94570A80911602909117028B
:10102000E0911202F091130220813181821793071F
:10103000ACF597FD33C09C01220F331F0280F38172
:10104000E02DE20FF31F0190F081E02DF0931102EB
:10105000E0931002D182C082BC01990F880B990BDA
:101060004AE00E945705E0911002F0911102C08001
:10107000D1800D2C000CEE08FF08F7FE12C06DE2C7
:1010800088E492E00E945F0666277727CB016C19FF
:101090007D098E099F094AE00E9457050E94580168
:1010A00053CF4AE0C701B601F7CF8AE192E00E9430
:1010B000930385EE92E00C94E103CF93DF93A8E4D1
:1010C000B2E013961C921E92129748EE53E060E035
:1010D00070E014964D935D936D937C93179782E324
:1010E00091E011969C938E9385EC90E01D969C93D5
:1010F0008E931C9784EC90E01F969C938E931E9782
:1011000080EC90E051969C938E93509781EC90E008
:1011100053969C938E93529782EC90E055969C93B5
:101120008E93549786EC90E057969C938E935697A7
:1011300059961C9259975A961C925A975B961C92F4
:101140005B975C961C925C97E5EEF2E0C1E2D0E022
:10115000D08FC78B118E128E138E46E050E060E068
:1011600070E0448F558F668F778F10A211A212A264
:1011700013A220E224A316A215A211A687EE92E0E4
:1011800090A787A382ED91E0918380838CED91E01D
:10119000958B848B16821582108617821286118693
:1011A0001486138616861586108A178680EB91E0C2
:1011B00093838283B38BA28B30E1318BEAE1F2E03F
:1011C000D48FC38F158E168E178E40A351A362A3A2
:1011D00073A314A215A216A217A220A712A611A6E5
:1011E00015A6128213821482158220E232E034A7FF
:1011F00023A72AE531E03183208324E631E0318FD3
:10120000208F128611861486138616861586108AFC
:101210001786128A118A148A138A97838683B78B5A
:10122000A68B88E0858BB0931902A09318026FEB10
:1012300072E087ED92E0DF91CF910C945B091F93F0
:10124000FC0199278827BC01E89411911032E9F339
:10125000193010F01E30C8F31B3251F01D3249F422
:10126000689406C00E944609610F711D811D911D81
:10127000119110531A30B0F33EF49095809570950B
:1012800061957F4F8F4F9F4F1F910895592F482F82
:10129000372F262F660F771F881F991F660F771F1E
:1012A000881F991F620F731F841F951F660F771F7A
:1012B000881F991F08950F931F93CF93DF93009773
:1012C00031F46115710519F480E090E03AC08B01AA
:1012D000EC016EE070E081E090E00E94A609FC0164
:1012E000892B91F380E883830115110571F0138731
:1012F000028781E883838091180390911903892BD9
:1013000021F4F0931903E09318032097C9F0D187D3
:10131000C08783818260838380911A0390911B032D
:10132000892B71F4F0931B03E0931A0380911C0343
:1013300090911D03892B21F4F0931D03E0931C036E
:10134000CF01DF91CF911F910F9108950F931F93BC
:10135000CF93DF93869F8001879F100D969F100D7E
:101360001124C8010E94C209EC01009729F0A801CC
:1013700060E070E00E94EF0ACE01DF91CF911F91F3
:101380000F910895CF93DF938230910510F482E09E
:1013900090E0E0912003F091210320E030E0C0E0F4
:1013A000D0E0309711F14081518148175907C0F0C2
:1013B0004817590761F482819381209719F09B8324
:1013C0008A832BC0909321038093200326C021158C
:1013D000310519F04217530718F49A01BE01DF01D5
:1013E000EF010280F381E02DDCCF2115310509F1F9
:1013F000281B390B2430310590F412968D919C9165
:1014000013976115710521F0FB019383828304C05A
:101410009093210380932003FD01329644C0FD0187
:10142000E20FF31F81939193225031092D933C9346
:101430003AC020911E0330911F03232B41F42091C9
:1014400002013091030130931F0320931E0320916A
:101450000001309101012115310541F42DB73EB74E
:101460004091040150910501241B350BE0911E03AE
:10147000F0911F03E217F307A0F42E1B3F0B281770
:10148000390778F0AC014E5F5F4F2417350748F0FD
:101490004E0F5F1F50931F0340931E038193919340
:1014A00002C0E0E0F0E0CF01DF91CF9108950F930B
:1014B0001F93CF93DF93009709F48CC0FC01329700
:1014C000138212820091200310912103011511054E
:1014D00081F420813181820F931F20911E0330916E
:1014E0001F032817390779F5F0931F03E0931E03B4
:1014F00071C0D80140E050E0AE17BF0750F412961B
:101500002D913C911397AD012115310509F1D901B8
:10151000F3CF9D01DA013383228360817181860FCD
:10152000971F8217930769F4EC0128813981260FF0
:10153000371F2E5F3F4F318320838A819B819383A6
:101540008283452B29F4F0932103E093200342C0CA
:101550001396FC93EE931297ED01499159919E01D8
:10156000240F351FE217F30771F480819181840FF6
:10157000951F029611969C938E9382819381139668
:101580009C938E931297E0E0F0E0D80112968D9133
:101590009C911397009719F0F8018C01F6CF8D916B
:1015A0009C9198012E5F3F4F820F931F20911E0345
:1015B00030911F032817390769F4309729F41092E6
:1015C00021031092200302C01382128210931F0382
:1015D00000931E03DF91CF911F910F910895DC01BD
:1015E00001C06D9341505040E0F708952F923F9213
:1015F0004F925F926F927F928F929F92AF92BF9223
:10160000CF92DF92EF92FF920F931F93CF93DF93CE
:10161000CDB7DEB7CA1BDB0B0FB6F894DEBF0FBE2B
:10162000CDBF09942A88398848885F846E847D8478
:101630008C849B84AA84B984C884DF80EE80FD807A
:101640000C811B81AA81B981CE0FD11D0FB6F894F0
:10165000DEBF0FBECDBFED010895A1E21A2EAA1B79
:10166000BB1BFD010DC0AA1FBB1FEE1FFF1FA21752
:10167000B307E407F50720F0A21BB30BE40BF50B4F
:10168000661F771F881F991F1A9469F760957095D8
:10169000809590959B01AC01BD01CF010895EE0F9F
:1016A000FF1F0590F491E02D0994A0E0B0E0EBE578
:1016B000FBE00C94FA0AEC01009721F4CB010E94A4
:1016C000C209B8C0FC01E60FF71F9C012250310986
:1016D000E217F30708F4ACC0D9010D911C911197E2
:1016E00006171707B0F00530110508F49FC0C801B0
:1016F00004978617970708F499C002501109061B32
:10170000170B019311936D937C93CF010E94570A9D
:101710008DC05B01A01AB10A4C01800E911EA091F0
:101720002003B091210340E050E0E12CF12C109710
:1017300009F44AC0A815B905D1F56D907C901197B0
:10174000630182E0C80ED11CCA14DB0480F1A3013E
:101750004A195B096A0182E0C80ED11C1296BC903E
:1017600012971396AC91B5E0CB16D10440F0B2823B
:10177000A38351834083D9016D937C930AC00E5F8C
:101780001F4FC301800F911FF90191838083EB2DBF
:10179000FA2FE114F10431F0D7011396FC93EE9384
:1017A000129744C0F0932103E09320033FC08D9132
:1017B0009C9111974817590708F4AC017D011296C6
:1017C0000D90BC91A02DB3CF80911E0390911F036B
:1017D00088159905E1F446175707C8F48091000170
:1017E00090910101009741F48DB79EB7409104019B
:1017F00050910501841B950BE817F907C8F4F09385
:101800001F03E0931E03F901718360830FC0CB01B6
:101810000E94C2097C01009759F0A801BE010E94F4
:10182000240CCE010E94570AC70104C0CE0102C099
:1018300080E090E0CDB7DEB7EEE00C94160B81E0CF
:1018400090E0F8940C94340CFB01DC0102C0019090
:101850000D9241505040D8F70895FB01DC010190F2
:101860000D920020E1F7089510E0C8E5D0E004C033
:10187000FE010E944F0B2196C935D107C9F7F89494
:02188000FFCF98
:101882000000220380001800000000000000000099
:10189200E8FFE8FF00000000000014000000000064
:1018A20000000000ECFFECFF000000000000000060
:1018B2000000EF002A0587003601B8009600AA0052
:1018C20006000000000072037403FAFFFAFF000032
:1018D200730376031800000000009303AA03E8FFD5
:1018E200E8FF0000A003B4035A010C0116016401D1
:1018F2000000000066047003BE02BB02B802B5021B
:10190200B2022902250222020C022C02B001AE010F
:10191200020000000000C003C203FEFFFEFF000041
:10192200C103C4030000000068040C0400000000AE
:101932006704BE03BE02BB02B802B502B202A6022F
:10194200600247022E022C021D03FC02140000005A
:101952000000E103F803ECFFECFF0000EE030204D9
:0A196200D20120012A01DC0100007F
:00000001FF
