:100000000C9459000C9481000C9481000C94810094
:100010000C9481000C9481000C9481000C9481005C
:100020000C9481000C9481000C9481000C94540574
:100030000C9481000C9481000C9481000C9481003C
:100040000C94B2040C9481000C9422050C94FC04D2
:100050000C9481000C9481000C9481000C9481001C
:100060000C9481000C948100000000002500280001
:100070002B00040404040404040402020202020229
:10008000030303030303010204081020408001025C
:1000900004081020010204081020000000080002DB
:1000A0000100000304070000000000000000150626
:1000B000A60811241FBECFEFD8E0DEBFCDBF11E0F0
:1000C000A0E0B1E0ECE5F7E102C005900D92AA399D
:1000D000B107D9F722E0AAE9B1E001C01D92A23D23
:1000E000B207E1F710E0C8E5D0E004C02197FE01B7
:1000F0000E94BC0AC735D107C9F70E94D7060C94E5
:10010000A10B0C9400001F93CF93DF93182FC09185
:10011000D101D091D2018A3041F4E881F981019076
:10012000F081E02D6DE0CE010995E881F981019023
:10013000F081E02D612FCE01099521E030E001979B
:1001400011F420E030E0C901DF91CF911F910895B3
:10015000CF93DF93C091D101D091D201E881F98191
:100160000084F185E02DCE010995892BB9F3E88152
:10017000F9810284F385E02DCE01DF91CF910994BE
:100180002FB7F8948091CD019091CE01A091CF012D
:10019000B091D0012FBF8093090290930A02A093DF
:1001A0000B02B0930C02E0910102F0910202028472
:1001B000F385E02D81E092E0099597FF26C02FB7E7
:1001C000F8948091CD019091CE01A091CF01B09192
:1001D000D0012FBF4091090250910A0260910B0299
:1001E00070910C02841B950BA60BB70B4091050276
:1001F00050910602609107027091080284179507DA
:10020000A607B70780F28FEF9FEF0895DC01ED910D
:10021000FC910190F081E02D0994CF92DF92EF9252
:10022000FF920F931F93CF93DF936C017A018B01A1
:10023000C0E0D0E0CE15DF0589F0D8016D918D01C9
:10024000D601ED91FC910190F081E02DC601099558
:10025000892B11F47E0102C02196ECCFC701DF91FA
:10026000CF911F910F91FF90EF90DF90CF90089565
:10027000089580E090E00895FC01538D448D252F72
:1002800030E0842F90E0821B930B541710F0CF9630
:10029000089501970895FC01918D828D981761F062
:1002A000828DDF01A80FB11D5D968C91928D9F5FAD
:1002B0009F73928F90E008958FEF9FEF0895FC0158
:1002C000918D828D981731F0828DE80FF11D858D0B
:1002D00090E008958FEF9FEF0895FC01918D228D9E
:1002E000892F90E0805C9F4F821B91098F73992723
:1002F000089581E092E00E946D0121E0892B09F4CC
:1003000020E0822F0895FC01848DDF01A80FB11D2C
:10031000A35ABF4F2C91848D90E001968F7399273B
:10032000848FA689B7892C93A089B1898C91806428
:100330008C93938D848D981306C00288F389E02DE9
:1003400080818F7D80830895EF92FF920F931F939A
:10035000CF93DF93EC0181E0888F9B8D8C8D981378
:1003600005C0E889F989808185FD24C0F62E0B8DB2
:1003700010E00F5F1F4F0F731127E02E8C8DE812D6
:100380000CC00FB607FCFACFE889F989808185FF98
:10039000F5CFCE010E948301F1CF8B8DFE01E80FD6
:1003A000F11DE35AFF4FF0820B8FEA89FB898081B0
:1003B000806207C0EE89FF896083E889F9898081BE
:1003C0008064808381E090E0DF91CF911F910F9155
:1003D000FF90EF900895CF93DF93EC01888D8823F1
:1003E000C9F0EA89FB89808185FD05C0A889B989A2
:1003F0008C9186FD0FC00FB607FCF5CF808185FF7D
:10040000F2CFA889B9898C9185FFEDCFCE010E94EA
:100410008301E7CFDF91CF91089580E090E0892BB1
:1004200029F00E94790181110C940000089590E058
:10043000FC01E656FF4F3491FC01EA57FF4F24912F
:10044000FC01EE58FF4FE491EE2309F43BC0332347
:1004500039F1333091F038F43130A9F0323001F510
:1004600084B58F7D12C0373091F03830A1F0343030
:10047000B9F4809180008F7D03C0809180008F77D8
:10048000809380000DC084B58F7784BD09C08091B2
:10049000B0008F7703C08091B0008F7D8093B00053
:1004A000F0E0EE0FFF1FE859FF4FA591B4918FB711
:1004B000F894EC91611103C020952E2301C02E2BDE
:1004C0002C938FBF0895CB0108957F928F929F92B6
:1004D000AF92BF92CF92DF92EF92FF920F931F9352
:1004E000CF93DF93EC0149015A018B01C12CD12C30
:1004F0007601C814D904EA04FB0484F5F80171906C
:100500008F018F8580FF0BC0E881F9810084F18520
:10051000E02D20E144E060E070E0CE010995EB853C
:10052000FC858D859E85E817F90738F470828B85E8
:100530009C8501969C878B870BC0E881F981672D8C
:1005400070E0028CF38DE02DCE010995019649F003
:100550002FEFC21AD20AE20AF20ACBCFB401C501C8
:1005600002C0B601C701DF91CF911F910F91FF909B
:10057000EF90DF90CF90BF90AF909F908F907F9043
:100580000895CF93DF93EC01E881F9810288F38924
:10059000E02D09958F3F2FEF920731F02D813E819D
:1005A0002F5F3F4F3E832D83DF91CF9108958FEFD3
:1005B0009FEF089560E070E0CB01089580E090E047
:1005C00008950F931F93CF93DF938C01EB016F3F3F
:1005D0008FEF780719F480E090E00FC06A3031F4B3
:1005E0006DE0F801808991890E9406016C2FF80165
:1005F000808991890E940601CE01DF91CF911F91E0
:100600000F9108958F929F92BF92CF92DF92EF92B7
:10061000FF920F931F93CF93DF9300D000D0CDB7FD
:10062000DEB78C014B01C12CD12C7601C216D3064A
:10063000E406F50644F5F401B1904F01FAE0BF126B
:100640000EC06DE0F8018089918929833A834B833C
:100650005C830E9406015C814B813A8129816B2D6C
:10066000F8018089918929833A834B835C830E94B6
:100670000601FFEFCF1ADF0AEF0AFF0A5C814B8108
:100680003A812981D3CFCA01B9010F900F900F9001
:100690000F90DF91CF911F910F91FF90EF90DF901E
:1006A000CF90BF909F908F900895CB010895CF93E6
:1006B000DF93EC0188899989DC01ED91FC9100843C
:1006C000F185E02D0995892BA9F388899989DC01A9
:1006D000ED91FC910284F385E02DDF91CF91099497
:1006E000CF93DF93EC0188899989DC01ED91FC912E
:1006F0000084F185E02D0995892BA9F388899989D2
:10070000DC01ED91FC910484F585E02DDF91CF9122
:100710000994AF92BF92CF92DF92EF92FF920F9324
:100720001F93CF93DF9300D000D0CDB7DEB78C01FD
:100730005B01C12CD12C7601F80180899189DC0103
:10074000ED91FC910284F385E02D29833A834B835C
:100750005C83099529813A814B815C818F3F71F0DF
:10076000C216D306E406F5064CF4D5018D935D015F
:10077000BFEFCB1ADB0AEB0AFB0ADECFC701B601DB
:100780000F900F900F900F90DF91CF911F910F91CD
:10079000FF90EF90DF90CF90BF90AF900895DC0175
:1007A00050968D919C915197DC01ED91FC910084C4
:1007B000F185E02D099480E090E0089580E090E0DC
:1007C000089580E090E0089580E090E00895089515
:1007D0000895089508950E948C0B0F931F93CF9353
:1007E000DF93EC0188819981009729F02A813B8170
:1007F0002617370788F48B016F5F7F4F0E94C20A6C
:10080000009761F0998388831B830A832C813D8143
:10081000232B11F4FC01108281E001C080E0DF9104
:10082000CF911F910F9108950C94E60908950895B2
:100830000C94E609DC01ED91FC9136972081318121
:10084000820F931F0C941804FB0120813181FC015D
:1008500031832083FB0142815381F9013697208146
:100860003181FC01E20FF31F51834083089526E498
:1008700031E0FC013183208320E531E0318F208F8E
:1008800066E571E00C942404DC01ED91FC9136974F
:1008900020813181820F931F0C943704CF93DF9313
:1008A000EC010E943704CE01DF91CF910C94E60950
:1008B000DC01ED91FC91369720813181820F931FED
:1008C0000C944E040C94E609089508950C94E609DE
:1008D000DC01ED91FC91369720813181820F931FCD
:1008E0000C946604FB0120813181FC01318320835B
:1008F000FB0142815381F901369720813181FC014E
:10090000E20FF31F51834083089522E831E0FC0198
:10091000318320832CE831E0358B248B62E971E050
:100920000C947204DC01ED91FC91369720813181A9
:10093000820F931F0C948504CF93DF93EC010E94E8
:100940008504CE01DF91CF910C94E609DC01ED9195
:10095000FC91369720813181820F931F0C949C0467
:100960000C94E6091F920F920FB60F9211242F9349
:100970003F938F939F93AF93BF938091CD019091BD
:10098000CE01A091CF01B091D0013091CC0123E0F4
:10099000230F2D3720F40196A11DB11D05C026E8B7
:1009A000230F0296A11DB11D2093CC018093CD0190
:1009B0009093CE01A093CF01B093D0018091C80154
:1009C0009091C901A091CA01B091CB010196A11DDE
:1009D000B11D8093C8019093C901A093CA01B0933F
:1009E000CB01BF91AF919F918F913F912F910F902C
:1009F0000FBE0F901F9018951F920F920FB60F9277
:100A000011242F933F934F935F936F937F938F9313
:100A10009F93AF93BF93EF93FF9381E092E00E9487
:100A20008301FF91EF91BF91AF919F918F917F9142
:100A30006F915F914F913F912F910F900FBE0F904B
:100A40001F9018951F920F920FB60F9211242F939B
:100A50008F939F93EF93FF93E0911102F091120215
:100A60008081E0911702F091180282FD12C09081FE
:100A700080911A028F5F8F7320911B02821751F0B1
:100A8000E0911A02F0E0EF5FFD4F958F80931A021C
:100A900001C08081FF91EF919F918F912F910F90D5
:100AA0000FBE0F901F9018951F920F920FB60F92C6
:100AB00011242F933F934F935F936F937F938F9363
:100AC0009F93AF93BF93EF93FF9380919A0187FF1A
:100AD00005C010928500109284001BC020919A01DD
:100AE000022E000C330B8091BF0190E028173907CC
:100AF00084F480919A01082E000C990BFC01EE0FF2
:100B0000FF1F8E0F9F1FFC01E556FE4F808186FD63
:100B100015C080919A018F5F80939A0120919A016C
:100B2000022E000C330B8091BF0190E0281739078B
:100B3000C4F480919A018C3064F113C080919A01C1
:100B4000082E000C990BFC01EE0FFF1F8E0F9F1F4C
:100B5000FC01E556FE4F808160E08F730E94170212
:100B6000D8CF8091840090918500049680349C4970
:100B700018F480E49CE905C0809184009091850080
:100B8000049690938900809388008FEF80939A0158
:100B90003BC0209184003091850080919A01082EFD
:100BA000000C990BFC01EE0FFF1F8E0F9F1FFC0125
:100BB000E556FE4F81819281820F931F90938900A9
:100BC0008093880080919A01082E000C990BFC01FB
:100BD000EE0FFF1F8E0F9F1FFC01E556FE4F808119
:100BE00086FF12C080919A01082E000C990BFC011F
:100BF000EE0FFF1F8E0F9F1FFC01E556FE4F8081F9
:100C000061E08F730E941702FF91EF91BF91AF9146
:100C10009F918F917F916F915F914F913F912F9114
:100C20000F900FBE0F901F901895CF93DF93A1E008
:100C3000B2E013961C921E92129748EE53E060E0C9
:100C400070E014964D935D936D937C93179782E3B8
:100C500091E011969C938E9385EC90E01D969C9369
:100C60008E931C9784EC90E01F969C938E931E9716
:100C700080EC90E051969C938E93509781EC90E09D
:100C800053969C938E93529782EC90E055969C934A
:100C90008E93549786EC90E057969C938E9356973C
:100CA00059961C9259975A961C925A975B961C9289
:100CB0005B975C961C925C97EEE9F2E0C1E2D0E0B3
:100CC000D08FC78B118E128E138E46E050E060E0FD
:100CD00070E0448F558F668F778F10A211A212A2F9
:100CE00013A220E224A316A215A211A680EA92E084
:100CF00090A787A382E891E0918380838CE891E0BC
:100D0000958B848B16821582108617821286118627
:100D10001486138616861586108A178680E691E05B
:100D200093838283B38BA28B30E1318BE3EDF1E0CF
:100D3000D48FC38F158E168E178E40A351A362A336
:100D400073A314A215A216A217A220A712A611A679
:100D500015A6128213821482158229ED31E034A780
:100D600023A726E431E03183208320E531E0318F71
:100D7000208F128611861486138616861586108A91
:100D80001786128A118A148A138A97838683B78BEF
:100D9000A68B88E0858BB093D201A093D10168EA3D
:100DA00070E083E890E0DF91CF910C94EA08CF9354
:100DB000DF93CDB7DEB728970FB6F894DEBF0FBE2E
:100DC000CDBF789484B5826084BD84B5816084BDD4
:100DD00085B5826085BD85B5816085BD80916E00D9
:100DE000816080936E00109281008091810082600A
:100DF0008093810080918100816080938100809147
:100E000080008160809380008091B1008460809335
:100E1000B1008091B00081608093B00080917A0031
:100E2000846080937A0080917A00826080937A0057
:100E300080917A00816080937A0080917A00806846
:100E400080937A001092C100E0911102F091120299
:100E500082E08083E0910D02F0910E021082E09119
:100E60000F02F09110028FEC808310921902E09132
:100E70001502F091160286E08083E0911302F09152
:100E80001402808180618083E0911302F09114024A
:100E9000808188608083E0911302F0911402808148
:100EA00080688083E0911302F091140280818F7D2D
:100EB000808389E090E00E9451098C0183E090E0FA
:100EC000D80111969C938E9388E090E015969C93A0
:100ED0008E93149717961C921E92169780E190E0BD
:100EE0000E945109F80193838283A12CB12C3324F1
:100EF0003A94B8EB4B2EBBE05B2EF80180819181D8
:100F0000A816B9060CF08DC085E090E00E9451094A
:100F10006C01DC0111961C921E928091BF018C30F5
:100F200090F491E0980F9093BF0112968C9390E00B
:100F3000FC01EE0FFF1F8E0F9F1FFC01E556FE4FB9
:100F40005282418202C0F6013282D80116968D90FB
:100F50009C9017977401BFEFEB1AFB0A8E149F0445
:100F600008F053C0F801248135812E153F0578F52E
:100F7000C40109962817390750F56280738095835C
:100F80008483880F991F0E945109D80113969C935E
:100F90008E931297D30140E050E048155905A1F017
:100FA000F801828193819A01220F331FFC01E20F25
:100FB000F31F309729F08D919C9111979183808335
:100FC0004F5F5F4F1296E9CFC3010E94E609D80137
:100FD00016968D919C9117979C01220F331F8E15A9
:100FE0009F0578F4D8011296ED91FC911397E20FCA
:100FF000F31F309711F0D182C08201962E5F3F4FD0
:10100000EECFF801F782E68208C0E814F90428F46C
:10101000D8011796FC92EE921697BFEFAB1ABB0A57
:101020006CCF1093C3010093C20181E092E00E9453
:101030006D0102970CF475C081E092E00E944B01B3
:101040009093C7018093C6011A8219821C821B8269
:101050001E821D8260E070E0CE0101960E94ED03C9
:1010600029813A8181110DC02115310519F0C9017D
:101070000E94E6091A8219821E821D821C821B822E
:1010800022C01E821D8268E971E0C9010E949A0B8C
:101090001AC08F8318860D811E810F5F1F4FB80104
:1010A000CE0101960E94ED03882369F029813A81DF
:1010B0008D819E81BE01695F7F4F820F931F0E94C9
:1010C0009A0B1E830D830E94C00097FFE2CFC98058
:1010D000DA80C114D10429F0C6010E94AE08F62EB0
:1010E00002C0F12C70E0172FF092C4017093C5017B
:1010F000C6010E94E6096091C6017091C701E091A6
:10110000C201F091C301808191816817790764F46D
:1011100081E092E00E94A4016F2D81E092E00E94A4
:10112000A4010E940D0281CF0280F381E02DCB014A
:10113000880F991FE80FF91F0190F081E02DF093BF
:10114000C101E093C001F0821183E2CF83ED91E011
:101150000E9437048EE992E00C9485041F93FC01F1
:1011600099278827BC01E89411911032E9F31930CE
:1011700010F01E30C8F31B3251F01D3249F4689450
:1011800006C00E94D508610F711D811D911D11912E
:1011900010531A30B0F33EF4909580957095619598
:1011A0007F4F8F4F9F4F1F910895592F482F372FF3
:1011B000262F660F771F881F991F660F771F881FBE
:1011C000991F620F731F841F951F660F771F881F5B
:1011D000991F08950F931F93CF93DF93009731F4D6
:1011E0006115710519F480E090E03AC08B01EC01C3
:1011F0006EE070E081E090E00E943509FC01892BEF
:1012000091F380E883830115110571F0138702873C
:1012100081E883838091C8029091C902892B21F4CF
:10122000F093C902E093C8022097C9F0D187C08724
:101230008381826083838091CA029091CB02892B43
:1012400071F4F093CB02E093CA028091CC029091AA
:10125000CD02892B21F4F093CD02E093CC02CF0193
:10126000DF91CF911F910F9108950F931F93CF930B
:10127000DF93869F8001879F100D969F100D11248C
:10128000C8010E945109EC01009729F0A80160E013
:1012900070E00E947E0ACE01DF91CF911F910F91E5
:1012A0000895CF93DF938230910510F482E090E0AF
:1012B000E091D002F091D10220E030E0C0E0D0E037
:1012C000309711F14081518148175907C0F04817F4
:1012D000590761F482819381209719F09B838A8357
:1012E0002BC09093D1028093D00226C021153105E6
:1012F00019F04217530718F49A01BE01DF01EF01FC
:101300000280F381E02DDCCF2115310509F1281B86
:10131000390B2430310590F412968D919C911397DE
:101320006115710521F0FB019383828304C09093C2
:10133000D1028093D002FD01329644C0FD01E20F3C
:10134000F31F81939193225031092D933C933AC01E
:101350002091CE023091CF02232B41F42091020143
:10136000309103013093CF022093CE0220910001EF
:10137000309101012115310541F42DB73EB740915F
:10138000040150910501241B350BE091CE02F09130
:10139000CF02E217F307A0F42E1B3F0B28173907E3
:1013A00078F0AC014E5F5F4F2417350748F04E0FC1
:1013B0005F1F5093CF024093CE028193919302C05E
:1013C000E0E0F0E0CF01DF91CF9108950F931F93FC
:1013D000CF93DF93009709F48CC0FC0132971382FE
:1013E00012820091D0021091D1020115110581F4F1
:1013F00020813181820F931F2091CE023091CF0244
:101400002817390779F5F093CF02E093CE0271C027
:10141000D80140E050E0AE17BF0750F412962D916E
:101420003C911397AD012115310509F1D901F3CF95
:101430009D01DA013383228360817181860F971FBA
:101440008217930769F4EC0128813981260F371F31
:101450002E5F3F4F318320838A819B8193838283D8
:10146000452B29F4F093D102E093D00242C01396A9
:10147000FC93EE931297ED01499159919E01240F2F
:10148000351FE217F30771F480819181840F951F56
:10149000029611969C938E938281938113969C93CE
:1014A0008E931297E0E0F0E0D80112968D919C9116
:1014B0001397009719F0F8018C01F6CF8D919C914C
:1014C00098012E5F3F4F820F931F2091CE023091E3
:1014D000CF022817390769F4309729F41092D10206
:1014E0001092D00202C0138212821093CF02009396
:1014F000CE02DF91CF911F910F910895DC0101C0C1
:101500006D9341505040E0F708952F923F924F92D3
:101510005F926F927F928F929F92AF92BF92CF9283
:10152000DF92EF92FF920F931F93CF93DF93CDB78C
:10153000DEB7CA1BDB0B0FB6F894DEBF0FBECDBF04
:1015400009942A88398848885F846E847D848C84D5
:101550009B84AA84B984C884DF80EE80FD800C81DE
:101560001B81AA81B981CE0FD11D0FB6F894DEBFC1
:101570000FBECDBFED010895EE0FFF1F0590F49152
:10158000E02D0994A0E0B0E0E8ECFAE00C94890AC0
:10159000EC01009721F4CB010E945109B8C0FC0175
:1015A000E60FF71F9C0122503109E217F30708F4F8
:1015B000ACC0D9010D911C91119706171707B0F017
:1015C0000530110508F49FC0C801049786179707D6
:1015D00008F499C002501109061B170B01931193CF
:1015E0006D937C93CF010E94E6098DC05B01A01A28
:1015F000B10A4C01800E911EA091D002B091D1028F
:1016000040E050E0E12CF12C109709F44AC0A815F5
:10161000B905D1F56D907C901197630182E0C80EF9
:10162000D11CCA14DB0480F1A3014A195B096A01C9
:1016300082E0C80ED11C1296BC9012971396AC9102
:10164000B5E0CB16D10440F0B282A383518340832E
:10165000D9016D937C930AC00E5F1F4FC301800FA9
:10166000911FF90191838083EB2DFA2FE114F1048E
:1016700031F0D7011396FC93EE93129744C0F09388
:10168000D102E093D0023FC08D919C9111974817F1
:10169000590708F4AC017D0112960D90BC91A02D64
:1016A000B3CF8091CE029091CF0288159905E1F4D5
:1016B00046175707C8F480910001909101010097E7
:1016C00041F48DB79EB74091040150910501841BF0
:1016D000950BE817F907C8F4F093CF02E093CE0218
:1016E000F901718360830FC0CB010E9451097C0115
:1016F000009759F0A801BE010E94910BCE010E94F3
:10170000E609C70104C0CE0102C080E090E0CDB779
:10171000DEB7EEE00C94A50A81E090E0F8940C941A
:10172000A10BFB01DC0102C001900D924150504021
:10173000D8F70895FB01DC0101900D920020E1F73C
:10174000089510E0C8E5D0E004C0FE010E94BC0A84
:0C1750002196C935D107C9F7F894FFCFE6
:10175C000000D20280001800000000000000000011
:10176C00E8FFE8FF0000000000001400000000008B
:10177C0000000000ECFFECFF000000000000000087
:10178C000000A4010D013C01EB016D014B015F0157
:10179C0018000000000037044E04E8FFE8FF0000CA
:1017AC004404580446010C011601500100000000CD
:1017BC00E9036204E703E403E103DE03DB03CF0385
:1017CC0089037003570355030203E1021400000060
:1017DC00000085049C04ECFFECFF00009204A604BE
:0A17EC00820120012A018C01000097
:00000001FF
